:020000022000DC
:1060000000000120756302005D6302005F6302000F
:106010006163020063630200656302000000000028
:1060200000000000000000000000000067630200A4
:1060300069630200000000006B6302006D630200F0
:10604000118702006F630200598B0200B1950200B4
:106050006F6302006F6302000D8A02006F6302002B
:106060006F6302006F6302006F6302006F630200E0
:106070006F6302006F6302006F6302006F630200D0
:106080006F630200FD7702006F6302006F6302001E
:106090006F6302006F63020011B202006F630200BF
:1060A0006F6302006F6302006F6302006F630200A0
:1060B0006F6302006F630200000000000000000038
:1060C0006F6302006F6302006F6302006F63020080
:1060D0006F6302006F6302006F6302000000000044
:1060E00000000000000000000000000000000000B0
:1060F00000000000000000000000000000000000A0
:10610000000000000000000000000000000000008F
:10611000000000000000000000000000000000007F
:10612000000000000000000000000000000000006F
:10613000000000000000000000000000000000005F
:10614000000000000000000000000000000000004F
:10615000000000000000000000000000000000003F
:10616000000000000000000000000000000000002F
:10617000000000000000000000000000000000001F
:10618000000000000000000000000000000000000F
:1061900000000000000000000000000000000000FF
:1061A00000000000000000000000000000000000EF
:1061B00000000000000000000000000000000000DF
:1061C00000000000000000000000000000000000CF
:1061D00000000000000000000000000000000000BF
:1061E00000000000000000000000000000000000AF
:1061F000000000000000000000000000000000009F
:10620000354936480A1A02D0072291438D4634494F
:1062100034480A1A06D00722914381F309880222E2
:1062200082F3148830483149314A00F044F831484B
:106230003149324A00F03FF831483249324A00F0E1
:106240003AF832483249334A00F035F83248334997
:10625000334A00F030F833483349344A00F02BF821
:1062600033483449344A00F026F83448344900228F
:1062700000F02CF833483449002200F027F8334866
:106280003349091A082902DB002202604160314AC1
:1062900090471F481F49884205D00268043003B464
:1062A000904703BCF7E700208646EC46002000211B
:1062B000294A9047FEE7884207D0521A05D0037852
:1062C00001300B700131013AF9D17047884202D098
:1062D00002700130FAE770470000012000E0002062
:1062E00000000120000001209CCD0200F0220020CF
:1062F00070230020D0630200D0630200D0BD0200F2
:106300009CCD0200F0220020F0220020C4BE02003A
:10631000C4BE0200C4BE0200C4BE0200C4BE02006D
:10632000C4BE0200C4BE0200C4BE02009CCD020076
:106330001CCE020070230020702300207023002058
:10634000C4570020C4570020C4570020C457002061
:10635000C47700209D630200399C0200FEE7FEE73F
:10636000FEE7FEE7FEE7FEE7FEE7FEE7FEE7FEE705
:1063700000F002B8FFF7FCBF0F484FF00701884359
:1063800085460E4880470E48016841F4700101605F
:10639000BFF34F8FBFF36F8FFFF732BF09480A4932
:1063A0000A4A884207D0521A05D0037801300B7090
:1063B0000131013AF9D170470000012055810200F6
:1063C00088ED00E0C4BE0200F0220020F022002090
:1063D000F0B595B01D46164608460C4601F0BCFDCA
:1063E0001A9B0D93CDE9086500252B46082205A9C7
:1063F00020460A958DF82C500C9501F0C9FD079B9D
:106400000293069B03939DF814308DF8115003F00E
:106410000302012A1DD1BDF81420059DC3F3C20358
:10642000C2F383168DF81030B20008230EA920465F
:1064300001F0AEFDC5F3952508AB0093324602ABE3
:106440000EA9284600F0AEFB204601F089FD15B0EC
:10645000F0BD022AF8D1BDF81650C3F3C203C5F34C
:1064600089158DF810300827082D2E4628BF0826DC
:106470003B4632460EA9204601F08AFDAD1B08AB13
:1064800002AA31460EA8374400F0F0FB002DEBD1F4
:10649000DAE70000014B01221A707047B123002097
:1064A0007047000070B50E4D06460FCD88B06C46A3
:1064B0000FC495E80F00002E84E80F00094A0A482F
:1064C0004FF0060308BF00226946009302F0A8F8C7
:1064D00008B100F0C9FD054B1E7008B070BD00BFCB
:1064E000C4BE020095640200F02200207023002048
:1064F00007B5044B0093044A4023FFF769FF03B03C
:106500005DF804FB0D6502007123002038B50D48CD
:106510000D4C0E4D002323700378EB5CD2B263B1B7
:10652000043002F0A7FF08B100F09EFD084B1A7876
:1065300012B12378002BFBD038BD0C3002F048FD9F
:10654000F1E700BFF0220020B1230020302A002014
:106550007023002008B50848084A0378D35C3BB193
:10656000043002F0EBFEBDE808400020FFF79ABFC0
:106570000C3002F0B7FCF6E7F0220020302A0020B1
:106580000120FFF78FBF000008B5FFF7F9FF0448AF
:10659000042100F071FA034B01225A7108BD00BFBB
:1065A000B4BE020004230020037813F0040216D0C6
:1065B00003F00303012B03D0022B09D00120704705
:1065C0000A6800880232C0F3831002440A60F5E7CB
:1065D0000B684288023303EB92130B60EEE7104620
:1065E000704700002DE9F04FDFF81CA187B00F467F
:1065F00000230446861C0DF1070015468DF8073070
:1066000000F08EFFDAF804203A60DAF8083003F57B
:1066100080739B1A0AF21C470AF583690AF2144830
:10662000B3421AD30020002D69D004F00F039B0160
:1066300043F0050363F30F00DAF80430DAB20332F3
:1066400033444AF822009DF80700CAF8043000F0ED
:106650008BFF012007B0BDE8F08F0121384601F023
:10666000AAF9484601F0BFF9404601F0BCF9DAF852
:1066700008000290C0B203300AEB800002A9FFF7C5
:1066800093FF029B30BBDAB20AEB8202D16803911E
:106690009A1C0133DBB20AEB83030292D3F80CB0ED
:1066A00001F00303012B22D0022B15D08346404674
:1066B00001F09CF910B1029BCAF8083059463846DF
:1066C00001F079F9DAF80830DAF8042003F580737C
:1066D0009B1AA5E7D8B2CEE7BDF80E30C3F38913F5
:1066E00003334FEA1B4B02EB93030293DFE7BDF842
:1066F0000C30C3F383134FEA1B4B1344F5E7A40597
:1067000044F0060098E700BF84240020064B0748A9
:1067100010B500221A7001F0D8FB044610B90448E5
:1067200001F080FC204610BD8424002020BE020021
:1067300018BF020030B50A4C71B10A4A0A49121B4F
:10674000D20800239A4201D1002030BD31F82350F5
:10675000854202D00133F5E7034654F83300F4E7ED
:1067600034BE0200B4BE0200F0220020094B013901
:1067700003EBC000032909D8DFE801F00A02040690
:1067800004207047007970474079704700207047B7
:106790000220704734BE020070470000034BD3E96B
:1067A0000130C31A58425841704700BF842400206A
:1067B0002DE9F04186B0FFF7F1FF0546002840F0D3
:1067C000ED80774CC4F81804BFF34F8FA368029391
:1067D000DBB2033304EB830002A9FFF7E5FE029B63
:1067E00018B1D4F81824002A5AD0DAB2991C01330F
:1067F00004EB8202DBB204EB8303D268DB68049310
:1068000002F00303022B0392029154D1BDF80E3023
:106810006448C3F38917502F3E4628BF502606F11F
:10682000080166F38F13C1F30901ADF80E3001F0D2
:1068300064FB0546002800F09C8001F08DFB0023DE
:10684000082203A9284601F099FB0299CB43DBB249
:106850000133C9B20331B6EB830F4FEA830204EB75
:10686000810125D95FFA82F80823A6EB080628469D
:1068700001F084FBF6B208F108034B4903F0FC0376
:106880003246284601F07AFB029B033703EB970759
:106890000297D4F81834002B43D1D4F8106453E095
:1068A00062689A4294D8A260284606B0BDE8F0819A
:1068B00008233246E5E7012B5BD1BDF80C3039489F
:1068C000C3F38311062928BF062161F3891302311E
:1068D00001F00F018900ADF80C3001F00EFB054608
:1068E000002846D001F038FB0023082203A92846DF
:1068F00001F044FB0026BDF80C20C2F38312B30064
:10690000964203F10803C4D202994A1CC9B203316A
:10691000029204EB81010422284601F02FFB01368C
:10692000E9E7284601F01CFBFFF738FF80F0010083
:10693000C5B2B9E7F3685B7923B1336829461B68B0
:1069400030469847F3681E68002EF3D1284601F0C0
:1069500007FB0DF107008DF8076000F0E1FDD4F8AA
:1069600018340BB9029BA3609DF8070000F0FCFDF2
:10697000DAE7D4F8104454B90C4B0D480D49C01A4D
:10698000C008000440F0020000F05EF8CCE7236885
:1069900020469B689847E3681C68ECE7002583E77E
:1069A0008424002020BE02009024002034BE020077
:1069B00064BE020001BF02002DE9F34704460E4603
:1069C000924601A9012218469946FFF70BFE1C4F7B
:1069D00010B3019D4FF00008AA1CC84508EB020146
:1069E00025D11848002100F0B7FF80F31000000403
:1069F00040EA1440E4006B1C04F03804DBB2EDB252
:106A000044F0010407EB8303033544EA881444EAA5
:106A10008624D86047F825403B781BB1FFF7C8FEB5
:106A20000028FBD1FFF7B8FE02B0BDE8F087C9B27D
:106A300007EB81015AF82830CB6008F10108CCE758
:106A400084240020A028002000231A46FFF7B4BFAA
:106A500007B50123019201AAFFF7AEFF03B05DF86D
:106A600004FB07B5CDE9002302236A46FFF7A4FF24
:106A700003B05DF804FB000030B50F4CD4F81024CF
:106A800003460020114631B9D96808714AB9C4F8E3
:106A900010340A6030BDC9680D79854206D0096896
:106AA000F1E7D26814680C601360F3E701300A283C
:106AB000E8D14FF0FF30EDE78424002038B5084BD3
:106AC0000125D3F810441D7004B938BDE3685D7129
:106AD000236820465B689847E3681C68F4E700BFBA
:106AE0008424002030B5C38885B004460D4633B1F8
:106AF000144A00921449154A284600F0DAFF217A18
:106B000005291DD0637A4BB1A088FFF72FFE104BEB
:106B1000104953F82020284600F0CBFF227A0E4B74
:106B2000A08853F8222003920021FFF703FE039A66
:106B30000A490346284605B0BDE8304000F0B9BF19
:106B400005B030BD44BF02002CBF020024BF0200CC
:106B5000B0BF020049BF0200D4BF02004CBF020018
:106B600007B503460846197A052911D05B7A2BB17F
:106B7000094A0A49019000F09CFF019808490190D8
:106B800000F097FF019803B05DF804EB00F086BFBA
:106B9000002AF8D0F2E700BF44BF020049BF02005C
:106BA0007AC602002DE9F04385B01F460C9D0023F4
:106BB00095F80C902B7306460C46904629463846AD
:106BC000FFF790FFB8F1060F09D8DFE808F00412CC
:106BD000181F283340003146284600F06AFF002283
:106BE00029463846FFF7BCFF85F80C9005B0BDE894
:106BF000F08322683146284600F05BFFEFE7D4E9D6
:106C000000233146284600F054FFE8E7A3680093CC
:106C10003146D4E90023284600F04BFFDFE7E36864
:106C20000193A36800933146D4E90023284600F07D
:106C300040FFD4E723690293E3680193A3680093BC
:106C40003146D4E90023284600F033FFC7E76369E3
:106C5000039323690293E3680193A3680093314689
:106C6000D4E90023284600F024FFB8E708292DE9DD
:106C7000F74F80460E4617461C463DD800251B7B25
:106C80002573214610460193FFF72CFFDFF88CA0F7
:106C9000DFF88CB0AE4232D918F8052059462046AC
:106CA00000F007FF0135082DF4D11B49DFF874A06F
:106CB000DFF874B0204600F0FCFE4FF000094E45AE
:106CC00024D918F809507E2D1ED8284604F0A8FCB7
:106CD000002814BF2A462E225946204600F0E9FE1D
:106CE00009F10109B9F1080FE9D10122214638461D
:106CF000FFF736FF019B237303B0BDE8F08F5146C9
:106D0000204600F0D6FECDE72E22E5E7514620468C
:106D100000F0CFFEE4E700BF60BF02005CBF0200EE
:106D200056BF02005EBF020062BF0200C30710B57B
:106D300007D4F023054A4008145C2340194311543A
:106D400010BD0901C9B20F23F4E700BF502900208C
:106D500030B5094B1C78094B196800239C4202DCB2
:106D60000022104630BD11F83350854201EBC302BA
:106D7000F7D00133F2E700BF3C2900206029002052
:106D800013B504460191FFF7E3FF38B143682BB117
:106D90000199204602B0BDE81040184702B010BD6E
:106DA000034B044819680022490800F081BA00BF6B
:106DB000402900201023002010B5C0B2FFF7C8FF03
:106DC0000446007801F018FE63785A1E534253417E
:106DD000834208D1044BD3E90023134303D1BDE818
:106DE0001040FFF7DDBF10BD4829002037B543082C
:106DF000374AD35CC2074CBF1B0903F00F0304469C
:106E00000D46042B25D8DFE803F003262F3C400075
:106E1000F9B10121FFF78AFF00230DF107008DF87A
:106E2000073000F07DFB0120A4F12003C4F1200114
:106E3000284A20FA01F100FA03F30B43A040D2E9FB
:106E4000004120430B43C2E900039DF8070000F016
:106E50008BFB03B030BD002918BF0221204603B0D0
:106E6000BDE83040FFF762BF49B10321FFF75EFF85
:106E70000121204603B0BDE83040FFF781BF01216A
:106E8000ECE70029E5D10421E8E709B10321E5E7B2
:106E9000FFF74CFF29462046FFF772FF0DF1070070
:106EA0008DF8075000F03CFB0120A4F12003C4F151
:106EB0002001084A20FA01F100FA03F30B43A04035
:106EC000D2E9004124EA000021EA0303BBE700BF46
:106ED00050290020482900202DE9F041124E134F7F
:106EE00000243378A34208DC114BD3E90023134379
:106EF00018D0BDE8F041FFF753BF3D6805EBC4086B
:106F000015F8340001F078FD98F801305A1E53420C
:106F10005341181A4142414115F83400FFF766FF0A
:106F20000134DEE7BDE8F0813C2900206029002023
:106F300048290020092AF7B505460C4616463ED9D1
:106F400001F070FCE8B11F4B1F481D601F4B204F24
:106F50001C70204B002110221E6004F0B6FB1E4B5B
:106F600000200021C3E90001013CE4B20326FF2C0C
:106F70000DD11A4A1A48002103B0BDE8F04000F0D4
:106F800085B901F017FC0028DDD003B0F0BD9DF8F5
:106F9000063015F834008DF8046005EBC40223F0C8
:106FA00007038DF8063001A993788DF805303A462D
:106FB00001F042FC013CE4B20028D8D0E5E707200C
:106FC000E3E700BF60290020502900203C29002071
:106FD000B96D02004029002048290020D96E020026
:106FE000F4BF020070B5084D084E00242B789C4277
:106FF00001D3002070BD3368012113F8340001F083
:1070000093FC0134F2E700BF3C29002060290020F6
:1070100073B5114D114E00242B789C4215D30023DB
:107020000DF107008DF8073000F07AFA0C4B0021C3
:107030000020C3E900019DF8070000F095FA094817
:1070400002B0BDE8704000F061B9336813F8340055
:1070500001F0B0FC0134DFE73C290020602900206A
:1070600048290020102300201FB50021039001AA09
:1070700044F20100CDE9011100F004F805B05DF81B
:1070800004FB000038B572B6FFF718FDFFF790FB60
:107090000028FBD1104B114C114D1249E41AE408A1
:1070A000240444F00100FFF7CFFCD5F8F030DB07F3
:1070B00000D500BE0C4944F00200FFF7C5FCBFF349
:1070C0004F8FEA68094B02F4E0621343EB60BFF3B1
:1070D0004F8F00BFFDE700BF34BE020064BE020058
:1070E00000ED00E0F8BF020004C002000400FA0551
:1070F00010B5D0E90243D1E90202A04272EB0303CA
:107100002CBF0120002010BD08B50A4800F05FFB2D
:10711000094AD2E90031C018084BD3E9002341F1F4
:107120000001904271EB030303D210F1807041F132
:10713000000108BD3023002068290020E02900203C
:1071400037B505460C460A4801A900F074FB60B14A
:107150000570446001A9064800F097FB18B1054886
:1071600000F03AFB002003B030BD0420FBE700BF75
:10717000CC29002030230020294B73B51E7804460B
:107180001EB90026304602B070BD0028F9D0FFF7C6
:10719000BBFFD4E902239042994139D300230DF17A
:1071A00007008DF8073000F0BBF923692BB94FF0C9
:1071B000FF324FF0FF33C4E902239DF8070000F0CF
:1071C000D3F9D4E90530984700250DF107008DF873
:1071D000075000F0A5F92369C3B1D4E90212B2F156
:1071E000FF3F08BFB1F1FF3F05D05B1842F100023D
:1071F000C4E9023235469DF8070000F0B5F9002DCC
:10720000BFD00848214600F02CFFBBE71D46F2E73F
:10721000B3F1FF3F08BFB2F1FF3FB2D0F1E700BFCB
:107220007029002020C0020013B5114B11491868C5
:10723000019008231048582200F0EAFA044698B951
:107240000E4A0F4801A900F0B3F9044660B90C4892
:10725000012100F09FFA01230A4A0948194600F06B
:1072600001FA094B01221A70204602B010BD00BF7E
:107270001CC0020074290020CC2900206973020080
:1072800030230020FFFF7F007029002030B56AB155
:1072900003684FF0FF344FF0FF355A614A1E5142E8
:1072A000C3E9024551411961002030BD0720FCE7C8
:1072B000F7B5044600250DF1070017460E468DF878
:1072C000075000F02DF9D4E90223B3F1FF3F08BFC6
:1072D000B2F1FF3F07D1FFF717FF301841F100016E
:1072E000C4E9020101259DF8070000F03DF955B100
:1072F0002369A76103B126612146002003B0BDE8E0
:10730000F040FFF71DBF284603B0F0BD37B5054676
:1073100000240DF107008DF8074000F001F9D5E9D0
:107320000223B3F1FF3F08BFB2F1FF3F1FBF4FF091
:10733000FF324FF0FF33C5E9022301249DF8070017
:1073400000F012F934B12946012003B0BDE8304005
:10735000FFF7F6BE204603B030BD0000014800F044
:1073600036BA00BF302300202DE9F743064600F06F
:1073700019FA40B1624AD2E9003113F1807341F148
:107380000001C2E900310021304600F01AFA38B19C
:107390005C4C236823B12068FFF7EEFE00232360D6
:1073A0000121304600F00DFA20B1FFF7ADFE564B3B
:1073B000C3E900015548534C01A900F076FA4FF09B
:1073C000FF384FF0FF39A0B9DFF844814D4D4046FA
:1073D00000F05DFE002800F08580D0E90223B3F1C3
:1073E000FF3F08BFB2F1FF3F32D1404600F049FEF7
:1073F000EDE70378012B20D0022B08D1444D28461D
:1074000000F03FFE002877D0C0E90289F7E75BB9BA
:107410004168D1E90223B3F1FF3F08BFB2F1FF3F5A
:1074200002D03B4800F01DFE01A9384800F068FA80
:1074300001A9364800F039FAC5E741682368994246
:1074400002D100232360EFE7314800F023FEEBE791
:10745000296891B12968D1E9020182428B412FD27A
:107460002B68D3E90223B3F1FF3F08BFB2F1FF3F1E
:1074700003D02968404600F0F4FD404600F001FECC
:10748000D0E902490746FFF73FFE201A69EB0109E0
:10749000012879F1000318DBB0F5350F13D3FFF79E
:1074A0005DFF1C4A02441C484FF49603002100F083
:1074B000F9F890B92B6813B9304600F0CBF82F607B
:1074C00003B0BDE8F0832246EDE71348002100F049
:1074D0006EF93846FFF750FE01E00D28F9D0002381
:1074E0002B6074E7074B1B68002BE9D1304603B0D3
:1074F000BDE8F04300F0B2B8084B01221A7093E7E0
:1075000068290020E8290020E0290020CC2900205B
:1075100020C00200FFFFB4003023002070290020AB
:1075200070B5EFF3108672B60C4A946801239CB9CB
:1075300093600B4B0B4DD3F8801029401160C3F8BA
:107540008050D3F8841051604FF0FF32C3F884208C
:10755000047006B962B670BD0370FAE7EC2900202A
:1075600000E100E0FC06FFBD084B9A6810B55AB177
:1075700050B9EFF3108172B6054A1C6814605C685C
:107580005460986001B962B610BD00BFEC290020BC
:1075900000E100E0435882B03BB100234350435820
:1075A0000193019B012002B070471846FBE70000E1
:1075B000F8B5204B4479204E43F824201F4A204B35
:1075C00006EBC4049B1A2279DB081B0432B143F09A
:1075D00002001C49FFF738FA0820F8BD02680C8841
:1075E000C2F8084590F904508A7804795201002DB8
:1075F000D2B219DB14494F1987F8002301226D0913
:1076000004F01F0402FA04F441F82540427906EB25
:10761000C201012446F832000C7143F003000B490B
:10762000FFF712FA0020D8E7094904F00F040A55C1
:10763000ECE700BF002A0020F829002034BE020039
:1076400074BE02002CC0020000E100E04EC0020047
:1076500014ED00E0036801221A60704703680122FC
:107660005A60704773B501F15005AD000068ADB2C6
:107670004FF480348C400026C0F80843C0F84843DB
:10768000465101F5A8714559019522F07F42019DAF
:1076900040F82120C0F844430BB1C0F8044302B0C5
:1076A00070BD00002DE9F74F0D4622F07F440268BF
:1076B0004FF4803705F150068F408046B60002EB4C
:1076C0008500C2F84873B6B2C2F80873D2F8041540
:1076D00099464FF0000BD0F84035C0F8401542F8FD
:1076E00006B05B1A9259009223F07F43012B009A57
:1076F0004FEA850A0CD1264B4FF4806043F001031A
:107700009847D8F8003043F806B09B590193019B85
:10771000D8F80010D1F80465C1F84473A31B23F016
:107720007F43012B1CD11A4B05F5A875013443F09A
:10773000010341F825404FF480609847D8F80030A5
:10774000D3F804359E4209D1D8F800300020C3F8A0
:107750004473C3F8047303B0BDE8F08F0D20FAE75B
:107760008A44C9F1FF13CAF84045D1F80405221A2A
:10777000013A22F07F4203F57F439342EED3002A81
:10778000E2D10134CAF84045D1F804359842DAE72D
:1077900060C0020003680222C3F8442309B1C3F8A1
:1077A0000423704700684FF48271FFF7F3BE4FF473
:1077B000803303FA01F10368C3F84813C3F80813D0
:1077C000704750318900006889B2FFF7E3BE036853
:1077D000D3F804057047000090F90430002B09DB52
:1077E0005A09012103F01F0301FA03F34032024951
:1077F00041F82230704700BF00E100E0024B034A2D
:107800001B681068184700BF002A0020F8290020D4
:1078100010B561B1B2FBF3F403FB1424A4B244B974
:10782000C0E9001484608281C381204610BD0E200F
:10783000FCE70920FAE737B550E8013F9DB2C4895B
:1078400025448489A54228BF2D1B0489A54202BF77
:10785000BFF32F8F002207E0C5EA030540E801547B
:10786000002CE9D14FF001028DF803200193019A19
:107870000A609DF8031001F0FF0321B1006810FABF
:1078800082F003B030BD1846FBE70A884B889A4265
:1078900009D150E8012FC2EA024240E80123002B3F
:1078A000F7D1012070470020704737B550E8023FFC
:1078B0001FFAA3F5C488A54202BFBFF32F8F002291
:1078C0000DE0C48925448489A54228BF2D1BC3EA45
:1078D000054540E80254002CE8D14FF001028DF834
:1078E00003200193019A0A609DF8031001F0FF0341
:1078F00021B1006800EB124003B030BD1846FBE731
:107900000A884B889A4209D150E8022FC2EA2242E3
:1079100040E80223002BF7D1012070470020704778
:1079200001F01F024B090121914000EB830000F0A0
:107930001EB801F01F0301229A404B0900EB83009F
:10794000D14300F02CB84B0901F01F0150F823007F
:10795000C84000F00100704710B5034653E8000F1F
:107960000A4643E8002494F0000FF7D110BD10B58B
:10797000034653E8002F42EA010043E8000494F074
:10798000000FF6D110BD10B5034653E8000F00EA12
:10799000010243E8002494F0000FF6D110BD10B5A9
:1079A000034653E8002F02EA010043E8000494F084
:1079B000000FF6D110BD10B5034653E8002F02EBBF
:1079C000010043E8000494F0000FF6D110BD10B59B
:1079D000034653E8002FA2EB010043E8000494F0B3
:1079E000000FF6D110BD0121FFF7C1BF0021FFF745
:1079F000CABF10B590B1D0E9012301689B1ADBB270
:107A00000A60013BDBB2FF2B026802D1002010713B
:107A100010BD11684C1C14600B70F2E70E20F7E7E4
:107A200037B5054600240DF107008DF80740FFF734
:107A300077FD2A686B68116899420ED9481E10605C
:107A400011F8013CEC68298A01FB0344AB68117909
:107A50001B1ADBB2994238BF13719DF80700FFF77C
:107A600083FD204603B030BD37B5054600230DF138
:107A700007000C468DF80730FFF752FD2A6813689F
:107A8000591C1160E968641A298AB4FBF1F41C706E
:107A90009DF80700FFF768FD03B030BD826810B5A0
:107AA00004462AB143690168006998470023A3602E
:107AB00010BD0EB403B5039921B104AB01AA019323
:107AC00000F076F802B05DF804EB03B070470A29C5
:107AD00038B504460D4602D10D21FFF7F8FFA36823
:107AE0002268591CA160D554D4E901329A4204D3CA
:107AF0002046BDE83840FFF7D1BF38BD2DE9F84F2B
:107B00009846DDE90A43154682460F460A464FF07D
:107B10000109AA420FD2C14538BFC14613F0010B7B
:107B200001D16CB900240126B8F1010F1BD908F16D
:107B3000FF386E43F8E709F10109B2FBF5F2E8E717
:107B40009B070ED5B8F1000F0CBF30262026A145AB
:107B5000E9D2013C31465046FFF7B9FF002CF6D17F
:107B6000E0E72026F3E7B7FBF6F39D42E1D9DFF823
:107B70003C80B7FBF6F3504618F8031006FB13776A
:107B8000FFF7A5FF3346AB42B6FBF5F6F1D2BBF1EA
:107B9000000F02D00CB1A14501D3BDE8F88F202120
:107BA0005046013CFFF793FFF4E700BF66C00200B8
:107BB0002DE9F74F054617468846002900F03E811B
:107BC00018F8011B49B92B7B002B00F037812846A0
:107BD00003B0BDE8F04FFFF761BF252940F0B78043
:107BE000002698F800302D2B424608F1010823D0DA
:107BF000302B24D02B2B25D000242A2B02F101017D
:107C000023D13B681A1D1B683A601C440A4613784E
:107C10002E2B26D101324FF0000A104610F8011B1E
:107C2000A1F1300CBCF1090F1DD80A2303FB0A1384
:107C3000A3F1300A0246F0E746F00106D1E746F02C
:107C40000206CEE746F00406CBE711F8013CA3F1AB
:107C500030000928DBD80A2202FB0434303C0A46F3
:107C6000CBE74FF0000A12F8011B01F0FB00682877
:107C70009046F8D0782909D86F290CD8632962D0AA
:107C800022D8252963D0582900F0888098F8003040
:107C9000002B95D197E770390829F7D801A353F83D
:107CA00021F000BF177E02008D7C02008D7C020057
:107CB000AD7D02008D7C02008B7D02008D7C020078
:107CC0008D7C02009D7D0200642901D06929DDD1EF
:107CD0003A68D2F80090111D89EAE9723960A2EB86
:107CE000E9724FF0010B092A35DCD34538BFD34682
:107CF0002CB1B9F1000F01DB720700D5013CB307CD
:107D000002D5BAF1000F03D0F00701D44CBB002418
:107D1000B9F1000F2DDAC9F100092D212846FFF72E
:107D2000D6FE06F00302022A04D1BAF1000F01D1F7
:107D30001CBB0024CDE9004653460A22494628468A
:107D4000FFF7DCFEA2E73B681A1D19783A60284667
:107D5000FFF7BDFE9AE70A230BF1010BB2FBF3F22A
:107D6000C1E7A345D4D220212846013CFFF7AFFE4E
:107D7000CCE77107D5D52B21D0E7A345DAD2302146
:107D80002846013CFFF7A3FED2E73968CDE900465B
:107D90000A1D3A6053460A220968D0E739680A1D6D
:107DA0003A60CDE9004653461022F5E73B681A1DBC
:107DB0003A6016F00106D3F8009024D1B9F1000F13
:107DC00003D0484603F0D6FC0646B4421DD809F15C
:107DD000FF3919F8011F00293FF458AF2846FFF773
:107DE00076FEF6E728460136FFF771FE19F8061011
:107DF0000029F7D1A642BFF449AF20212846013C13
:107E0000FFF765FEF6E70026F0E720212846013C53
:107E1000FFF75DFED9E73B681A1D3A60302128461E
:107E20001C68FFF754FE78212846FFF750FE002219
:107E30000823CDE900322146102280E703B0BDE8D7
:107E4000F08F00BF2DE9F84FB0F806A04579D2F8C1
:107E500000B09DF828900AFB05F5043D88460BEB21
:107E60000301A94203F1040488BFA5EB030BB4FB93
:107E7000FAF607460AFB1644C2F800B04EB9AAEB60
:107E800004055D4528BF5D46BBF1000F04D1BDE888
:107E9000F88F3F68013EF1E7043408EB06003C44EC
:107EA0002A46B9F1000F0DD02146ABEB050B03F0CC
:107EB000E3FBDA452E443F6855464FF0000428BFE7
:107EC0005D46E1E701462046EFE7FFF792BDF8B5D2
:107ED00046790146721E0546002393422D6803D35E
:107EE0000024A64202D8F8BD0133F6E70F68284601
:107EF000FFF7BAFD01343946F3E72DE9F843068A66
:107F0000CD1C0746FFF78CFD043E35440446B5FB07
:107F1000F6F5F0B14FF48073EDB28380C680013D79
:107F2000076081464FF00008A84512D23846FFF797
:107F300077FD064648B163790133637108F10108A2
:107F4000C9F8000007608146EEE72046FFF7BFFF53
:107F500034462046BDE8F88301210430FFF72BBDED
:107F600010B5012104460430FFF731FDC0B220B93D
:107F70002046BDE81040FFF7AABF10BD1FB5039211
:107F80000022009203AAFFF75DFF05B05DF804FB35
:107F90001FB503920122009203AAFFF753FF05B019
:107FA0005DF804FB41DF7047064B10B500241C70E0
:107FB000054B1C60BFF35F8F0449054800F03BF898
:107FC000204610BD0C2A0020102A002080C002008C
:107FD000042A002007B500230DF107008DF80730B3
:107FE000FFF79EFAF1EE103A23F09F03E1EE103A0C
:107FF000BFF35F8F0A4B4022C3F884219DF807002E
:10800000FFF7B2FA03F0EAF820B103B05DF804EB31
:10801000FFF7C8BF20BF40BF20BF03B05DF804FB1F
:1080200000E100E0836800225A60C3E904229A60FC
:10803000DA601A6070470B684A684360934208BF71
:108040000023016008BF43607047436843B1026882
:10805000916852680B449342436004BF002343601D
:10806000704770B5446806460D46206818B1B3687D
:108070002946984718B923682B60256070BD24688D
:10808000F3E74368186808B102681A6070474368EC
:10809000186870474368186800B97047884203D170
:1080A00002681A600120704703460068F4E7000088
:1080B00010B50D49A1F59472914201D800200FE04E
:1080C0008C1AE30F03EBE4035B1002EBC30452F8DA
:1080D0003330834205D802D204F10802ECE760682D
:1080E00010BD2146E8E700BF8CC5020008B5FFF7C8
:1080F000DFFF024B002808BF184608BD4FC402002E
:108100004FF08053D3F83001421C04BF4FF070434E
:1081100093F8E00F831F5842584170474FF0704367
:1081200093F8E02F062A09D1D3F8E83FC3F30313ED
:10813000033B042B02D8024AD05C704700207047F2
:108140009BC50200024AD2F80034002BFBD07047D6
:1081500000E0014010B5FFF7D3FF40B14FF080536E
:10816000944AD3F82433C3F30423C2F84035FFF70D
:10817000D5FF10B1904B914A5A67FFF7C1FF48B144
:108180004FF080534FF08042D3F84432C3F3423370
:10819000C2F83C35FFF7C2FF30B1894AD2F8FC3053
:1081A00023F08073C2F8FC30FFF7AAFF40B14FF014
:1081B00080430022C3F80C21C3F81021C3F83825EE
:1081C000FFF7ACFF20B14FF080430322C3F8A02596
:1081D000FFF7A4FF60B17B4B0522C3F810260122F4
:1081E000C3F888260022C3F818263F22C3F81426B5
:1081F0004FF08053D3F83021511C09BF4FF070432A
:10820000D3F8343193F8E02FD3F8E83F08BFC3F335
:108210000313062A4DD1033B042B03D86A4AD35CCF
:10822000002B46D04FF08052684BD2F80414C3F8AC
:108230002015D2F80814C3F82415D2F80C14C3F88A
:108240002815D2F81014C3F82C15D2F81414C3F85A
:108250003015D2F81814C3F83415D2F81C14C3F82A
:108260004015D2F82014C3F84415D2F82414C3F8EA
:108270004815D2F82814C3F84C15D2F82C14C3F8BA
:108280005015D2F83014C3F85415D2F83414C3F88A
:108290006015D2F83814C3F86415D2F83C14C3F84A
:1082A0006815D2F84014C3F86C15D2F84424C3F80A
:1082B0007025FFF725FF48B14FF080534FF0804203
:1082C000D3F8583203F04F03C2F8E43EFFF718FF2B
:1082D00048B14FF08043D3F80024D20744BF6FF079
:1082E0000102C3F800244FF08053D3F83021062A4E
:1082F0000ED1D3F83431033B042B02D8344AD35C7B
:1083000033B1344AD2F83C3743F48063C2F83C3787
:108310002B4AD2F8883043F47003C2F88830BFF398
:108320004F8FBFF36F8F4FF08053D3F83021062A61
:108330000FD1D3F83431033B042B02D8264AD35C47
:108340003BB14FF01023D3F808224FF08043C3F81D
:1083500058254FF01023D3F80022002A03DBD3F86E
:108360000432002B22DA1D4901234FF01020C1F8FE
:1083700004351524FFF7E6FEC0F80042FFF7E2FEE1
:10838000C0F80442FFF7DEFE0023C1F80435FFF712
:10839000D9FEBFF34F8F0A49114BCA6802F4E0625D
:1083A0001343CB60BFF34F8F00BFFDE70D4B0E4A69
:1083B0001A6010BD0030014000C007400DF0ADBA9A
:1083C00000ED00E0005000408CC5020000C00040FD
:1083D00091C502000010004096C5020000E0014077
:1083E0000400FA05382300200090D003044B1A5CE7
:1083F000012393404FF0A042C2F80C35704700BFF4
:10840000A0C50200044B1A5C012393404FF0A04228
:10841000C2F80835704700BFA0C5020008B50020AB
:10842000FFF7F0FF0120FFF7EDFF0220FFF7EAFF63
:10843000BDE808400320FFF7E5BFC20708B50146C5
:108440000CD54FF0A0430322C3F84427C3F84827B4
:10845000C3F84C27C3F85027FFF7E0FF8B070AD576
:108460004FF0A0430C22C3F83427C3F83827C3F8D1
:108470003C27C3F8402708BD38B5074C051E04F15A
:10848000080318BF1C4623682BB11A6822605B687A
:1084900028469847F7E738BD1C2A002020B9054B2D
:1084A00001225A70FFF7E8BF012802D1014A9070FB
:1084B000F8E77047142A002020B9034B01225A70B4
:1084C000FFF7DABF704700BF142A002038B50E4C02
:1084D0002378B3B90D486360A3602361E36000F0C3
:1084E000E7F8054602F07AFE08B900F0EDF801233E
:1084F0002370074BD3F800340BB10123A370284637
:1085000038BD8525F5E700BF142A00209D840200B0
:108510000000014037B50D4C00230DF107008DF828
:108520000730FEF7FDFFE368013BE360E36833B922
:10853000074BD3F8005415B900F0D8F8A5709DF892
:108540000700FFF711F803B030BD00BF142A002068
:1085500000000140012813B50CD0032820D038B901
:10856000134B0122C3F88020BFF34F8FBFF36F8FEF
:1085700002B010BD0F4C00230DF107008DF807303D
:10858000FEF7CEFF23780BB9FFF7A0FFE3689DF855
:1085900007000133E3600123A370FEF7E5FFE7E77F
:1085A00000F092F802B0BDE81040FFF7B3BF00BF83
:1085B00000E100E0142A00201FB503788DF8003098
:1085C0004368019383688DF80830C368054A0393B4
:1085D000054B684653F8213052F82110984705B0F2
:1085E0005DF804FB282A00202C2A00201FB5037800
:1085F0008DF800304368019383688DF80830C368B4
:10860000054A0393054B684653F8213052F8211070
:10861000984705B05DF804FB282A00202C2A00208A
:10862000F0B5194B90F800C091F81DE043F82C20EC
:10863000164B16460A6943F82C20154B03F80CE03C
:108640000C4607460FCC89B06D460FC594E80F0065
:1086500085E80F00CDF810C0BEF1000F09D0002E44
:108660000C4A694608BF3246381D00F0A5FD09B026
:10867000F0BD002E084A694608BF324607F10C00DB
:1086800000F07CFBF3E700BF2C2A0020282A002002
:10869000302A0020B9850200ED85020000F18040FB
:1086A000002382B0036003680193019B02B070470E
:1086B000044A137923B9012110609180184670474C
:1086C00085207047342A0020074B1A68D20704D44B
:1086D000C02283F8002301221A604FF08043012258
:1086E000C3F81825704700BF00E100E04FF080425A
:1086F00008B50223C2F808334FF48270FFF7CEFFAB
:108700000123D360D2F81834DB03FBD408BD00008A
:108710004FF0804110B5D1F8003163B14FF4807053
:10872000FFF7BCFF0D4B58790122C1F8082310B99F
:108730005A711B6898474FF08042D2F8043163B1F8
:108740004FF48270FFF7AAFF0223C2F80833034BED
:10875000BDE810401B680120184710BD342A0020D6
:1087600000F1804000F5C040002382B00360036840
:108770000193019B02B07047800000F1A040D0F847
:10878000002722F44032C0F80027D0F8003743EA2F
:108790000141C0F800177047054B4FF0FF32072822
:1087A00043F8202084BFC01880F84820704700BFDD
:1087B0003C2A002010B5184991F8583053BB4FF0AF
:1087C000FF3222FA03F0C00748BFC81803F10103C3
:1087D00048BF80F83020202BF3D10024E0B20134D0
:1087E000FFF7DAFF0C2CF9D10C4B0022C0204A65B0
:1087F00083F80603402018604FF4BE70FFF7B0FF07
:10880000074B4FF00040C3F80403012381F85830B0
:10881000104610BD0820FCE73C2A002000E100E0E3
:1088200000600040034B93F85800003818BF012047
:10883000704700BF3C2A0020F0B5394E331893F939
:108840003030002B69DA8D78C5F34005002D0BBF61
:10885000082300230C240824A34201D10420F0BDE6
:1088600056F82370013743D137185CB246F82320FD
:1088700087F8304015B9F21882F848008A78550711
:1088800016D4D70736D5820002F1A042D2F800579D
:1088900025F00205C2F80057224FC50800F0070C6A
:1088A000012202FA0CF217F805C042EA0C027A55CE
:1088B0008A780D7812F0020225D09B0003F18043E4
:1088C00003F5C0430002D3F8102522F4473222F406
:1088D0004072C3F810252D04D3F8102500F4F85089
:1088E00005F4403528431043C3F810050020B6E7CF
:1088F0000133B1E74D7800F5E0724FF0A047AD00CD
:1089000047F82250C8E7083C46FA84F494F850002F
:1089100040EA851584F85050E8E708209FE700BF3B
:108920003C2A0020902A002038B5204C251895F9C3
:108930003020072A18DD083A44FA82F494F85030BF
:108940009B09032B0BD14FF0A043D3F81015C14066
:1089500001F001010231BDE83840FFF70DBF012BE6
:108960000CBF02210321F6E7D3B2072B1DD89300D9
:1089700003F1804303F5C043D3F8100540F0010034
:10898000C3F8100502F1400040B2800080B2FFF74A
:10899000E7FE51B195F9303054F823302BB1012363
:1089A00003FA02F2024BC3F8042338BD3C2A00202C
:1089B000006000400E4B034493F93020072A02DD8B
:1089C0000021FFF7D9BED3B2072B10D8930003F1D3
:1089D000804303F5C043D3F8101521F00101C3F81B
:1089E0001015012303FA02F2024BC3F80823704763
:1089F0003C2A0020006000404FF0A043D3F810351F
:108A000023FA00F000F00100704700002DE9F74F55
:108A100000244E4D01944FF48072012102F18043F5
:108A200003F5C04390B21B68012B06D1D5F804337F
:108A30000B4202D0FFF794FE0C430432B2F5907F54
:108A40004FEA4101EAD1414BD3F87C31012B0CD1E3
:108A50004FF4BE70FFF784FE4FF0A04344F0004493
:108A6000D3F820250192C3F82025E3B2D3B1384FC3
:108A700000250126344210D0AB0003F1804303F5FA
:108A8000C043D3F81005D3F8101557F8253023B19B
:108A9000C1F30141C0F3042098470135082D4FEA86
:108AA0004606E7D1002C48DA294D4FF0A048294E60
:108AB0004FF00009012716F9013B5A1C31D0C3F3CE
:108AC000C20208326A44DCB212F8042C03F03F0AF6
:108AD00003F0070307FA03F31A4222D00AF5E07302
:108AE000504658F82330C3F3014BBBF1020F0CBFC3
:108AF00003210221FFF740FE07FA0AF3C8F82035E8
:108B000005EB0A0393F9303055F823304BB1A10936
:108B1000032904D0BBF1020F12D1012901D1504623
:108B2000984709F10109B9F1040FC4D1D8F82035EB
:108B30000193C8F82035002BB9D103B0BDE8F08F00
:108B4000BBF1030FEDD10229E8E700BF0060004050
:108B50003C2A00208C2A0020014B1B68184700BFCC
:108B6000982A00200E4B984237B50C4602D00020C0
:108B700003B030BD00230DF107008DF80730FEF77C
:108B8000CFFC084B1D7915B901221C601A719DF8A4
:108B90000700FEF7E9FC002DE9D01120E8E700BF4F
:108BA00000200040982A0020034B984201BF034B4D
:108BB00000221A601A71704700200040982A002095
:108BC0000023435082B043580193019B02B0704789
:108BD0000A4610B54FF48E71FFF7F2FF136A9168E1
:108BE000C95C136A01331362C0F81C1510BD8B6990
:108BF0000A4610B54FF4847123B9FFF7E1FFD0F8AE
:108C0000183510BDFFF7DCFF536AD168D0F818059E
:108C1000C854536A01335362F3E700001FB50123C0
:108C20008DF80030044BCDE90110D3E900126846FD
:108C3000904705B05DF804FBA02A002030B54D4DEB
:108C4000D5F804339A0585B051D5D5F82431002BD9
:108C50004DD04FF492712846FFF7B2FF4FF40173E5
:108C6000C5F80833444B93F829200AB901226A60F9
:108C7000404902228DF80020D1F88024C1F88024D8
:108C800003929A690292DA6801920022C3E90622ED
:108C90006846D3E9001290473648D0F81C315BB1E2
:108CA000354A5169136A99424DD992F82830002B00
:108CB00049D11146FFF78CFF2E48D0F84431002BE4
:108CC00056D04FF4A271FFF77BFF2B4B93F829206E
:108CD0000AB1012202609A69002A49D0586AD9680B
:108CE00000229A6105B0BDE83040FFF797BFD5F884
:108CF00004335B07D0D5D5F80831002BCCD01E4CFF
:108D00001C482146FFF773FF636AA2699A42C3D1E8
:108D1000E369E1684BB1A3612369E3600023606A02
:108D2000E3616362FFF77AFFB6E794F829300BB985
:108D300001236B600F4B4FF40172C3F8082300232B
:108D4000606AA361EEE70B484FF48E71FFF738FFBE
:108D50005369002BB0D051690291002391688DF8BE
:108D60000030019153616846D2E900139847A3E7A8
:108D700005B030BD00200040A02A00202DE9F843B6
:108D8000534D90F804802C2303FB0853064693F8B8
:108D90002A300C469146002B40F096804D490068E1
:108DA000FFF7E0FE0746002840F090802268306818
:108DB000511C0BD04FF0A04101239340C1F808355E
:108DC00002F5E0734FF0030C41F823C061684B1CBF
:108DD0001FBF01F5E0734FF0A04C4FF0000E4CF8B0
:108DE00023E0A369C0F8243594F814C0637DBCF176
:108DF000010F4CEA0303C0F86C35C0F81415C0F835
:108E00000C251DD1A268531C1FBF02F5E0734FF063
:108E1000A0414FF0000C41F823C0E368591C0BD06F
:108E20004FF0A04C01219940CCF8081503F5E071F2
:108E30004FF0030E4CF821E0C0F80835C0F81025BB
:108E40002C2202FB08F2AB18C3F804902369AB5044
:108E5000B9F1000F20D04FF48E71247FFFF7B0FEE0
:108E60004FF4A2713068FFF7ABFE32681A4BC2F8BC
:108E70000433130B42F307326101002AC9B21EDB2F
:108E80001648841884F800130121520903F01F03C7
:108E900001FA03F340F8223033680422C3F80025B6
:108EA0002C2303FB08530022C3E9062283F8292060
:108EB0005A61012283F82A203846BDE8F883084A1F
:108EC00003F00F03D154E7E70827F5E71127F3E78D
:108ED000A02A00203D8C02008000020000E100E09A
:108EE00014ED00E0F8B503680579304C0022C3F8B2
:108EF00000252C2202FB05425268A2B12C4AC3F87D
:108F000008231A0B43F30733002B0CDB02F01F017D
:108F10005B0901228A402033264941F82320BFF310
:108F20004F8FBFF36F8F0068D0F80C65D0F8141521
:108F3000D0F80835D0F810254FF0FF37BE42C0F802
:108F4000147518BF06F5E076C0F80C75C0F8087502
:108F5000C0F810751EBF4FF0A0474FF0020C47F845
:108F600026C04E1C1FBF4FF0A04601F5E07102273E
:108F700046F82170511C1FBF4FF0A04102F5E0726E
:108F8000022641F822605A1C1FBF03F5E0734FF020
:108F9000A042022142F82310FFF706FE2C2303FB18
:108FA0000544002384F82A306360F8BDA02A00201D
:108FB0008402020000E100E00279044B2C2101FB55
:108FC00002335869003818BF01207047A02A0020DA
:108FD0002DE9F84F064690F8048089469246FFF73F
:108FE000EBFF044600283CD1204F2C2508FB057BD5
:108FF0004FF48E71CBF814A0CBF80890CBF820007A
:109000008BF828003068FFF7DBFD306801238360B0
:109010005946FFF7DDFDDBF804305D461BBB3068C9
:10902000DBF814402B6A9C4211D83368D3F81C211A
:10903000002AFBD00122DA6000202C2303FB0877F2
:1090400000237B61BDE8F88F95F828303BB9D0F854
:109050001C31002BF8D05946FFF7BAFDE2E70F208C
:10906000EBE71120EEE72046ECE700BFA02A002046
:109070000023435082B043580193019B02B07047D4
:109080001FB501238DF80030044BCDE90110D3E961
:1090900000126846904705B05DF804FBCC2A00201A
:1090A0007FB5434AD2F82461002E60D010464FF4B9
:1090B0009271FFF7DDFF02238DF80030D2F8803483
:1090C000C2F880340393D2F83C350293394BDA6806
:1090D00001920022C3E906226846D3E900129047B4
:1090E0003348D0F8443173B14FF4A271FFF7C0FF99
:1090F000304B9A693AB10022C3E90622D968D0F808
:109100003C05FFF7BDFF2A48D0F82031ABB14FF442
:109110009071FFF7ADFF0123C360264B5A6962B11E
:10912000D0F84C150291002299688DF80020019129
:109130005A616846D3E9001290471D48D0F858316B
:109140009BB14FF4AC71FFF793FF1A4B5A6962B1B0
:10915000D0F84C150291002299688DF800200191F9
:109160005A616846D3E90012904704B070BDD2F846
:109170001031002BB4D04FF488711046FFF778FF00
:109180000C4BD2F83C0599698842A9D1DC69D968B1
:1091900064B1D2F8005225F02005C2F800521A69D5
:1091A0009C61DA60DE61FFF76BFF99E79C61FAE78B
:1091B00000200040CC2A00202DE9F8435A4E90F8B8
:1091C0000480242303FB0863044693F820300D46F3
:1091D0009146002B40F0A38054490068FFF7C2FC81
:1091E0000746002840F09D802A682068511C0BD05B
:1091F0004FF0A04101239340C1F8083502F5E07318
:109200004FF0030C41F823C069684B1C1FBF01F5E8
:10921000E0734FF0A04C4FF0000E4CF823E0AB6928
:10922000C0F8243595F814C06B7DBCF1010F4CEAF1
:109230000303C0F86C35C0F80C25C0F814151DD117
:10924000AA68531C1FBF02F5E0734FF0A0414FF016
:10925000000C41F823C0EB68591C0BD04FF0A04C18
:1092600001219940CCF8081503F5E0714FF0030E89
:109270004CF821E0C0F80835C0F81025242202FB84
:1092800008F2B318C3F804902B69B350B9F1000F7A
:109290002FD04FF488712A7FFFF7EAFE20684FF441
:1092A0009071FFF7E5FE20684FF49271FFF7E0FE42
:1092B00020684FF4A271FFF7DBFE4FF4AC71206819
:1092C000FFF7D6FE23681A49C3F80413190B43F3BA
:1092D00007335201002BD2B21CDB1648C51885F8A3
:1092E000002301225B0901F01F0102FA01F140F89D
:1092F000231023680822C3F80025242303FB0866F3
:109300000023C6E906337361012386F8203038460E
:10931000BDE8F883084B01F00F015A54E9E708272C
:10932000F5E71127F3E700BFCC2A0020A190020047
:109330001003420000E100E014ED00E0F8B5444CF9
:109340000579242303FB054302465B680068ABB143
:10935000404BC0F8083340F30733002B4FEA10317D
:109360000CDB01F01F065B090121B14020333A4EAE
:1093700046F82310BFF34F8FBFF36F8FD0F8003242
:1093800023F02003C0F80032242303FB05439B692C
:109390002BB14FF4A271FFF76BFE012343604FF432
:1093A000AC71FFF765FE0123C360242303FB054373
:1093B000D0F858110029FBD0996919B1D0F844119F
:1093C0000029F5D00023C0F800351368D3F80C75D8
:1093D000D3F81465D3F80825D3F810154FF0FF3CE7
:1093E0006745C3F80CC518BF07F5E077C3F814C587
:1093F000C3F808C5C3F810C51EBF4FF0A0434FF017
:10940000020C43F827C0771C1FBF4FF0A04306F59E
:10941000E076022743F826704E1C1FBF01F5E0716D
:109420004FF0A043022643F82160531C1FBF4FF0AA
:10943000A04302F5E072022143F82210FFF7B4FBCB
:10944000242303FB0544002384F820306360F8BD27
:10945000CC2A00201003420000E100E00279044B16
:10946000242101FB02335869003818BF01207047DE
:10947000CC2A002001F06043B3F1005F2DE9F047F2
:109480000646884692463BD190F80490FFF7E6FFE7
:109490000446002836D11D4F3068242505FB097588
:1094A0004FF49071C5F814A0C5F80880FFF7E0FDEF
:1094B0004FF4AC713068FFF7DBFD33686A69A96867
:1094C000C3F84415C3F8482501229A606A68DAB9DE
:1094D000D3F82021D3F858011AB90028F8D00F206A
:1094E00007E00028FBD10122DA60D3F85821002AD6
:1094F000FBD0242303FB097700237B61BDE8F087C1
:109500001020FBE71120F9E72046F7E7CC2A0020DE
:109510007FB503788DF804304368029383688DF833
:109520000C30C36804930369064A8DF81430064B67
:1095300001A853F8213052F82110984707B05DF880
:1095400004FB00BFF02A0020FC2A0020F0B50546ED
:10955000174615F804CB124A42F82C70114A42F80B
:109560002C30114B0C460FCB85B06E4686E80F00B1
:109570002368009323798DF8053063798DF80630E0
:10958000A3680293002FA389084AADF80C3008BFE6
:109590003A4663463146284600F036F805B0F0BD3D
:1095A000FC2A0020F02A0020C8C502001195020004
:1095B000124BD3F8182182B0EAB10022C3F8182167
:1095C000D3F818310193019B0D4BD97FFF2907D0A8
:1095D000987F01228A404FF0A04148B1C1F80C2584
:1095E00000225A771A72D3E90021064802B01047C8
:1095F000C1F80825F4E702B0704700BF0030004012
:10960000082B0020102B00202DE9F74F90F8048044
:10961000644E01924FF0240909FB08F906EB090B8F
:109620009A469BF81C3007460C46002B40F0B5804C
:1096300005685D492846FFF795FA002840F0AF809D
:10964000019B46F80930CBF804A094F800E094F8A8
:109650000CC04FF0A042012303FA0EF3BCF1010F3E
:1096600094BFC2F80C35C2F808350EF5E07301213D
:1096700042F823106378FF2B1FBF9940C2F80C15E6
:1096800003F5E0714FF0030918BF42F82190A2786A
:1096900008BF4FF0FF33FF2A1FBF02F5E0714FF004
:1096A000A04A4FF0040B4AF821B04FF0240101FB0F
:1096B000086618BF914686F82020E2783949F2778B
:1096C00008BF4FF0FF39FF2A17D094F804A04FF0DD
:1096D000010B0BFA02FB4FF0A046BAF1000F4ED07F
:1096E000C6F80CB502F5E0724FF0030B46F822B055
:1096F000242202FB081282F81EA0C5F808E5C5F86E
:109700000C35A368C5F81095C5F82435637B003B7C
:1097100018BF0123BCF1020F34D0BCF1030F34D0C9
:10972000BCF1010F01D143F00203C5F85435A37910
:10973000C5F8C0350723C5F80035019BABB13B68C0
:10974000627943F307355201002DC3F30733D2B2D8
:109750001EDB164C661986F8002301226D0903F002
:109760001F0302FA03F344F82530242303FB0811F6
:1097700000234B7701230B7703B0BDE8F08FC6F8C9
:1097800008B5AFE743F00403CFE743F00603CCE7A7
:10979000074C03F00F03E254E7E70820ECE7112041
:1097A000EAE700BF082B0020B195020000E100E0CD
:1097B00014ED00E02DE9F3410779474E24237B4364
:1097C0001446F2180D46517F8646002940F08180EC
:1097D000F35823B114F0140F04BF0123537795E815
:1097E0000F004FF0240C0CFB076C0CF10C0888E800
:1097F0000F009CF81F20FF2A08D09CF81E100123A0
:1098000093404FF0A042C1B1C2F80835296821B198
:1098100001F06043B3F1005F06D1AA6882B102F0A3
:109820006043B3F1005F0BD0242303FB07660023E2
:109830007377102002B0BDE8F081C2F80C35E5E77F
:10984000DEF800306868C3F84415C3F84805E968D5
:10985000C3F834250022C3F83815C3F81821D3F80B
:1098600018210192019A14F0010218BF0122C3F8D5
:10987000502514F0020218BF0122C3F84025220728
:109880005CBF01221A6124227A43B258B2B9D3F8DC
:109890001821002AFBD0242303FB0766F27FFF2A4E
:1098A00007D0B07F012393404FF0A04218B1C2F817
:1098B0000C350020BEE7C2F80835BBE714F0040001
:1098C0004FF0400202D0C3F80823F2E7C3F80423A4
:1098D000B0E71120AEE700BF082B002072DF704711
:1098E00073DF704776DF70477ADF70477CDF704741
:1098F0007FDF70478FDF7047B1DF7047FDF7B4BB84
:1099000008B5064B01211878FFF7EAFF08B1FDF70B
:10991000ABFBBDE808400020FEF768BD54230020E3
:109920002DE9F04F03883B2B87B0044600F0F88008
:109930001BD8132B00F0A98007D8102B67D0112B50
:1099400000F0888007B0BDE8F08F212BFAD100230A
:1099500080888DF8143005A98DF81530FFF7CAFFFF
:109960000028EFD0FDF780FBECE7522B00F095804C
:10997000562B00F0D580502BE4D16C4BC2881B884D
:109980009A42DFD100F112030193694F038ADFF895
:10999000D081DFF8D09100930024009BA342D1D95D
:1099A000009B97F800A01E1B019B1919BAF1000F2C
:1099B00000F08580DFF8B0A1DFF8B0B1DAF8005030
:1099C000C5F10403DBB29E42A8BF1E46B2B20BEB48
:1099D0000500029201F050FE029A15443444042D11
:1099E000CAF80050A4B2D8D1DBF80010C8F80010B3
:1099F000B1F5005F4FF0000557D94E4800F006FC66
:109A00000123C8F80050CAF800503B709AE74A4B4F
:109A10004A484B49C01AC008000440F00300FDF753
:109A200013F80120FEF7E2FC0020FEF7EBFC454BAB
:109A3000A1884548198001F043FA08B1FDF714FBED
:109A4000FDF7D0FA00283FF47DAF07B0BDE8F04F36
:109A5000FDF70ABB384B39483C49C01AC00800041E
:109A600040F00300FCF7F0FF0120FEF7CBFC354B84
:109A70004FF6FF721A80FDF7CBFA08B1FDF7F4FA42
:109A800007B0BDE8F04FFFF73BBF2E4800231A4652
:109A900085210088FFF72CFFD4E72A4800231A46C7
:109AA00019460088FFF728FFCCE7294A29483D706E
:109AB000C9F80050CAF8005000F0A8FB6DE7D8F8CC
:109AC0000030D9F80050DFF8A8B003935A1B964233
:109AD00028BF1646B2B20BEB0500029201F0CCFD96
:109AE000029A039B15443444AB42A4B2C9F8005017
:109AF0007FF453AF1946184800F088FBFF2000F0B0
:109B000065FA4FF400525946144801F0B5FD00F0D3
:109B100065FA01233B70C8F800A0C9F800A03CE733
:109B2000A0881321FFF7DEFE8CE700BFB44B0020B6
:109B300058230020F4C5020034BE020064BE0200B7
:109B4000DDC5020056230020A44B0020E7C502001B
:109B500026C602002DC6020050C60200BC4B0020E3
:109B6000704B0020B04B00202C4B0020A04B00205D
:109B70002C2B002008B503784BB9054B3B211888E6
:109B8000FFF7B0FE18B1BDE80840FDF76DBA08BD9B
:109B9000562300200D2807B51BD1124B1248019106
:109BA000C01AC0080004114940F00300FCF74CFF44
:109BB0000F4B019A0F49188801F06AFA30F0080239
:109BC0000CD043F20202904208D043F2014290428C
:109BD00004D003B05DF804EBFDF746BA03B05DF8BE
:109BE00004FB00BF34BE020064BE02007DC602005A
:109BF00056230020884B002010B50A4B0A4CE41A6B
:109C0000E408240444F0030402203AB1FEF7EEFB1A
:109C100006492046BDE81040FCF716BFFEF7F2FBF0
:109C20000349F6E734BE020064BE020097C6020094
:109C3000A8C60200FDF718BA00B5A7B000F034F9C5
:109C400000F0B6F94FF480410020FCF75FFD08B149
:109C5000FDF70AFAFCF798FC0120FEF7EEFBFDF792
:109C6000E3FA08B1FDF700FA774840F233320121F8
:109C7000FDF760F908B1FDF7F7F9FEF795F908B1BE
:109C8000FDF7F2F901F06CFA08B1FDF7EDF90023E8
:109C900017A90120179301F0EFFA08B1FDF7E4F9D5
:109CA00017A801F08BFB08B1FDF7DEF91123674916
:109CB0008DF82030052208A8FFF718FE08B1FDF73F
:109CC000D3F90023ADF860305023ADF85C30A02309
:109CD000ADF85E3017A84FF4C873ADF86230FFF7E7
:109CE00003FE08B1FDF7C0F95948002100F0D6FF86
:109CF00008B1FDF7B9F9002302935648564B089373
:109D000008A901F0CBF808B1FDF7AEF9534B544860
:109D1000029302A901F04EF908B1FDF7A5F9504DE3
:109D20002022002117A801F0D0FC41F22653ADF803
:109D30005C30AB7C8DF85E304FF48073ADF86030F2
:109D40000E238DF86930474A2888012317A98DF81A
:109D50006D308DF86E3000F0B4FE08B1FDF784F977
:109D6000414B424C4249E41AE408240444F0030401
:109D70002046FCF769FE41F22353ADF804303C2243
:109D8000AB7C8DF80630002108A801F09EFC394D0F
:109D900002238DF820303C2240F20163002117A8F5
:109DA000ADF8223001F091FC2A460123ADF86C3069
:109DB00052F8041B01AB08A81C9300F0BEFA08B1CE
:109DC000FDF752F92C4AA96817A800F0B6FA08B1B5
:109DD000FDF74AF91822002102A801F076FC0123C0
:109DE0008DF81D308DF8083022492448402302AAFE
:109DF0000493FFF773FD08B1FDF736F91422002133
:109E000017A801F062FC4FF4A0334FF4A022CDE973
:109E1000182303238DF86830194B1C9317A8194B8E
:109E20001D9300F055FD08B1FDF71EF916492046B7
:109E3000FCF70AFEFFF764FDFCF7BAFC0028FBD133
:109E4000FEF7C8F8F8E700BF3C230020BAC60200BE
:109E5000744B0020A44B0020FD980200F99B0200E7
:109E6000884B0020B44B002034BE020064BE0200C8
:109E7000C0C60200442300205023002054230020A9
:109E8000759B0200359C0200E9C6020038B5054DFD
:109E9000044645F001054FF47A40A847013CFAD149
:109EA00038BD00BF20C702004FF0A043032230B5E9
:109EB000C3F810270025C3F81427C3F81827102269
:109EC000C3F81C57C3F808252022C3F808254022F0
:109ED000C3F80825084B0FCB85B06C4684E80F000B
:109EE00040F20233ADF800302A462B4621460348A3
:109EF000FFF72CFB05B030BD08C7020028C70200E1
:109F000030B54FF0A04487B0102520238DF807000E
:109F1000C4F80C55C4F80C350DF107030022029368
:109F200002A9012304480592CDE90332FFF742FC60
:109F3000C4F8085507B030BD2CC7020030B54FF04B
:109F4000A04487B0102520238DF80700C4F80C55D5
:109F5000C4F808350DF107030022029302A901237A
:109F600004480592CDE90332FFF724FCC4F80855F4
:109F700007B030BD2CC7020010B54FF0A044D4F894
:109F800010351B0600D410BD0520FFF77FFFF6E754
:109F900038B54FF0A0444025C4F80C550220FFF717
:109FA00075FFC4F808550220BDE83840FFF76EBFC2
:109FB00008B5FFF779FFFFF7EBFFFFF7DDFF122092
:109FC000FFF79EFFBDE80840FFF7D6BF01464FF4FC
:109FD0000A62014801F079BBBC4B00202DE9F04139
:109FE0004420FFF78DFF0020FFF7A8FF0B20FFF7AD
:109FF000A5FF4520FFF784FF0020FFF79FFF00200B
:10A00000FFF79CFFB720FFF799FF0020FFF796FFAF
:10A01000164E0024374600255FFA84F84E20FFF7DD
:10A020006FFFE8B2FFF78AFF4F20FFF769FF404656
:10A03000FFF784FF0020FFF781FFFFF79DFF24203B
:10A04000FFF75EFF013517F8010BFFF777FF0C2DC7
:10A05000E4D10134B82C06F10C06DBD12020FFF747
:10A060004FFFBDE8F041FFF787BF00BFBC4B0020AA
:10A070000369C26893429CBF80681B18013B981A11
:10A0800070472DE9F843D0E902940546A9EB04088E
:10A090004068904520440F46144404D901F0ECFA7E
:10A0A000EC60BDE8F8834246A4EB090401F0E4FA51
:10A0B0006868224607EB0801F0E72DE9F843C56818
:10A0C0000646894617464FF000083469B368706841
:10A0D000A54228BFE418013C621B5C1BBC4228BFA0
:10A0E0003C46944228BF144649462844224601F083
:10A0F000C3FAB3682544AB4208BF00253F1BA04408
:10A10000A144F560E1D14046BDE8F88310B5114C9B
:10A11000114AA2610223C4E90433104BE361A26433
:10A120004FF400730E4A0F492362E26400231022A9
:10A13000E01DA3626362E362A3656365E365226574
:10A1400001F0F6FA0849204601F0F2FA2023A37143
:10A1500010BD00BF5C54002038C70200E45400204A
:10A16000D454002041C7020045C7020070B5164B09
:10A17000182400FB04451D4404FB00331646DC6A2A
:10A18000012C0ED0022C18D0E4B92846FFF770FF3E
:10A19000864204D832462846FFF773FF34462046ED
:10A1A00070BD2846FFF764FF8642344628BF044648
:10A1B00022462846FFF765FFF1E72846BDE87040D4
:10A1C000FFF77BBF0024EAE75C54002073B50E4B19
:10A1D0001B7804460D4616460BB9FFF797FF002380
:10A1E0000DF107008DF80730FDF79AF93246294640
:10A1F0002046FFF7BBFF04469DF80700FDF7B4F9C2
:10A20000204602B070BD00BF5C5400200FB410B5F2
:10A21000A2B024AB802153F8042B019302A801F0D3
:10A220001BFA802804460ADD802202A90020FFF7DD
:10A23000CDFF204622B0BDE8104004B07047002892
:10A24000F7DD0246F1E76DDF704779DF70477DDFAC
:10A25000704764DF70472DE9F04F85B000250E9CF4
:10A26000BDF83CB0B4F800A00191074690461E46E8
:10A27000A9463A884A450DDC45B12388013BA3EB4A
:10A280000A039BB2FF2B3AD806F80A30002005B02B
:10A29000BDE8F08F7A6852F82900039000220DF192
:10A2A0000B0103A8FFF7D5FF0028F0D19DF80B2084
:10A2B000424521D12288002D14BF0020022002EB4C
:10A2C0000801014459451ADC3DB9013292B2019BA3
:10A2D0002280B35422880132228022880DF10B01A2
:10A2E000324403A8FFF7B5FF0028D0D121889DF89C
:10A2F0000B200A442280012509F10109B9E70C204D
:10A30000C5E72DE9F341089FBDF824801546CDE946
:10A310000078022204461E46FFF79DFF50B93346DF
:10A32000102229462046CDE9087802B0BDE8F04168
:10A33000FFF791BF02B0BDE8F0812DE9F04F002397
:10A340001788138090F82D3085B006460D461446C8
:10A350005BB3082F01D80C2028E102A8FFF773FF98
:10A36000002840F023812388DDF809100822EA54F0
:10A37000238801339BB21B222380EA5423880133B4
:10A380009BB2EA182380E950BDF80D3093802388F2
:10A390009DF8082006339BB212F0FE0218BF01227E
:10A3A0002380EA54238801332380B378FBB12388C8
:10A3B0000433BB42CFD802A8FFF747FF002840F084
:10A3C000F58023880322EA54238801339BB21922A3
:10A3D0002380EA542388BDF8082001339BB2E91892
:10A3E0002380EA54120A4A70238802332380F278C9
:10A3F0009AB12388D91CB942ADD80221E9542388E7
:10A4000001339BB201212380E95423880B449BB282
:10A410002380EA5423880B4423807268AAB12388DE
:10A42000D91CB94297D8022192F90020E954238817
:10A4300001339BB20A212380E954238801339BB264
:10A440002380EA542388013323803389002B40F092
:10A45000A180338A5BB1CDE900472B460722032157
:10A4600006F11000FFF74DFF002840F09F80338B6E
:10A470005BB1CDE900472B461522142106F11800E7
:10A48000FFF73FFF002840F09180326A002A40F039
:10A490009080D6F82480B8F1000F30D0B8F804309E
:10A4A0002188981C8A1C0244BA423FF654AFFE2809
:10A4B0003FF651AF03336B54238801339BB2FF2225
:10A4C0002380EA54238801339BB22380B8F800200C
:10A4D000EA54E918120A4A702088023080B22080BB
:10A4E000B8F804205AB1D8F8081000296BD02844D5
:10A4F00001F0C2F82388B8F804201344238096F8AA
:10A500002C30002B40F09880307800284ED03388D3
:10A51000012B58D0228802F1020CBC453FF61BAF3C
:10A52000012805D17378023313449F42FFF413AF1F
:10A53000023FBF1ABFB202A905EB0C00ADF80870CC
:10A54000FFF785FE90BB3178BDF80830022900F096
:10A55000B98072789A4202D39F4280F0B18001297B
:10A5600040F0B280974293B2C0F0AE80ADF80830B0
:10A570000821BDF80830FE2B3FF6EDAE22880133EE
:10A58000AB542288013292B22280A954228813440B
:10A5900023800BE0CDE900472B460622022106F17D
:10A5A0000800FFF7AEFE00283FF453AF05B0BDE84A
:10A5B000F08FB4F800C00CF10603BB423FF6CBAEFF
:10A5C0001188052901D80720F0E76FF4486E01EBE8
:10A5D0000E039BB24FF27D3E7345F4D95388052B91
:10A5E000F1D96FF44860181880B27045EBD94FF676
:10A5F000FF70814201D09942E5D8052305F80C305F
:10A60000238801339BB212212380E954238801332C
:10A610009BB223801188E954E818090A4170238805
:10A6200002339BB223805288EA54E918120A4A7016
:10A630002388023323802CE7B36A002BC3D04FF06A
:10A6400000084FF00C0A4FF0160BB16A5FFA88F25F
:10A650000AFB02F201EB0209B9F80430981CFE284B
:10A660003FF679AE208803332B54238801339BB205
:10A67000238005F803B0238801339BB223808A5AD4
:10A68000EA54E918120A4A702088023080B2208009
:10A69000B9F804205AB1D9F80810002993D02844F9
:10A6A00000F0EAFF2388B9F804201344238096F8C9
:10A6B0002C2008F101085FFA88F39A42C5D823E7F5
:10A6C000092156E79F42FBD2ADF8087050E775DFCD
:10A6D000704776DF70477ADF70477BDF7047000096
:10A6E000034B1A8882420CBF18460020704700BFF7
:10A6F00000570020024B9B6903B11847704700BF09
:10A70000E456002073B585B22846FFF7E9FF0446FA
:10A7100038B3174E027A337B9A420CD200F10A0109
:10A720002846FFF7D4FFF0B111281AD002B0BDE8D7
:10A730007040FFF7DFBF00230372337C43B13B213E
:10A740002846FFF7C6FF30F0080301D0FFF7D2FF1D
:10A75000736933B100228DF80420ADF8065001A8CA
:10A76000984702B070BD237A01332372F9E700BF26
:10A77000E456002037B50B46497A0F4A79B9D2E939
:10A7800001141D7A0246002D18BF21465868FCF7B7
:10A790008FFD78B103B0BDE83040FFF7ABBF0021BB
:10A7A0001972536933B10122ADF806008DF8042007
:10A7B00001A8984703B030BDE45600204B880288BA
:10A7C0009A4212D842889A420FD380888B8840F2EE
:10A7D000F311884294BF021A421A9A4205D80844DB
:10A7E000984234BF002001207047002070470000CD
:10A7F0000388122B70B5014659D004D8102B1ED0F7
:10A80000112B44D070BD502BFCD12F4BC288DB895B
:10A810009A42F7D1038A022BF4D186883046FFF79B
:10A820005FFF05460028EDD001F1120000F045F968
:10A8300038BB6868FCF76AFD0028E3D009E0C37BF9
:10A84000012BDFD14FF6FF70FFF74AFF054620B915
:10A850000420BDE87040FFF74DBF1C4A8E8806807B
:10A86000002303721368C0F80A305368C0F80E3032
:10A8700010310A30FFF7A2FF134B6872DB89002BFF
:10A88000C0D129463046BDE87040FFF773BF8088CD
:10A89000FFF726FF04460028B4D04068FCF736FDD9
:10A8A00008B1FFF727FF4FF6FF732380AAE78688DA
:10A8B0003046FFF715FF05460028A3D008310A30BF
:10A8C000FFF77CFF6872DCE7E45600201457002095
:10A8D000F8B5064648B305460FCD154F3C460FC4A4
:10A8E00095E8070084E807003068124C3C60B0B17E
:10A8F000FFF7F1FEC0B932681368236053686360E4
:10A900000D480E4A4FF6FF7303800D4B40F8043F8D
:10A910000021FCF7BBFC002818BF032004E0204600
:10A92000FFF7DBFE0028EBD0F8BD0E20FCE700BFF0
:10A93000E4560020145700200057002005A702000D
:10A94000205700200AB1FCF7EBBFFCF7F2BF73B54C
:10A950000191019C06466CB100252C46294601A8B0
:10A96000FCF7F1FF18B106EB440301349D8001357B
:10A97000142DF3D13046346002B070BD2DE9F0479C
:10A9800003888488103B8CB005460A2B21D8DFE869
:10A9900003F0064020202020202020654700DFF81B
:10A9A000E880D8F80830DB430093D8F804106846F4
:10A9B000FCF7F5FF009901A8FFF7C9FF0DF10809A1
:10A9C0000027019B9F4207D3132C12D90420FCF7C8
:10A9D0004BFB0CB0BDE8F08739F802AB002601361E
:10A9E000514608EB8600FCF7A4FF1E2EF7D1013775
:10A9F000E7E71F482146FCF793FF1E482146FCF776
:10AA00008FFFEB7B022BE4D11B482146FCF788FF2C
:10AA1000DFE7174821460CB0BDE8F047FCF789BFD7
:10AA2000027A16483F2A4FEA1215214694BF0022A7
:10AA30000122FFF787FF022D94BF00220122104858
:10AA40002146FFF77FFF012D0E4894BF002201220F
:10AA500021460CB0BDE8F047FFF774BF037A002B26
:10AA6000B7D1427A0548C2F3C0022146F1E700BFE0
:10AA700048570020445700204C57002058570020CA
:10AA8000545700205057002040570020AADF70473D
:10AA9000002301380B70042806D8DFE800F0030615
:10AAA000080A0C0011230B7070472123FBE73123A8
:10AAB000F9E71223F7E72223F5E7008800F0010009
:10AAC0007047F0B58B7891B00C46012B38BF01234D
:10AAD00000278DF80E3005460B88607CADF80C30F1
:10AAE0006946ADF800708DF80270FFF7D1FFA07CC9
:10AAF0000DF10101FFF7CCFF1646237BE27B217DA0
:10AB000043EAC203227C43EA02139DF80220B942C1
:10AB100022F0190203F0190314BF0221012113438B
:10AB200061F342031C22394609A88DF8023000F077
:10AB3000CCFD637B13F0300F14D00DF10901E07CE4
:10AB4000ADF808708DF80A70FFF7A2FF11238DF899
:10AB500008309DF80A30012102AA61F342038DF802
:10AB60000A300E92637B8DF82430A37B8DF825305C
:10AB70000023CDE90633089303AB0493A388ADF813
:10AB80001C30A368CDF814D01BB1E288ADF81820B2
:10AB90000893A36973B301A90022ADF804208A7059
:10ABA0001A88ADF82C205A88ADF82E205A680D91DD
:10ABB000187B0A92FFF76CFFA3690DF10501587B22
:10ABC000FFF766FFA3699A7A197A41EAC201DA7A35
:10ABD0009B7B41EA02119DF80620002B01F0190130
:10ABE00022F0190214BF02230123114363F342012F
:10ABF0008DF80610E36903B10C93334604AA09A942
:10AC00002846FFF743FF11B0F0BD90DF7047A5DF86
:10AC10007047B5DF704700007FB50023ADF808101E
:10AC2000ADF80A106A4602A90646ADF80C30ADF838
:10AC30000E300093ADF80430FFF7E7FF054600B390
:10AC4000114B124CE41AE408FDF750FA240444F0C6
:10AC5000010403460E4932462046FBF702FFBDF8C9
:10AC60000020BDF8023052EA030103D00949204612
:10AC7000FBF7F7FEBDF804201AB107492046FBF7A1
:10AC8000E7FE284604B070BD34BE020084BE020058
:10AC90004CC7020096C70200D5C7020078B14FF03A
:10ACA000171303601B2303711723C380038141F62D
:10ACB0001B320023016143818281184670470E20B8
:10ACC0007047000013B5034680880C46B8B91A884F
:10ACD000242A00F09B8014D8112A74D0232A00F073
:10ACE000A680102A3ED0A37A4BB1E1880020FFF75E
:10ACF0008EFF002840F0A1804FF48073638102B082
:10AD000010BD3A2A67D0552AEDD1DB88C988A072D8
:10AD1000172B38BF17238B4228BF0B462381FFF721
:10AD200078FF60B1FDF7E2F94D4B4E4902464E48BF
:10AD30001B1ADB081B0443F00100FBF789FEE27AD3
:10AD4000002AD0D12369002BCDD040F67721ADF871
:10AD500002202289ADF80010ADF804206946204693
:10AD60009847C0E7DB7B0A790A73012B13D0022BCB
:10AD700014D0E18823898B4205D20020FFF747FFDA
:10AD800070B90123E372217B637B8B42ABD200203D
:10AD9000FFF742FFA7E70B88E380EAE74B88FBE772
:10ADA000112802D10123A372EDE7FDF79FF92C4B87
:10ADB0002E4902462C481B1ADB081B0443F00100F5
:10ADC000FBF746FEDFE71723CB800B8141F61B33F1
:10ADD00048818B8187E75B89CA88934228BF1346E5
:10ADE000172B0A6938BF17230B8162B1C97A51B199
:10ADF00040F67721ADF80010ADF80200ADF8043050
:10AE0000694620469047002363816CE71A7A0B69F4
:10AE10004A73002B3FF467AF4DF67A218DF8050099
:10AE2000ADF80010ADF802008DF8042096E7197A0D
:10AE3000237B994228BF1946AAE711283FF45FAF48
:10AE4000FDF754F9064B0949024607481B1ADB086F
:10AE50001B0443F0010002B0BDE81040FBF7F8BD51
:10AE600084BE02005CC8020034BE02002BC802008F
:10AE7000B0DF704766DF704710B500210446408898
:10AE8000FFF7F8FF034608B9237210BD112801D15E
:10AE90000123F9E76368BDE81040184760B159B174
:10AEA0000378DE2B0AD00B684360DE2303704FF675
:10AEB000FF734380002070470E20704708207047C2
:10AEC00028B10378DE2B04D14180002070470E208A
:10AED000704708207047F0B5054685B00C4600293C
:10AEE00042D0002840D00B78DE2B3DD182884B88A1
:10AEF0009A4204D10B7A13B10846FFF7BDFF2B88A5
:10AF0000112B33D0512B0FD0012B2DD12B7A012BAC
:10AF10002AD1A9886288914226D12046237205B0A1
:10AF2000BDE8F040FFF7A8BFAE886388B3421BD1ED
:10AF3000AF79022F18D1AD7B2B1F022B14D8002123
:10AF40001022684600F0C1FB052D18BF4FF4C073F6
:10AF50006946304618BFADF804308DF80070FFF731
:10AF600087FF08B16368984705B0F0BD6388AA8879
:10AF70009A4204BF4FF6FF736380F5E7A8DF70477E
:10AF8000AEDF704762DF70470288502A10B40DD1DF
:10AF9000C4884A88944209D1028A012A06D14B69A1
:10AFA00023B1827C5DF8044B808818475DF8044B20
:10AFB00070470000F0B50B6843618FB0334B02AAB5
:10AFC000044603F11007164618685968154603C56C
:10AFD0000833BB422A46F7D104F112013046FFF78D
:10AFE000D1FF00284FD1A37C8DF80630224641F2D4
:10AFF000235301A90120ADF80430FFF7BFFF00285B
:10B0000041D10146202206A800F05FFB41F2245303
:10B01000ADF81830A37C8DF81A309DF82530224603
:10B0200023F0120301254FF0011643F0120332F80A
:10B030000A0B079606A98DF825308DF829508DF852
:10B040002B50FFF73EFDF0B90146202206A800F084
:10B050003CFB41F22553ADF81830A37C8DF81A3033
:10B060009DF825300796224623F00A0343F00A0391
:10B0700032F8020B8DF8253006A98DF829508DF88D
:10B080002A50FFF71EFD0FB0F0BD00BF98C80200A8
:10B0900000B589B00123ADF80E308DF812304B8920
:10B0A000ADF810300DF107038DF80720079300224B
:10B0B0000DF10E0304A9CDF813208DF81720069387
:10B0C000FFF75EFF09B05DF804FB10DF704700007A
:10B0D00013B5044609496846FCF7ADFF019808B965
:10B0E00002B010BDD0E900212046904718B1684653
:10B0F000FCF7ABFFF2E71120F2E700BFB4C8020093
:10B1000013B5044607496846FCF795FF019B0BB948
:10B1100002B010BD2046D3E9002190476846FCF7F5
:10B1200094FFF3E7CCC802000B4991F816335A0993
:10B13000EC231341DB0706D5084B9A683AB94FF464
:10B1400080030B60704742F20200FBF78DBF1A6864
:10B1500042F480021A60704700E100E0EC29002010
:10B16000F7B5194F3C7864BB184E01252046357061
:10B17000FFF7AEFF112821D02046FFF7C1FF144B87
:10B180008DF80340186801900DF10300FCF7C8F931
:10B19000104901A8FFF799FF0446B0FA80F0400972
:10B1A00038709DF80300FCF7DFF93CB90A4B3470A6
:10B1B0001C70FFF7B9FF2846FFF7A2FF204603B037
:10B1C000F0BD0824FAE700BFBD570020BC5700209F
:10B1D000B0C8020085700200BE570020014B1878ED
:10B1E000704700BFBD57002007B508496846FCF707
:10B1F00022FF019B13B903B05DF804FBD3E90020E3
:10B2000090476846FCF721FFF3E700BFC0C8020083
:10B21000FFF7EABF60DF704769DF704761DF7047A3
:10B2200030B5134B1B7891B0FBB1124D34240DF1A6
:10B23000020103A8ADF80240FFF7F0FF70B92946FC
:10B2400001A8FCF7F8FE029B002BF0D003A8D3E97D
:10B250000021904701A8FCF7F8FEF4E7052804D088
:10B2600011B0BDE83040FBF7FFBE11B030BD00BFEC
:10B27000BF57002010CB020030B50C4685B0002926
:10B2800000F089800023CDE90133444A0393012370
:10B290000A608DF804008DF8063001A906232020ED
:10B2A000ADF80830FFF7B8FF60B1FCF71FFF3C4B6B
:10B2B0003C4902463C481B1ADB081B0443F00100D2
:10B2C000FBF7C6FB0023CDE901330393226801237A
:10B2D00001A940208DF80530FFF79EFF60B1FCF713
:10B2E00005FF2F4B314902462F481B1ADB081B0470
:10B2F00043F00100FBF7ACFB0023CDE901330393DE
:10B3000022680A2301A901208DF80430FFF784FF89
:10B3100060B1FCF7EBFE224B2549024622481B1A7E
:10B32000DB081B0443F00100FBF792FB0023CDE98F
:10B33000023322684FF4B06301A9A1200193FFF703
:10B340006BFF60B1FCF7D2FE154B1A490246164856
:10B350001B1ADB081B0443F00100FBF779FB0025F7
:10B360002268039501A9A020CDE90155FFF754FFFC
:10B37000034668B1FCF7BAFE094B0F4902460A487A
:10B380001B1ADB081B0443F00100FBF761FB2B4693
:10B39000184605B030BD0E23FAE700BFF0220020AA
:10B3A00094BE0200D8C8020034BE02001EC90200CA
:10B3B0006AC90200B6C9020007CA020073B5054691
:10B3C0000668FFF727FF2B68B34204461DD91A48C9
:10B3D0001A4B1B491B1ADB081B0443F002000190A7
:10B3E000FBF732FB2B68174901983246FBF739FB14
:10B3F0004FF080532A68D3F80C31134901989B020F
:10B4000003F100539A1AFBF723FB2CB90F4B0122CF
:10B410001A70204602B070BD2046FCF767FE074B4D
:10B420000B49024604481B1ADB081B0443F00100C9
:10B43000FBF70EFBEDE700BF34BE020094BE020036
:10B440005ACA020089CA0200BACA0200BF570020C5
:10B45000E4CA02004BDF70471FB50E4C01A8FFF78E
:10B46000F9FF70B9214602A8FCF7E5FD039B002B0C
:10B47000F4D00198D3E90021904702A8FCF7E5FD3C
:10B48000F4E7052804D004B0BDE81040FBF7ECBD9C
:10B4900004B010BD28CB02007F2805D8034A044B16
:10B4A000105C5B5C184070470020704740CB020086
:10B4B000C0CB0200A0F16103192B98BF2038704760
:10B4C000A0F14103192B98BF203070477F299ABF04
:10B4D000017001206FF02E00704700BF5AB10A784A
:10B4E0007F2A0AD800B102600021501AC3E9001176
:10B4F00018BF01207047104670476FF02E0070474C
:10B50000A0F16103192B98BF20387047A0F14103C7
:10B51000192B98BF203070477F2805D8034A044B69
:10B52000105C5B5C184070470020704740CB020005
:10B53000C0CB020038B585680446084645B122688C
:10B540006168531C8B4208BF00208A420AD2A8546B
:10B55000E26823682AB161688B4202D22146904793
:10B5600023680133236038BD70B54D1E22D41368A3
:10B570001446C6B20EE0D0542368E2682AB161686E
:10B58000994202D9214690472368013D01336A1C44
:10B5900023600FD0A26872B1616803F1010C8C4581
:10B5A00014BF304600209942E5D8013D63466A1C2D
:10B5B0002360EFD170BD3046DFE700BFC3062BD458
:10B5C00010F4007F70B514BF302620264D1E22D403
:10B5D00013681446F6B20EE0D0542368E2682AB12C
:10B5E0006168994202D9214690472368013D0133A1
:10B5F0006A1C23600FD0A2687AB1616803F1010C64
:10B600008C4514BF304600209942E5D8013D634681
:10B610006A1C2360EFD170BD70473046DEE700BF83
:10B62000024B5B689B6809211B6818475C2300205C
:10B63000027862B169B100EB010C034601E0634599
:10B6400003D013F8011F0029F9D1181A70471046CA
:10B6500070470846704700BF30B5944685B0002556
:10B66000CDE902050C461A4661466846019400F091
:10B67000B1F805B030BD00BF844640EA010313F0C5
:10B68000030F18D18446202A0BD32DE9F007B1E827
:10B69000F807A0E8F807A2F12002202AF7D2BDE8B7
:10B6A000F007042A07D351F8043B40F8043BA2F109
:10B6B0000402042AF7D2002A05D011F8013B00F851
:10B6C000013B013AF9D1604670478446002A2DD0EB
:10B6D00010F0030F04D000F8011B013A26D0F7E761
:10B6E000C9B241EA012141EA0141202A12D3A2F163
:10B6F00020022DE9F0030B460C460D460E460F4680
:10B7000088468946A0E8FA03203AFBD2BDE8F00358
:10B7100020320BD0042A05D340F8041B043A05D08C
:10B72000042AF9D200F8011B013AFBD160467047A8
:10B73000024610F0030F16D111F0030F13D12DE9BB
:10B74000F0004FF001374FF0803351F8044BA4EB79
:10B75000070525EA04051D4002D142F8044BF4E731
:10B76000A1F10401F0BC11F8013B02F8013B002BF0
:10B77000F9D1704700F1010110F0030F11D010F85A
:10B78000012B002A23D010F0030F0AD010F8012B50
:10B79000002A1CD010F0030F03D010F8012B002A50
:10B7A00015D02DE970004FF001324FF0803350F882
:10B7B000044BA4EB020525EA04051D4000D1F6E781
:10B7C000A0F1040070BC10F8012B002AFBD1A0EB03
:10B7D000010070472DE9F04F00230C46036089B04B
:10B7E00014F8011B03920746002900F0E582DFF8F8
:10B7F000DC9507E03846FFF79DFE14F8011B002991
:10B8000000F058812529F5D12246002612F8010BB7
:10B81000302800F29E801F280ED9A0F12003102BA3
:10B820000AD8DFE803F0AC0909A8090909A4090945
:10B8300009A0099C09098D002A2840F0FC80039B7F
:10B8400010781D680433002D0393BCBF6D4246F091
:10B850001006A21C2E2800F004810021742800F09C
:10B8600092807A2800F08F806C2800F032814C287A
:10B8700000F03581682800F0BE811446002800F0F1
:10B880008880A0F12503DAB2532A00F22B81532BD2
:10B8900000F22881DFE813F0EB01260126012601E2
:10B8A0002601260126012601260126012601260160
:10B8B0002601260126012601260126012601260150
:10B8C0002601260126012601260126012601260140
:10B8D0002601260126012601260126012601260130
:10B8E0002601260126012601260126012601260120
:10B8F00026012601260126012601260126018200B5
:10B9000026012601260126012601260126012601FF
:10B9100026012601D601F600260126012601260170
:10B92000F6002601260126012601500248021302D4
:10B9300026012601ED012601CB0126012601840006
:10B9400046F400761446224612F8010B30287FF6A2
:10B9500062AF5E286FD146F480561446F3E746F096
:10B9600010061446EFE746F020061446EBE746F4CF
:10B9700000461446E7E746F080061446E3E746F043
:10B9800040061446DFE7144614F8010B00287FF444
:10B9900078AF4FF0FF3009B0BDE8F08F46F40056A5
:10B9A00016F0800A06D043F2780A43F2580378284A
:10B9B00018BF9A4616F4807307BF06F48042B0465B
:10B9C00026F4007806F48042002A61D1039A18F028
:10B9D000040F02F104060396126800F0A08092B2F0
:10B9E000002B65D028F400785838202800F29D807C
:10B9F000DFE810F073019B009B009B009B009B0005
:10BA00009B009B009B009B009B009B00D4009B0025
:10BA10009B009B009B00D4009B009B009B009B0015
:10BA20009B00090173019B009B009B009B00D400BD
:10BA30009B009B007301A0F13004E3B2092B4FF08F
:10BA400000053FF607AF12F8010B05EB850504EB87
:10BA50004505A0F13004E3B2092BF4D92E287FF478
:10BA6000FCAE10782A2840F07781039B5078196843
:10BA7000941C0433002903932246FFF6EFAE46F4EC
:10BA80008076EBE646F4804806F480734FF0000AB7
:10BA9000039A18F0040F02F104060396126830D0DE
:10BAA00012B2002A31DA52424FF02D0A002B99D1FE
:10BAB000012199E73868BB68002B3FF46CAF7A68C6
:10BAC00082427FF668AF00221A54386809B0BDE898
:10BAD000F08F144646F0010614F8010BCEE646F04E
