:1000000000000120750300005D0300005F03000095
:1000100061030000630300006503000000000000AE
:100020000000000000000000000000006703000066
:1000300069030000000000006B0300006D03000076
:100040006F0300006F0300001D160000791600000A
:100050006F0300006F030000D11400006F03000065
:100060006F0300006F0300006F0300006F030000C8
:100070006F0300006F0300006F0300006F030000B8
:100080006F030000110D00006F0300006F030000FC
:100090006F0300006F0300006F0300006F03000098
:1000A0006F0300006F0300006F0300006F03000088
:1000B0006F0300006F03000000000000000000005C
:1000C0006F0300006F0300006F0300006F03000068
:1000D0006F0300006F0300006F03000000000000CA
:1000E0000000000000000000000000000000000010
:1000F0000000000000000000000000000000000000
:1001000000000000000000000000000000000000EF
:1001100000000000000000000000000000000000DF
:1001200000000000000000000000000000000000CF
:1001300000000000000000000000000000000000BF
:1001400000000000000000000000000000000000AF
:10015000000000000000000000000000000000009F
:10016000000000000000000000000000000000008F
:10017000000000000000000000000000000000007F
:10018000000000000000000000000000000000006F
:10019000000000000000000000000000000000005F
:1001A000000000000000000000000000000000004F
:1001B000000000000000000000000000000000003F
:1001C000000000000000000000000000000000002F
:1001D000000000000000000000000000000000001F
:1001E000000000000000000000000000000000000F
:1001F00000000000000000000000000000000000FF
:10020000354936480A1A02D0072291438D463449AF
:1002100034480A1A06D00722914381F30988022242
:1002200082F3148830483149314A00F044F83148AB
:100230003149324A00F03FF831483249324A00F041
:100240003AF832483249334A00F035F832483349F7
:10025000334A00F030F833483349344A00F02BF881
:1002600033483449344A00F026F8344834490022EF
:1002700000F02CF833483449002200F027F83348C6
:100280003349091A082902DB002202604160314A21
:1002900090471F481F49884205D00268043003B4C4
:1002A000904703BCF7E700208646EC46002000217B
:1002B000294A9047FEE7884207D0521A05D00378B2
:1002C00001300B700131013AF9D17047884202D0F8
:1002D00002700130FAE770470000012000E00020C2
:1002E0000000012000000120742F00000000002009
:1002F00034000020D0030000D0030000682A000072
:10030000742F00000000002000000020D42A00000C
:10031000D42A0000D42A0000D42A0000D42A0000E5
:10032000D42A0000D42A0000D42A0000742F000030
:10033000A82F0000340000203400002034000020EA
:10034000140F0020140F0020140F0020140F0020A1
:10035000142F00209D030000F5220000FEE7FEE7B9
:10036000FEE7FEE7FEE7FEE7FEE7FEE7FEE7FEE765
:1003700000F002B8FFF7FCBF0F484FF007018843B9
:1003800085460E4880470E48016841F470010160BF
:10039000BFF34F8FBFF36F8FFFF732BF09480A4992
:1003A0000A4A884207D0521A05D0037801300B70F0
:1003B0000131013AF9D17047000001200D260000FB
:1003C00088ED00E0D42A000000000020000000209A
:1003D000F0B595B01D46164608460C4600F074FF71
:1003E0001A9B0D93CDE9086500252B46082205A927
:1003F00020460A958DF82C500C9500F081FF079B44
:100400000293069B03939DF814308DF8115003F06E
:100410000302012A1DD1BDF81420059DC3F3C203B8
:10042000C2F383168DF81030B20008230EA92046BF
:1004300000F066FFC5F3952508AB0093324602AB8A
:100440000EA9284600F046FB204600F041FF15B0FB
:10045000F0BD022AF8D1BDF81650C3F3C203C5F3AC
:1004600089158DF810300827082D2E4628BF08263C
:100470003B4632460EA9204600F042FFAD1B08ABBA
:1004800002AA31460EA8374400F088FB002DEBD1BC
:10049000DAE70000014B01221A7070477500002056
:1004A0007047000070B50E4D06460FCD88B06C4603
:1004B0000FC495E80F00002E84E80F00094A0A488F
:1004C0004FF0060308BF00226946009300F0A6FF24
:1004D00008B100F0C3FB054B1E7008B070BD00BF33
:1004E000D42A000095040000000000203400002001
:1004F00007B5044B0093044A4023FFF769FF03B09C
:100500005DF804FB0D0500003500002038B50D48EE
:100510000D4C0E4D002323700378EB5CD2B263B117
:10052000043001F099FE08B100F098FB084B1A78EE
:1005300012B12378002BFBD038BD0C3001F03AFC0F
:10054000F1E700BF000000207500002098050020A2
:100550003400002008B50848084A0378D35C3BB152
:10056000043001F0DDFDBDE808400020FFF79ABF30
:100570000C3001F0A9FBF6E70000002098050020F0
:10058000037813F0040216D003F00303012B03D009
:10059000022B09D0012070470A6800880232C0F39C
:1005A000831002440A60F5E70B684288023303EBCC
:1005B00092130B60EEE71046704700002DE9F04FF4
:1005C000DFF810A10F4685B00446861C00201546B2
:1005D00000F09AFBDAF804203A60DAF8083003F504
:1005E00080739B1A0AF21C470AF583690AF21448C1
:1005F000B34219D30020002D68D004F00F039B01F3
:1006000043F0050363F30F00DAF80430DAB2033283
:1006100033444AF822000020CAF8043000F076FB88
:10062000012005B0BDE8F08F0121384600F09DFBA8
:10063000484600F0B2FB404600F0AFFBDAF8080095
:100640000090C0B203300AEB80006946FFF798FFC4
:10065000009B30BBDAB20AEB8202D16801919A1C8E
:100660000133DBB20AEB83030092D3F80CB001F044
:100670000303012B22D0022B15D08346404600F005
:100680008FFB10B1009BCAF808305946384600F07D
:100690006CFBDAF80830DAF8042003F580739B1A53
:1006A000A6E7D8B2CEE7BDF80630C3F3891303330B
:1006B0004FEA1B4B02EB93030093DFE7BDF80430D6
:1006C000C3F383134FEA1B4B1344F5E7A40544F02F
:1006D000060099E74801002030B50A4C71B10A4A7A
:1006E0000A49121BD20800239A4201D1002030BDD2
:1006F00031F82350854202D00133F5E7034654F820
:100700003300F4E7682A0000B02A0000000000204F
:10071000094B013903EBC000032909D8DFE801F0D8
:100720000A02040604207047007970474079704738
:100730000020704702207047682A000070470000C0
:10074000034BD3E90130C31A58425841704700BFE8
:10075000480100202DE9FF41FFF7F2FF0546002880
:1007600040F0E980754CC4F81804BFF34F8FA368BC
:100770000093DBB2033304EB83006946FFF700FF0D
:10078000009B18B1D4F81824002A5AD0DAB2991C68
:10079000013304EB8202DBB204EB8303D268DB6833
:1007A000029302F00303022B0192009154D1BDF891
:1007B00006306348C3F38917502F3E4628BF5026A2
:1007C00006F1080166F38F13C1F30901ADF8063095
:1007D00000F04BFD0546002800F0988000F074FD05
:1007E0000023082201A9284600F080FD0099CB4390
:1007F000DBB20133C9B20331B6EB830F4FEA830298
:1008000004EB810125D95FFA82F80823A6EB0806DC
:10081000284600F06BFDF6B208F10803494903F0E1
:10082000FC033246284600F061FD009B033703EBD2
:1008300097070097D4F81834002B43D1D4F81064EC
:1008400053E062689A4294D8A260284604B0BDE89A
:10085000F08108233246E5E7012B57D1BDF804307B
:100860003748C3F38311062928BF062161F3891392
:10087000023101F00F018900ADF8043000F0F5FC01
:100880000546002842D000F01FFD0023082201A9E0
:10089000284600F02BFD0026BDF80420C2F3831289
:1008A000B300964203F10803C4D200994A1CC9B2AE
:1008B0000331009204EB81010422284600F016FD6A
:1008C0000136E9E7284600F003FDFFF739FF80F025
:1008D0000100C5B2B9E7F3685B7923B133682946F3
:1008E0001B6830469847F3681E68002EF3D12846EF
:1008F00000F0EEFC304600F007FAD4F818340BB9DB
:10090000009BA360002000F001FADEE7D4F8104459
:1009100054B90D4B0D480E49C01AC008000440F0F0
:10092000020000F05FF8D0E7236820469B689847F4
:10093000E3681C68ECE7002587E700BF480100205A
:10094000C02A000054010020682A0000902A0000FC
:10095000112B00002DE9F34704460E46924601A9EB
:10096000012218469946FFF729FE1C4F10B3019D3E
:100970004FF00008AA1CC84508EB020125D1184811
:10098000002100F0CFF980F31000000440EA144089
:10099000E4006B1C04F03804DBB2EDB244F0010457
:1009A00007EB8303033544EA881444EA8624D860BD
:1009B00047F825403B781BB1FFF7CCFE0028FBD160
:1009C000FFF7BCFE02B0BDE8F087C9B207EB8101BA
:1009D0005AF82830CB6008F10108CCE74801002024
:1009E0006405002000231A46FFF7B4BF38B5084B52
:1009F0000125D3F810441D7004B938BDE3685D715A
:100A0000236820465B689847E3681C68F4E700BFEA
:100A10004801002030B5C38885B004460D4633B187
:100A2000144A00921449154A284600F0FCF9217A2C
:100A300005291DD0637A4BB1A088FFF769FE104BE2
:100A4000104953F82020284600F0EDF9227A0E4B89
:100A5000A08853F8222003920021FFF73DFE039A5D
:100A60000A490346284605B0BDE8304000F0DBB92E
:100A700005B030BD462B00002E2B0000262B0000B9
:100A8000B42B00004B2B0000D82B00004E2B000095
:100A900007B503460846197A052911D05B7A2BB1B0
:100AA000094A0A49019000F0BEF9019808490190ED
:100AB00000F0B9F9019803B05DF804EB00F0A8B9B3
:100AC000002AF8D0F2E700BF462B00004B2B0000B5
:100AD000432B00002DE9F04385B01F460C9D0023F9
:100AE00095F80C902B7306460C46904629463846DE
:100AF000FFF790FFB8F1060F09D8DFE808F00412FD
:100B0000181F283340003146284600F08CF9002297
:100B100029463846FFF7BCFF85F80C9005B0BDE8C4
:100B2000F08322683146284600F07DF9EFE7D4E9EA
:100B300000233146284600F076F9E8E7A3680093E1
:100B40003146D4E90023284600F06DF9DFE7E36879
:100B50000193A36800933146D4E90023284600F0AE
:100B600062F9D4E723690293E3680193A3680093D1
:100B70003146D4E90023284600F055F9C7E76369F8
:100B8000039323690293E3680193A36800933146BA
:100B9000D4E90023284600F046F9B8E708292DE9F2
:100BA000F74F80460E4617461C463DD800251B7B56
:100BB0002573214610460193FFF72CFFDFF88CA028
:100BC000DFF88CB0AE4232D918F8052059462046DD
:100BD00000F029F90135082DF4D11B49DFF874A084
:100BE000DFF874B0204600F01EF94FF000094E45C2
:100BF00024D918F809507E2D1ED8284601F0A0FEF1
:100C0000002814BF2A462E225946204600F00BF930
:100C100009F10109B9F1080FE9D10122214638464D
:100C2000FFF736FF019B237303B0BDE8F08F5146F9
:100C3000204600F0F8F8CDE72E22E5E751462046A1
:100C400000F0F1F8E4E700BF622B00005E2B00002B
:100C5000582B0000602B0000642B00001FB5002102
:100C6000039001AA44F20100CDE9011100F004F85B
:100C700005B05DF804FB000038B572B6FFF7B6FEAC
:100C8000FFF768FD0028FBD1104B114C114D1249A4
:100C9000E41AE408240444F00100FFF7A3FED5F8A9
:100CA000F030DB0700D500BE0C4944F00200FFF72E
:100CB00099FEBFF34F8FEA68094B02F4E0621343D9
:100CC000EB60BFF34F8F00BFFDE700BF682A000055
:100CD000902A000000ED00E0F72B0000032C00003C
:100CE0000400FA0572B6024A1368013313607047B4
:100CF00068050020034A1368013B136003B962B61C
:100D0000704700BF68050020FFF7ECBFFFF7F2BF98
:100D1000024B034A1B681068184700BF7405002087
:100D20006C05002010B5034653E8000F0A4643E85F
:100D3000002494F0000FF7D110BD10B5034653E81E
:100D4000002F42EA010043E8000494F0000FF6D1BE
:100D500010BD10B5034653E8000F00EA010243E856
:100D6000002494F0000FF6D110BD10B5034653E8EF
:100D7000002F02EB010043E8000494F0000FF6D1CD
:100D800010BD10B5034653E8002FA2EB010043E865
:100D9000000494F0000FF6D110BD0121FFF7CDBF84
:100DA0000021FFF7D6BF38B504460020FFF7ACFF9F
:100DB000226863681168994213D9481E106011F8BF
:100DC000013CE568218A01FB0355A36811791B1AD0
:100DD000DBB2994200D213710020FFF797FF28463B
:100DE00038BD0025F8E738B5054600200C46FFF76A
:100DF0008BFF2A681368591C1160E968641A298AF4
:100E0000B4FBF1F41C70BDE838400020FFF77EBF52
:100E1000826810B504462AB14369016800699847A1
:100E20000023A36010BD0EB403B5039921B104AB38
:100E300001AA019300F076F802B05DF804EB03B06C
:100E400070470A2938B504460D4602D10D21FFF737
:100E5000F8FFA3682268591CA160D554D4E9013277
:100E60009A4204D32046BDE83840FFF7D1BF38BDD1
:100E70002DE9F84F9846DDE90A43154682460F46AC
:100E80000A464FF00109AA420FD2C14538BFC146F8
:100E900013F0010B01D16CB900240126B8F1010F48
:100EA0001BD908F1FF386E43F8E709F10109B2FBDD
:100EB000F5F2E8E79B070ED5B8F1000F0CBF30261E
:100EC0002026A145E9D2013C31465046FFF7B9FF43
:100ED000002CF6D1E0E72026F3E7B7FBF6F39D42BE
:100EE000E1D9DFF83C80B7FBF6F3504618F8031061
:100EF00006FB1377FFF7A5FF3346AB42B6FBF5F6CB
:100F0000F1D2BBF1000F02D00CB1A14501D3BDE875
:100F1000F88F20215046013CFFF793FFF4E700BF14
:100F20001A2C00002DE9F74F054617468846002980
:100F300000F03E8118F8011B49B92B7B002B00F013
:100F40003781284603B0BDE8F04FFFF761BF252980
:100F500040F0B780002698F800302D2B424608F16B
:100F6000010823D0302B24D02B2B25D000242A2B72
:100F700002F1010123D13B681A1D1B683A601C4431
:100F80000A4613782E2B26D101324FF0000A104664
:100F900010F8011BA1F1300CBCF1090F1DD80A2378
:100FA00003FB0A13A3F1300A0246F0E746F00106FC
:100FB000D1E746F00206CEE746F00406CBE711F88B
:100FC000013CA3F130000928DBD80A2202FB0434DB
:100FD000303C0A46CBE74FF0000A12F8011B01F043
:100FE000FB0068289046F8D0782909D86F290CD8DA
:100FF000632962D022D8252963D0582900F088803F
:1010000098F80030002B95D197E770390829F7D868
:1010100001A353F821F000BF8B1100000110000064
:10102000011000002111000001100000FF1000005D
:10103000011000000110000011110000642901D00E
:101040006929DDD13A68D2F80090111D89EAE97268
:101050003960A2EBE9724FF0010B092A35DCD34568
:1010600038BFD3462CB1B9F1000F01DB720700D5B0
:10107000013CB30702D5BAF1000F03D0F00701D449
:101080004CBB0024B9F1000F2DDAC9F100092D2164
:101090002846FFF7D6FE06F00302022A04D1BAF171
:1010A000000F01D11CBB0024CDE9004653460A22A3
:1010B00049462846FFF7DCFEA2E73B681A1D19786F
:1010C0003A602846FFF7BDFE9AE70A230BF1010BB1
:1010D000B2FBF3F2C1E7A345D4D220212846013C5C
:1010E000FFF7AFFECCE77107D5D52B21D0E7A3459D
:1010F000DAD230212846013CFFF7A3FED2E7396857
:10110000CDE900460A1D3A6053460A220968D0E735
:1011100039680A1D3A60CDE9004653461022F5E7CA
:101120003B681A1D3A6016F00106D3F8009024D1EE
:10113000B9F1000F03D0484601F066FC0646B44200
:101140001DD809F1FF3919F8011F00293FF458AFE4
:101150002846FFF776FEF6E728460136FFF771FED0
:1011600019F806100029F7D1A642BFF449AF202193
:101170002846013CFFF765FEF6E70026F0E7202150
:101180002846013CFFF75DFED9E73B681A1D3A602F
:10119000302128461C68FFF754FE78212846FFF7C7
:1011A00050FE00220823CDE900322146102280E7BC
:1011B00003B0BDE8F08F00BF2DE9F84FB0F806A0EE
:1011C0004579D2F800B09DF828900AFB05F5043D5A
:1011D00088460BEB0301A94203F1040488BFA5EB89
:1011E000030BB4FBFAF607460AFB1644C2F800B03C
:1011F0004EB9AAEB04055D4528BF5D46BBF1000F63
:1012000004D1BDE8F88F3F68013EF1E7043408EBF4
:1012100006003C442A46B9F1000F0DD02146ABEB45
:10122000050B01F095FBDA452E443F6855464FF01B
:10123000000428BF5D46E1E701462046EFE7F8B528
:1012400046790146721E0546002393422D6803D35A
:101250000024A64202D8F8BD0133F6E70F682846FD
:10126000FFF7C1FD01343946F3E72DE9F843068A5B
:10127000CD1C0746FFF797FD043E35440446B5FBF9
:10128000F6F5F0B14FF48073EDB28380C680013D76
:10129000076081464FF00008A84512D23846FFF794
:1012A00082FD064648B163790133637108F1010894
:1012B000C9F8000007608146EEE72046FFF7BFFF50
:1012C00034462046BDE8F88301210430FFF74DBDC8
:1012D00010B5012104460430FFF753FDC0B220B918
:1012E0002046BDE81040FFF7AABF10BD1FB503920E
:1012F0000022009203AAFFF75FFF05B05DF804FB30
:101300001FB503920122009203AAFFF755FF05B013
:101310005DF804FB7FB503788DF8043043680293D1
:1013200083688DF80C30C36804930369064A8DF80E
:101330001430064B01A853F8213052F82110984779
:1013400007B05DF804FB00BF78050020840500208D
:10135000F0B50546174615F804CB124A42F82C7032
:10136000114A42F82C30114B0C460FCB85B06E461B
:1013700086E80F002368009323798DF805306379A0
:101380008DF80630A3680293002FA389084AADF8B0
:101390000C3008BF3A4663463146284600F098F9BB
:1013A00005B0F0BD8405002078050020342C000035
:1013B000151300001FB503788DF8003043680193C2
:1013C00083688DF80830C368054A0393054B684667
:1013D00053F8213052F82110984705B05DF804FB0E
:1013E00090050020940500201FB503788DF800308B
:1013F0004368019383688DF80830C368054A0393F6
:10140000054B684653F8213052F82110984705B033
:101410005DF804FB9005002094050020F0B5194B01
:1014200090F800C091F81DE043F82C20164B1646AA
:101430000A6943F82C20154B03F80CE00C460746CC
:101440000FCC89B06D460FC594E80F0085E80F00FA
:10145000CDF810C0BEF1000F09D0002E0C4A69462D
:1014600008BF3246381D00F099FD09B0F0BD002ECE
:10147000084A694608BF324607F10C0000F070FBCD
:10148000F3E700BF94050020900500209805002098
:10149000B5130000E913000000F1804000F5C040E2
:1014A000002382B0036003680193019B02B0704780
:1014B000800000F1A040D0F8002722F44032C0F8AC
:1014C0000027D0F8003743EA0141C0F80017704701
:1014D0002DE9F74F00244E4D01944FF48072012105
:1014E00002F1804303F5C04390B21B68012B06D183
:1014F000D5F804330B4202D0FFF7CEFF0C43043281
:10150000B2F5907F4FEA4101EAD1414BD3F87C31EB
:10151000012B0CD14FF4BE70FFF7BEFF4FF0A0437C
:1015200044F00044D3F820250192C3F82025E3B20B
:10153000D3B1384F00250126344210D0AB0003F15F
:10154000804303F5C043D3F81005D3F8101557F8BE
:10155000253023B1C1F30141C0F304209847013580
:10156000082D4FEA4606E7D1002C48DA294D4FF006
:10157000A048294E4FF00009012716F9013B5A1CDB
:1015800031D0C3F3C20208326A44DCB212F8042C30
:1015900003F03F0A03F0070307FA03F31A4222D0CD
:1015A0000AF5E073504658F82330C3F3014BBBF102
:1015B000020F0CBF03210221FFF77AFF07FA0AF39B
:1015C000C8F8203505EB0A0393F9303055F823307D
:1015D0004BB1A109032904D0BBF1020F12D101299B
:1015E00001D15046984709F10109B9F1040FC4D15E
:1015F000D8F820350193C8F82035002BB9D103B0B5
:10160000BDE8F08FBBF1030FEDD10229E8E700BF81
:10161000006000409C050020EC050020014B1B6889
:10162000184700BFF805002038B50B4B98420C4610
:1016300001D0002038BD0020FFF766FB074B1D7965
:1016400015B901221C601A710020FFF75FFB002D05
:10165000EFD01120EEE700BF00200040F805002089
:10166000034B984201BF034B00221A601A71704766
:1016700000200040F8050020124BD3F8182182B05A
:10168000EAB10022C3F81821D3F818310193019B65
:101690000D4BD97FFF2907D0987F01228A404FF058
:1016A000A04148B1C1F80C2500225A771A72D3E93B
:1016B0000021064802B01047C1F80825F4E702B03F
:1016C000704700BF003000400006002008060020E0
:1016D0002DE9F74F90F80480644E01924FF02409F1
:1016E00009FB08F906EB090B9A469BF81C300746E4
:1016F0000C46002B40F0B58005685D492846FFF791
:1017000093FF002840F0AF80019B46F80930CBF8EA
:1017100004A094F800E094F80CC04FF0A04201231C
:1017200003FA0EF3BCF1010F94BFC2F80C35C2F8F6
:1017300008350EF5E073012142F823106378FF2B82
:101740001FBF9940C2F80C1503F5E0714FF0030973
:1017500018BF42F82190A27808BF4FF0FF33FF2A4C
:101760001FBF02F5E0714FF0A04A4FF0040B4AF89A
:1017700021B04FF0240101FB086618BF914686F89E
:101780002020E2783949F27708BF4FF0FF39FF2A6D
:1017900017D094F804A04FF0010B0BFA02FB4FF0A6
:1017A000A046BAF1000F4ED0C6F80CB502F5E072B3
:1017B0004FF0030B46F822B0242202FB081282F8F5
:1017C0001EA0C5F808E5C5F80C35A368C5F8109546
:1017D000C5F82435637B003B18BF0123BCF1020F21
:1017E00034D0BCF1030F34D0BCF1010F01D143F070
:1017F0000203C5F85435A379C5F8C0350723C5F8E9
:101800000035019BABB13B68627943F30735520168
:10181000002DC3F30733D2B21EDB164C661986F8CF
:10182000002301226D0903F01F0302FA03F344F8B9
:101830002530242303FB081100234B7701230B776A
:1018400003B0BDE8F08FC6F808B5AFE743F0040376
:10185000CFE743F00603CCE7074C03F00F03E25455
:10186000E7E70820ECE71120EAE700BF00060020C8
:101870007916000000E100E014ED00E02DE9F341ED
:101880000779474E24237B431446F2180D46517FB7
:101890008646002940F08180F35823B114F0140FDC
:1018A00004BF0123537795E80F004FF0240C0CFB85
:1018B000076C0CF10C0888E80F009CF81F20FF2A29
:1018C00008D09CF81E10012393404FF0A042C1B1F4
:1018D000C2F80835296821B101F06043B3F1005F17
:1018E00006D1AA6882B102F06043B3F1005F0BD069
:1018F000242303FB076600237377102002B0BDE8A2
:10190000F081C2F80C35E5E7DEF800306868C3F80E
:101910004415C3F84805E968C3F834250022C3F824
:101920003815C3F81821D3F818210192019A14F040
:10193000010218BF0122C3F8502514F0020218BF9B
:101940000122C3F8402522075CBF01221A6124222C
:101950007A43B258B2B9D3F81821002AFBD0242315
:1019600003FB0766F27FFF2A07D0B07F0123934075
:101970004FF0A04218B1C2F80C350020BEE7C2F803
:101980000835BBE714F004004FF0400202D0C3F862
:101990000823F2E7C3F80423B0E71120AEE700BF45
:1019A000000600200023435082B043580193019B5E
:1019B00002B070470A4610B54FF48E71FFF7F2FF80
:1019C000136A9168C95C136A01331362C0F81C156D
:1019D00010BD8B690A4610B54FF4847123B9FFF727
:1019E000E1FFD0F8183510BDFFF7DCFF536AD1686E
:1019F000D0F81805C854536A01335362F3E7000066
:101A00001FB501238DF80030044BCDE90110D3E957
:101A100000126846904705B05DF804FB24060020DC
:101A200030B54D4DD5F804339A0585B051D5D5F86C
:101A30002431002B4DD04FF492712846FFF7B2FFAE
:101A40004FF40173C5F80833444B93F829200AB9C1
:101A500001226A60404902228DF80020D1F88024DA
:101A6000C1F8802403929A690292DA6801920022F6
:101A7000C3E906226846D3E9001290473648D0F8F9
:101A80001C315BB1354A5169136A99424DD992F8BC
:101A90002830002B49D11146FFF78CFF2E48D0F893
:101AA0004431002B56D04FF4A271FFF77BFF2B4B34
:101AB00093F829200AB1012202609A69002A49D0CC
:101AC000586AD96800229A6105B0BDE83040FFF736
:101AD00097BFD5F804335B07D0D5D5F80831002B74
:101AE000CCD01E4C1C482146FFF773FF636AA269E5
:101AF0009A42C3D1E369E1684BB1A3612369E36012
:101B00000023606AE3616362FFF77AFFB6E794F847
:101B100029300BB901236B600F4B4FF40172C3F8EE
:101B200008230023606AA361EEE70B484FF48E712F
:101B3000FFF738FF5369002BB0D0516902910023A1
:101B400091688DF80030019153616846D2E9001325
:101B50009847A3E705B030BD0020004024060020D0
:101B60002DE9F843534D90F804802C2303FB0853D0
:101B7000064693F82A300C469146002B40F096809A
:101B80004D490068FFF750FD0746002840F090805F
:101B900022683068511C0BD04FF0A04101239340C4
:101BA000C1F8083502F5E0734FF0030C41F823C08B
:101BB00061684B1C1FBF01F5E0734FF0A04C4FF064
:101BC000000E4CF823E0A369C0F8243594F814C043
:101BD000637DBCF1010F4CEA0303C0F86C35C0F81B
:101BE0001415C0F80C251DD1A268531C1FBF02F5A7
:101BF000E0734FF0A0414FF0000C41F823C0E368C0
:101C0000591C0BD04FF0A04C01219940CCF808157D
:101C100003F5E0714FF0030E4CF821E0C0F80835F1
:101C2000C0F810252C2202FB08F2AB18C3F8049070
:101C30002369AB50B9F1000F20D04FF48E71247F8F
:101C4000FFF7B0FE4FF4A2713068FFF7ABFE3268C9
:101C50001A4BC2F80433130B42F307326101002A16
:101C6000C9B21EDB1648841884F8001301215209FA
:101C700003F01F0301FA03F340F822303368042213
:101C8000C3F800252C2303FB08530022C3E90622D6
:101C900083F829205A61012283F82A203846BDE8BA
:101CA000F883084A03F00F03D154E7E70827F5E764
:101CB0001127F3E724060020211A0000800002000B
:101CC00000E100E014ED00E0F8B503680579304C60
:101CD0000022C3F800252C2202FB05425268A2B163
:101CE0002C4AC3F808231A0B43F30733002B0CDBF1
:101CF00002F01F015B0901228A402033264941F886
:101D00002320BFF34F8FBFF36F8F0068D0F80C65AF
:101D1000D0F81415D0F80835D0F810254FF0FF375B
:101D2000BE42C0F8147518BF06F5E076C0F80C7511
:101D3000C0F80875C0F810751EBF4FF0A0474FF0EF
:101D4000020C47F826C04E1C1FBF4FF0A04601F5FD
:101D5000E071022746F82170511C1FBF4FF0A041CF
:101D600002F5E072022641F822605A1C1FBF03F5FB
:101D7000E0734FF0A042022142F82310FFF770FCFD
:101D80002C2303FB0544002384F82A306360F8BD4C
:101D9000240600208402020000E100E00279044BE6
:101DA0002C2101FB02335869003818BF012070470D
:101DB000240600202DE9F84F064690F80480894655
:101DC0009246FFF7EBFF044600283CD1204F2C251C
:101DD00008FB057B4FF48E71CBF814A0CBF808906C
:101DE000CBF820008BF828003068FFF7DBFD306867
:101DF000012383605946FFF7DDFDDBF804305D46C3
:101E00001BBB3068DBF814402B6A9C4211D8336846
:101E1000D3F81C21002AFBD00122DA6000202C23F9
:101E200003FB087700237B61BDE8F88F95F8283025
:101E30003BB9D0F81C31002BF8D05946FFF7BAFD5A
:101E4000E2E70F20EBE71120EEE72046ECE700BFCA
:101E5000240600200023435082B043580193019B85
:101E600002B070471FB501238DF80030044BCDE957
:101E70000110D3E900126846904705B05DF804FBF5
:101E8000500600207FB5434AD2F82461002E60D06E
:101E900010464FF49271FFF7DDFF02238DF80030FA
:101EA000D2F88034C2F880340393D2F83C350293E0
:101EB000394BDA6801920022C3E906226846D3E969
:101EC000001290473348D0F8443173B14FF4A271F7
:101ED000FFF7C0FF304B9A693AB10022C3E90622EE
:101EE000D968D0F83C05FFF7BDFF2A48D0F820316B
:101EF000ABB14FF49071FFF7ADFF0123C360264BE8
:101F00005A6962B1D0F84C150291002299688DF897
:101F1000002001915A616846D3E9001290471D489C
:101F2000D0F858319BB14FF4AC71FFF793FF1A4BC7
:101F30005A6962B1D0F84C150291002299688DF867
:101F4000002001915A616846D3E90012904704B01D
:101F500070BDD2F81031002BB4D04FF48871104608
:101F6000FFF778FF0C4BD2F83C0599698842A9D15C
:101F7000DC69D96864B1D2F8005225F02005C2F8B6
:101F800000521A699C61DA60DE61FFF76BFF99E726
:101F90009C61FAE700200040500600202DE9F8433C
:101FA0005A4E90F80480242303FB0863044693F8F8
:101FB00020300D469146002B40F0A3805449006824
:101FC000FFF732FB0746002840F09D802A68206812
:101FD000511C0BD04FF0A04101239340C1F80835AC
:101FE00002F5E0734FF0030C41F823C069684B1C05
:101FF0001FBF01F5E0734FF0A04C4FF0000E4CF8FE
:1020000023E0AB69C0F8243595F814C06B7DBCF1B2
:10201000010F4CEA0303C0F86C35C0F80C25C0F87A
:1020200014151DD1AA68531C1FBF02F5E0734FF0B1
:10203000A0414FF0000C41F823C0EB68591C0BD0B5
:102040004FF0A04C01219940CCF8081503F5E07140
:102050004FF0030E4CF821E0C0F80835C0F8102509
:10206000242202FB08F2B318C3F804902B69B35082
:10207000B9F1000F2FD04FF488712A7FFFF7EAFEE5
:1020800020684FF49071FFF7E5FE20684FF49271DD
:10209000FFF7E0FE20684FF4A271FFF7DBFE4FF47C
:1020A000AC712068FFF7D6FE23681A49C3F8041301
:1020B000190B43F307335201002BD2B21CDB164835
:1020C000C51885F8002301225B0901F01F0102FAFF
:1020D00001F140F8231023680822C3F800252423C7
:1020E00003FB08660023C6E906337361012386F803
:1020F00020303846BDE8F883084B01F00F015A54F0
:10210000E9E70827F5E71127F3E700BF50060020AD
:10211000851E00001003420000E100E014ED00E025
:10212000F8B5444C0579242303FB054302465B685C
:102130000068ABB1404BC0F8083340F30733002BC5
:102140004FEA10310CDB01F01F065B090121B140A1
:1021500020333A4E46F82310BFF34F8FBFF36F8FF3
:10216000D0F8003223F02003C0F80032242303FB10
:1021700005439B692BB14FF4A271FFF76BFE01235E
:1021800043604FF4AC71FFF765FE0123C360242365
:1021900003FB0543D0F858110029FBD0996919B108
:1021A000D0F844110029F5D00023C0F80035136899
:1021B000D3F80C75D3F81465D3F80825D3F81015A7
:1021C0004FF0FF3C6745C3F80CC518BF07F5E07733
:1021D000C3F814C5C3F808C5C3F810C51EBF4FF037
:1021E000A0434FF0020C43F827C0771C1FBF4FF0ED
:1021F000A04306F5E076022743F826704E1C1FBF69
:1022000001F5E0714FF0A043022643F82160531C12
:102210001FBF4FF0A04302F5E072022143F82210E5
:10222000FFF71EFA242303FB0544002384F8203023
:102230006360F8BD500600201003420000E100E09A
:102240000279044B242101FB02335869003818BF7E
:10225000012070475006002001F06043B3F1005F99
:102260002DE9F0470646884692463BD190F8049007
:10227000FFF7E6FF0446002836D11D4F30682425BD
:1022800005FB09754FF49071C5F814A0C5F80880D6
:10229000FFF7E0FD4FF4AC713068FFF7DBFD33680A
:1022A0006A69A968C3F84415C3F8482501229A60F1
:1022B0006A68DAB9D3F82021D3F858011AB900288E
:1022C000F8D00F2007E00028FBD10122DA60D3F814
:1022D0005821002AFBD0242303FB097700237B61CC
:1022E000BDE8F0871020FBE71120F9E72046F7E76B
:1022F0005006002008B500F01FF800F0AAF8FF20F3
:1023000000F0D4F80A210846034A00F047F900F02B
:10231000D5F8002008BD00BF5F2C000038B5054D82
:10232000044645F001054FF47A40A847013CFAD134
:1023300038BD00BF802C00004FF0A043032230B511
:10234000C3F858270025C3F85C27C3F860274FF46B
:102350008002C3F86457C3F808254FF40002C3F89D
:1023600008254FF08072C3F80825094B0FCB85B0C4
:102370006C4684E80F0041F61C53ADF800302A4645
:102380002B4621460348FEF7E3FF05B030BD00BFF2
:10239000642C0000102D000030B54FF0A04487B031
:1023A0004FF480054FF400038DF80700C4F80C5576
:1023B000C4F80C350DF107030022029302A9012392
:1023C00004480592CDE90332FFF758FAC4F80855DE
:1023D00007B030BD142D000030B54FF0A04487B0D9
:1023E0004FF480054FF400038DF80700C4F80C5536
:1023F000C4F808350DF107030022029302A9012356
:1024000004480592CDE90332FFF738FAC4F80855BD
:1024100007B030BD142D000010B54FF0A044D4F823
:1024200010359B0100D410BD0520FFF777FFF6E7BC
:1024300038B54FF0A0444FF08075C4F80C55022019
:10244000FFF76CFFC4F808550220BDE83840FFF7DD
:1024500065BF08B5FFF770FFFFF7EAFFFFF7DCFF86
:102460001220FFF799FFBDE80840FFF7D5BF000035
:102470005F2830B514D8B72912D801EB4101C31039
:1024800003EB8103C043084D9BB200F00700012419
:1024900004FA00F0E95640B21AB921EA0001E95401
:1024A00030BD0143FBE700BF7406002001464FF436
:1024B0000A62014800F075BA740600202DE9F04167
:1024C0004420FFF769FF0020FFF786FF0B20FFF78E
:1024D00083FF4520FFF760FF0020FFF77DFF00200E
:1024E000FFF77AFFB720FFF777FF0020FFF774FFB1
:1024F000164E0024374600255FFA84F84E20FFF779
:102500004BFFE8B2FFF768FF4F20FFF745FF40465B
:10251000FFF762FF0020FFF75FFFFFF77DFF24203A
:10252000FFF73AFF013517F8010BFFF755FF0C2DA8
:10253000E4D10134B82C06F10C06DBD12020FFF7E2
:102540002BFFBDE8F041FFF767BF00BF7406002016
:102550002DE9F843A2F14103192B0646884618D805
:102560000D4F403A02EB820217440024002506EB8F
:1025700004093B5D2B41DB0705D5002205EB080173
:102580004846FFF775FF0135072DF2D10134052CC0
:10259000ECD1BDE8F88300BF862C000070B504467E
:1025A0000E46551E15F8012F02B970BD2046314662
:1025B000FFF7CEFF0634F5E74FF08053D3F8300134
:1025C000421C04BF4FF0704393F8E00F831F584242
:1025D000584170474FF0704393F8E02F062A09D115
:1025E000D3F8E83FC3F30313033B042B02D8024A9A
:1025F000D05C7047002070472F2D0000024AD2F8AF
:102600000034002BFBD0704700E0014010B5FFF70D
:10261000D3FF40B14FF08053944AD3F82433C3F32F
:102620000423C2F84035FFF7D5FF10B1904B914A13
:102630005A67FFF7C1FF48B14FF080534FF0804217
:10264000D3F84432C3F34233C2F83C35FFF7C2FF3C
:1026500030B1894AD2F8FC3023F08073C2F8FC30E4
:10266000FFF7AAFF40B14FF080430022C3F80C21CE
:10267000C3F81021C3F83825FFF7ACFF20B14FF0A5
:1026800080430322C3F8A025FFF7A4FF60B17B4B72
:102690000522C3F810260122C3F888260022C3F8B9
:1026A00018263F22C3F814264FF08053D3F8302168
:1026B000511C09BF4FF07043D3F8343193F8E02F29
:1026C000D3F8E83F08BFC3F30313062A4DD1033BF9
:1026D000042B03D86A4AD35C002B46D04FF08052BB
:1026E000684BD2F80414C3F82015D2F80814C3F8C4
:1026F0002415D2F80C14C3F82815D2F81014C3F816
:102700002C15D2F81414C3F83015D2F81814C3F8E5
:102710003415D2F81C14C3F84015D2F82014C3F8AD
:102720004415D2F82414C3F84815D2F82814C3F875
:102730004C15D2F82C14C3F85015D2F83014C3F845
:102740005415D2F83414C3F86015D2F83814C3F80D
:102750006415D2F83C14C3F86815D2F84014C3F8D5
:102760006C15D2F84424C3F87025FFF725FF48B153
:102770004FF080534FF08042D3F8583203F04F03AC
:10278000C2F8E43EFFF718FF48B14FF08043D3F89A
:102790000024D20744BF6FF00102C3F800244FF0B9
:1027A0008053D3F83021062A0ED1D3F83431033BBD
:1027B000042B02D8344AD35C33B1344AD2F83C37C4
:1027C00043F48063C2F83C372B4AD2F8883043F494
:1027D0007003C2F88830BFF34F8FBFF36F8F4FF095
:1027E0008053D3F83021062A0FD1D3F83431033B7C
:1027F000042B02D8264AD35C3BB14FF01023D3F808
:1028000008224FF08043C3F858254FF01023D3F827
:102810000022002A03DBD3F80432002B22DA1D4900
:1028200001234FF01020C1F804351524FFF7E6FE10
:10283000C0F80042FFF7E2FEC0F80442FFF7DEFEF8
:102840000023C1F80435FFF7D9FEBFF34F8F0A49C3
:10285000114BCA6802F4E0621343CB60BFF34F8FA1
:1028600000BFFDE70D4B0E4A1A6010BD003001405D
:1028700000C007400DF0ADBA00ED00E00050004090
:10288000202D000000C00040252D00000010004059
:102890002A2D000000E001400400FA051C00002081
:1028A0000090D0037F2805D8034A044B105C5B5C82
:1028B0001840704700207047402D0000C02D0000D8
:1028C000A0F16103192B98BF20387047A0F1410394
:1028D000192B98BF203070477F299ABF01700120C3
:1028E0006FF02E00704700BF5AB10A787F2A0AD8CD
:1028F00000B102600021501AC3E9001118BF012085
:102900007047104670476FF02E007047A0F16103CA
:10291000192B98BF20387047A0F14103192B98BF9D
:10292000203070477F2805D8034A044B105C5B5C5D
:102930001840704700207047402D0000C02D000057
:10294000024B5B689B6809211B6818472000002028
:10295000844640EA010313F0030F18D18446202A6D
:102960000BD32DE9F007B1E8F807A0E8F807A2F1CA
:102970002002202AF7D2BDE8F007042A07D351F835
:10298000043B40F8043BA2F10402042AF7D2002AD7
:1029900005D011F8013B00F8013B013AF9D160463E
:1029A00070478446002A2DD010F0030F04D000F8A1
:1029B000011B013A26D0F7E7C9B241EA012141EAF9
:1029C0000141202A12D3A2F120022DE9F0030B4687
:1029D0000C460D460E460F4688468946A0E8FA0387
:1029E000203AFBD2BDE8F00320320BD0042A05D3F5
:1029F00040F8041B043A05D0042AF9D200F8011B60
:102A0000013AFBD16046704700F1010110F0030F5D
:102A100011D010F8012B002A23D010F0030F0AD098
:102A200010F8012B002A1CD010F0030F03D010F86F
:102A3000012B002A15D02DE970004FF001324FF024
:102A4000803350F8044BA4EB020525EA04051D4031
:102A500000D1F6E7A0F1040070BC10F8012B002AA9
:082A6000FBD1A0EB010070475F
:102A6800442C0000000000004B2C00000000000077
:102A78004F2C000000000000542C00000000000053
:102A8800592C000000000000222B00000000040464
:102A9800EC2B000000000000102C000000000000DB
:082AA8002A2C000000000000D0
:102AB000F42A000000000000002B00001400002099
:102AC0007800002040010020480100208000002004
:042AD00018000000EA
:102AD400FFFFFFFFFFFFFFFFFFFFFFFFFFFFFFFF02
:102AE40000000000000000000000D6010601000004
:102AF400F104000055050000A10400007561727422
:102B04005F6C6F675F6261636B656E6400426163F3
:102B14006B656E647320666C7573686564006170C0
:102B240070001B5B313B33316D0025734C6F677351
:102B34002064726F70706564202825642925730DE4
:102B44000A001B5B306D002573003C25733E202575
:102B5400733A2000202530327800202020007C00A9
:102B64002563001B5B313B33306D001B5B313B3312
:102B7400326D001B5B313B33336D001B5B313B33E8
:102B8400346D001B5B313B33356D001B5B313B33D4
:102B9400366D001B5B313B33376D007761726E69B4
:102BA4006E6700696E666F00646562756700000099
:102BB400462B0000672B0000262B00006F2B000023
:102BC400772B00007F2B0000872B00008F2B000049
:102BD400972B000000000000FD2B00009F2B00003D
:102BE400A72B0000AC2B00006170705F62757474D9
:102BF4006F6E00466174616C206572726F7200536F
:102C0400797374656D207265736574006170705FAB
:102C140074696D6572003031323334353637383982
:102C2400414243444546736F72746C697374000087
:102C3400FFFFFFFF0006FF0000000040000000004F
:102C44004750494F544500505253005350494D008A
:102C540055415254005541525445004A6F686E0024
:102C6400FFFFFFFF06FF000000000040000000001F
:102C74000000000000000000000000000338FDD840
:102C8400704700000000007C1211127C7F49494902
:102C9400363E414141227F4141221C7F49494941FD
:102CA4007F090909013E4149497A7F0808087F41A3
:102CB400417F41412040413F017F081422417F4030
:102CC4004040407F020C027F7F0618307F3E414126
:102CD400413E7F090909063E4151215E7F091929B8
:102CE40046464949493101017F01013F4040403F87
:102CF4001F2040201F7F2018207F631408146303C3
:102D040004780403615149454300000000000000B9
:102D1400003000400000000001000000000001013C
:102D2400010000000101000000000101000000009A
:102D340043000000504F5349580000002020202039
:102D44002020202020682828282820202020202017
:102D54002020202020202020202020204810101077
:102D6400101010101010101010101010848484848F
:102D74008484848484841010101010101081818144
:102D840081818101010101010101010101010101AF
:102D94000101010101010110101010101082828242
:102DA400828282020202020202020202020202027F
:102DB4000202020202020210101010200007032077
:102DC400041702010857104080000000342D000051
:102DD400382E00004C2F000053756E004D6F6E00AE
:102DE400547565005765640054687500467269003F
:102DF40053617400000000004A616E004665620081
:102E04004D617200417072004D6179004A756E0027
:102E14004A756C0041756700536570004F63740018
:102E24004E6F76004465630000000000414D005081
:102E34004D000000702F00006C2F00006C2F00006C
:102E44006C2F00006C2F00006C2F00006C2F000012
:102E54006C2F00006C2F00006C2F0000FFFFFFFFA1
:102E6400FFFFFFFFFFFFFFFFFFFF0000AC2E00008E
:102E7400DC2D0000E82E0000FC2D0000302E0000A8
:102E8400902E0000402F00009C2E0000256D2F2561
:102E9400642F257900000000256120256220256526
:102EA400202554202559000053756E646179004D26
:102EB4006F6E646179005475657364617900576558
:102EC400646E6573646179005468757273646179C2
:102ED4000046726964617900536174757264617942
:102EE400000000004A616E75617279004665627285
:102EF40075617279004D6172636800417072696C2A
:102F0400004D6179004A756E65004A756C7900411F
:102F140075677573740053657074656D62657200CE
:102F24004F63746F626572004E6F76656D62657291
:102F340000446563656D62657200000025483A25AA
:102F44004D3A255300000000A5280000C1280000C8
:102F5400CD280000252900000D29000019290000B2
:102F6400D9280000E9280000000000002E0000001D
:102F7400000000000020004000000000002000408D
:102F84000000000000000000FF0000000090D003DB
:102F9400D02D0000D02D0000D02D0000D02D000039
:042FA400D02D00002C
:040000030000037581
:00000001FF
