:020000022000DC
:1060000000000120756302005D6302005F6302000F
:106010006163020063630200656302000000000028
:1060200000000000000000000000000067630200A4
:1060300069630200000000006B6302006D630200F0
:106040006F6302006F6302000D9B0200C5AC02008B
:10605000C5A402006F630200C19902006F630200D1
:106060006F6302006F6302006F6302006F630200E0
:106070006F6302006F6302006F6302006F630200D0
:106080006F630200A97502006F6302006F63020074
:106090006F6302006F6302009DFD02006F630200E8
:1060A0006F6302006F6302006F6302006F630200A0
:1060B0006F6302006F630200000000000000000038
:1060C0006F6302006F6302006F6302006F63020080
:1060D0006F6302006F6302006F6302000000000044
:1060E00000000000000000000000000000000000B0
:1060F00000000000000000000000000000000000A0
:10610000000000000000000000000000000000008F
:10611000000000000000000000000000000000007F
:10612000000000000000000000000000000000006F
:10613000000000000000000000000000000000005F
:10614000000000000000000000000000000000004F
:10615000000000000000000000000000000000003F
:10616000000000000000000000000000000000002F
:10617000000000000000000000000000000000001F
:10618000000000000000000000000000000000000F
:1061900000000000000000000000000000000000FF
:1061A00000000000000000000000000000000000EF
:1061B00000000000000000000000000000000000DF
:1061C00000000000000000000000000000000000CF
:1061D00000000000000000000000000000000000BF
:1061E00000000000000000000000000000000000AF
:1061F000000000000000000000000000000000009F
:10620000354936480A1A02D0072291438D4634494F
:1062100034480A1A06D00722914381F309880222E2
:1062200082F3148830483149314A00F044F831484B
:106230003149324A00F03FF831483249324A00F0E1
:106240003AF832483249334A00F035F83248334997
:10625000334A00F030F833483349344A00F02BF821
:1062600033483449344A00F026F83448344900228F
:1062700000F02CF833483449002200F027F8334866
:106280003349091A082902DB002202604160314AC1
:1062900090471F481F49884205D00268043003B464
:1062A000904703BCF7E700208646EC46002000211B
:1062B000294A9047FEE7884207D0521A05D0037852
:1062C00001300B700131013AF9D17047884202D098
:1062D00002700130FAE770470000012000E0002062
:1062E00000000120000001203C3403006422002053
:1062F000CC220020D0630200D0630200E40E030031
:106300003C34030064220020642200206410030057
:1063100064100300641003006410030064100300A1
:106320006410030064100300641003003C34030095
:10633000A4340300CC220020CC220020CC22002058
:10634000A0530020A0530020A4530020A4530020F9
:10635000A47300209D630200B5B20200FEE7FEE7D1
:10636000FEE7FEE7FEE7FEE7FEE7FEE7FEE7FEE705
:1063700000F002B8FFF7FCBF0F484FF00701884359
:1063800085460E4880470E48016841F4700101605F
:10639000BFF34F8FBFF36F8FFFF732BF09480A4932
:1063A0000A4A884207D0521A05D0037801300B7090
:1063B0000131013AF9D170470000012051940200E7
:1063C00088ED00E0501003005022002064220020DD
:1063D0000048704798530020F0B595B01D4616460A
:1063E00008460C4602F0D8FE1A9B0D93CDE90865CD
:1063F00000252B46082205A920460A958DF82C5029
:106400000C9502F0E5FE079B0293069B03939DF813
:1064100014308DF8115003F00302012A1DD1BDF88C
:106420001420059DC3F3C203C2F383168DF8103008
:10643000B20008230EA9204602F0CAFEC5F3952536
:1064400008AB0093324602AB0EA9284600F0BAFB17
:10645000204602F0A5FE15B0F0BD022AF8D1BDF825
:106460001650C3F3C203C5F389158DF81030082701
:10647000082D2E4628BF08263B4632460EA9204648
:1064800002F0A6FEAD1B08AB02AA31460EA83744A7
:1064900000F0FCFB002DEBD1DAE70000014B0122FC
:1064A0001A7070470D2300207047000070B50E4D24
:1064B00006460FCD88B06C460FC495E80F00002E3D
:1064C00084E80F00094A0A484FF0060308BF00227B
:1064D0006946009303F0DCF908B100F037FC054B86
:1064E0001E7008B070BD00BF641003009D64020000
:1064F00064220020CC22002007B5044B0093044AFC
:106500004023FFF769FF03B05DF804FB1565020047
:10651000CD22002038B50D480D4C0E4D00232370C0
:106520000378EB5CD2B263B1043003F07DFF08B1B5
:1065300000F00CFC084B1A7812B12378002BFBD02A
:1065400038BD0C3003F01EFDF1E700BF64220020CF
:106550000D230020502B0020CC22002008B5084835
:10656000084A0378D35C3BB1043003F0C1FEBDE8B8
:1065700008400020FFF79ABF0C3003F08DFCF6E7CF
:1065800064220020502B00200120FFF78FBF000065
:1065900008B5FFF7F9FF0448042100F07DFA034B2A
:1065A00001225A7108BD00BF40100300782200206C
:1065B000037813F0040216D003F00303012B03D079
:1065C000022B09D0012070470A6800880232C0F30C
:1065D000831002440A60F5E70B684288023303EB3C
:1065E00092130B60EEE71046704700002DE9F04F64
:1065F000DFF81CA187B00F4600230446861C0DF16E
:10660000070015468DF8073000F060FEDAF8042028
:106610003A60DAF8083003F580739B1A0AF21C47D7
:106620000AF583690AF21448B3421AD30020002DF8
:1066300069D004F00F039B0143F0050363F30F00DF
:10664000DAF80430DAB2033233444AF822009DF813
:106650000700CAF8043000F05DFE012007B0BDE875
:10666000F08F0121384602F003F8484602F01BF88B
:10667000404602F018F8DAF808000290C0B2033081
:106680000AEB800002A9FFF793FF029B30BBDAB24E
:106690000AEB8202D16803919A1C0133DBB20AEB48
:1066A00083030292D3F80CB001F00303012B22D034
:1066B000022B15D08346404601F0F8FF10B1029B33
:1066C000CAF808305946384601F0D2FFDAF80830E7
:1066D000DAF8042003F580739B1AA5E7D8B2CEE759
:1066E000BDF80E30C3F3891303334FEA1B4B02EBA3
:1066F00093030293DFE7BDF80C30C3F383134FEA33
:106700001B4B1344F5E7A40544F0060098E700BFCF
:10671000E0230020064B074810B500221A7002F053
:10672000F4FC044610B9044802F0FAFD204610BDFE
:10673000E0230020540F0300B810030030B50A4CCA
:1067400071B10A4A0A49121BD20800239A4201D1A8
:10675000002030BD31F82350854202D00133F5E7E7
:10676000034654F83300F4E7680F030040100300B9
:1067700064220020094B013903EBC000032909D82A
:10678000DFE801F00A020406042070470079704730
:10679000407970470020704702207047680F03005F
:1067A00070470000034BD3E90130C31A58425841E7
:1067B000704700BFE02300202DE9F04186B0FFF7CD
:1067C000F1FF0546002840F0ED80774CC4F818042E
:1067D000BFF34F8FA3680293DBB2033304EB830054
:1067E00002A9FFF7E5FE029B18B1D4F81824002A8D
:1067F0005AD0DAB2991C013304EB8202DBB204EB0B
:106800008303D268DB68049302F00303022B039234
:10681000029154D1BDF80E306448C3F38917502F4C
:106820003E4628BF502606F1080166F38F13C1F3D8
:106830000901ADF80E3002F080FC0546002800F09A
:106840009C8002F0A9FC0023082203A9284602F03C
:10685000B5FC0299CB43DBB20133C9B20331B6EBCD
:10686000830F4FEA830204EB810125D95FFA82F896
:106870000823A6EB0806284602F0A0FCF6B208F1B1
:1068800008034B4903F0FC033246284602F096FC0D
:10689000029B033703EB97070297D4F81834002BB9
:1068A00043D1D4F8106453E062689A4294D8A2604D
:1068B000284606B0BDE8F08108233246E5E7012B03
:1068C0005BD1BDF80C303948C3F38311062928BFCA
:1068D000062161F38913023101F00F018900ADF83F
:1068E0000C3002F02AFC0546002846D002F054FC89
:1068F0000023082203A9284602F060FC0026BDF808
:106900000C20C2F38312B300964203F10803C4D2F1
:1069100002994A1CC9B20331029204EB810104229C
:10692000284602F04BFC0136E9E7284602F038FC25
:10693000FFF738FF80F00100C5B2B9E7F3685B7973
:1069400023B1336829461B6830469847F3681E68B0
:10695000002EF3D1284602F023FC0DF107008DF83C
:10696000076000F0B3FCD4F818340BB9029BA360A5
:106970009DF8070000F0CEFCDAE7D4F8104454B9D3
:106980000C4B0D480D49C01AC008000440F002002D
:1069900000F05EF8CCE7236820469B689847E368E0
:1069A0001C68ECE7002583E7E0230020540F030078
:1069B000EC230020680F0300A00F0300A1100300C8
:1069C0002DE9F34704460E46924601A901221846D6
:1069D0009946FFF70BFE1C4F10B3019D4FF00008C6
:1069E000AA1CC84508EB020125D11848002101F076
:1069F000F8FD80F31000000440EA1440E4006B1C32
:106A000004F03804DBB2EDB244F0010407EB830379
:106A1000033544EA881444EA8624D86047F82540C0
:106A20003B781BB1FFF7C8FE0028FBD1FFF7B8FE8B
:106A300002B0BDE8F087C9B207EB81015AF82830EF
:106A4000CB6008F10108CCE7E0230020FC27002000
:106A500000231A46FFF7B4BF07B50123019201AA2C
:106A6000FFF7AEFF03B05DF804FB07B5CDE90023E7
:106A700002236A46FFF7A4FF03B05DF804FB1FB5CD
:106A8000CDE90123069B039301AA0323FFF798FF97
:106A900005B05DF804FB000030B50F4CD4F81024AD
:106AA00003460020114631B9D96808714AB9C4F8C3
:106AB00010340A6030BDC9680D79854206D0096876
:106AC000F1E7D26814680C601360F3E701300A281C
:106AD000E8D14FF0FF30EDE7E023002038B5084B58
:106AE0000125D3F810441D7004B938BDE3685D7109
:106AF000236820465B689847E3681C68F4E700BF9A
:106B0000E023002030B5C38885B004460D4633B17C
:106B1000144A00921449154A284601F02AFE217AA7
:106B200005291DD0637A4BB1A088FFF723FE104BD7
:106B3000104953F82020284601F01BFE227A0E4B04
:106B4000A08853F8222003920021FFF7F7FD039A53
:106B50000A490346284605B0BDE8304001F009BEA9
:106B600005B030BDE4100300CC100300C4100300D6
:106B700050110300751F030074110300E910030096
:106B800007B503460846197A052911D05B7A2BB15F
:106B9000094A0A49019001F0ECFD01980849019069
:106BA00001F0E7FD019803B05DF804EB01F0D6BDFC
:106BB000002AF8D0F2E700BFE4100300751F0300BD
:106BC000091E03002DE9F04385B01F460C9D0023EC
:106BD00095F80C902B7306460C469046294638468D
:106BE000FFF790FFB8F1060F09D8DFE808F00412AC
:106BF000181F283340003146284601F0BAFD002214
:106C000029463846FFF7BCFF85F80C9005B0BDE873
:106C1000F08322683146284601F0ABFDEFE7D4E966
:106C200000233146284601F0A4FDE8E7A36800935D
:106C30003146D4E90023284601F09BFDDFE7E368F5
:106C40000193A36800933146D4E90023284601F05C
:106C500090FDD4E723690293E3680193A36800934E
:106C60003146D4E90023284601F083FDC7E7636974
:106C7000039323690293E3680193A3680093314669
:106C8000D4E90023284601F074FDB8E708292DE96E
:106C9000F74F80460E4617461C463DD800251B7B05
:106CA0002573214610460193FFF72CFFDFF88CA0D7
:106CB000DFF88CB0AE4232D918F80520594620468C
:106CC00001F057FD0135082DF4D11B49DFF874A000
:106CD000DFF874B0204601F04CFD4FF000094E453E
:106CE00024D918F809507E2D1ED8284609F008FB33
:106CF000002814BF2A462E225946204601F039FDAD
:106D000009F10109B9F1080FE9D1012221463846FC
:106D1000FFF736FF019B237303B0BDE8F08F5146A8
:106D2000204601F026FDCDE72E22E5E7514620461C
:106D300001F01FFDE4E700BFFD100300F9100300A0
:106D4000F3100300FB100300FF1003001FB5002128
:106D5000039001AA44F20100CDE9011100F004F80A
:106D600005B05DF804FB000038B572B6FFF7B6FE5B
:106D7000FFF722FD0028FBD1104B114C114D124999
:106D8000E41AE408240444F00100FFF761FED5F89A
:106D9000F030DB0700D500BE0C4944F00200FFF7DD
:106DA00057FEBFF34F8FEA68094B02F4E0621343CA
:106DB000EB60BFF34F8F00BFFDE700BF680F03001C
:106DC000A00F030000ED00E0931103009F110300EA
:106DD0000400FA052DE9F743DFF8BC80B8F800306D
:106DE0008B4206460D46174647D300240DF1070097
:106DF0008DF8074000F06AFA224B234A23481B789B
:106E0000008892F800C084455FFA8CF138BF4C1CB2
:106E1000DBB238BFE4B2A34228D014781178CBB2E9
:106E2000884286BF0133DBB2002313709DF8070050
:106E300000F070FA4FF6FF739C4220D0144B1B6891
:106E400043F8347003EBC4099EB195B1114BB8F807
:106E500000001B682A46314604FB003009F092FC12
:106E6000A9F80450002003B0BDE8F0834FF6FF748A
:106E7000DCE70020A9F80400F5E70920F3E7042087
:106E8000F1E700BFA828002098280020A6280020AD
:106E9000A02800209C280020A428002010B5D0E9BC
:106EA0000243D1E90202A04272EB03032CBF01208E
:106EB000002010BD08B50A4800F05FFB094AD2E97E
:106EC0000031C018084BD3E9002341F10001904282
:106ED00071EB030303D210F1807041F1000108BD92
:106EE00080220020B02800202829002037B5054640
:106EF0000C460A4801A901F0A8FA60B10570446087
:106F000001A9064801F0CBFA18B1054800F03AFB98
:106F1000002003B030BD0420FBE700BF142900208F
:106F200080220020294B73B51E7804461EB9002626
:106F3000304602B070BD0028F9D0FFF7BBFFD4E99E
:106F400002239042994139D300230DF107008DF8B7
:106F5000073000F0BBF923692BB94FF0FF324FF037
:106F6000FF33C4E902239DF8070000F0D3F9D4E908
:106F70000530984700250DF107008DF8075000F007
:106F8000A5F92369C3B1D4E90212B2F1FF3F08BFEA
:106F9000B1F1FF3F05D05B1842F10002C4E90232B3
:106FA00035469DF8070000F0B5F9002DBFD0084820
:106FB000214602F0D4F9BBE71D46F2E7B3F1FF3FEB
:106FC00008BFB2F1FF3FB2D0F1E700BFB828002000
:106FD000BC11030013B5114B114918680190082327
:106FE0001048582201F0FCF9044698B90E4A0F489F
:106FF00001A900F0B3F9044660B90C48012100F082
:107000009FFA01230A4A0948194600F001FA094B80
:1070100001221A70204602B010BD00BFB611030055
:10702000BC280020142900201571020080220020B5
:10703000FFFF7F00B828002030B56AB103684FF029
:10704000FF344FF0FF355A614A1E5142C3E90245F1
:1070500051411961002030BD0720FCE7F7B5044617
:1070600000250DF1070017460E468DF8075000F079
:107070002DF9D4E90223B3F1FF3F08BFB2F1FF3F7E
:1070800007D1FFF717FF301841F10001C4E90201F1
:1070900001259DF8070000F03DF955B12369A7616E
:1070A00003B126612146002003B0BDE8F040FFF7A0
:1070B0001DBF284603B0F0BD37B5054600240DF1CD
:1070C00007008DF8074000F001F9D5E90223B3F17C
:1070D000FF3F08BFB2F1FF3F1FBF4FF0FF324FF03D
:1070E000FF33C5E9022301249DF8070000F012F9DF
:1070F00034B12946012003B0BDE83040FFF7F6BEA9
:10710000204603B030BD0000014800F036BA00BF91
:10711000802200202DE9F743064600F019FA40B11D
:10712000624AD2E9003113F1807341F10001C2E9F2
:1071300000310021304600F01AFA38B15C4C236867
:1071400023B12068FFF7EEFE0023236001213046C3
:1071500000F00DFA20B1FFF7ADFE564BC3E9000178
:107160005548534C01A901F0AAF94FF0FF384FF0F0
:10717000FF39A0B9DFF844814D4D404602F005F9D2
:10718000002800F08580D0E90223B3F1FF3F08BF5B
:10719000B2F1FF3F32D1404602F0F1F8EDE703785B
:1071A000012B20D0022B08D1444D284602F0E7F8ED
:1071B000002877D0C0E90289F7E75BB94168D1E9D7
:1071C0000223B3F1FF3F08BFB2F1FF3F02D03B48BB
:1071D00002F0C5F801A9384801F09CF901A9364828
:1071E00001F06DF9C5E741682368994202D1002397
:1071F0002360EFE7314802F0CBF8EBE7296891B163
:107200002968D1E9020182428B412FD22B68D3E950
:107210000223B3F1FF3F08BFB2F1FF3F03D029685B
:10722000404602F09CF8404602F0A9F8D0E9024935
:107230000746FFF73FFE201A69EB0109012879F1A3
:10724000000318DBB0F5350F13D3FFF75DFF1C4AC1
:1072500002441C484FF49603002100F0F9F890B95D
:107260002B6813B9304600F0CBF82F6003B0BDE8AF
:10727000F0832246EDE71348002100F06EF938460E
:10728000FFF750FE01E00D28F9D000232B6074E7D2
:10729000074B1B68002BE9D1304603B0BDE8F04333
:1072A00000F0B2B8084B01221A7093E7B028002012
:1072B000302900202829002014290020BC110300B7
:1072C000FFFFB40080220020B828002070B5EFF343
:1072D000108672B60C4A946801239CB993600B4BDC
:1072E0000B4DD3F8801029401160C3F88050D3F8BB
:1072F000841051604FF0FF32C3F88420047006B947
:1073000062B670BD0370FAE73429002000E100E0A6
:10731000FC06FFBD084B9A6810B55AB150B9EFF39F
:10732000108172B6054A1C6814605C6854609860ED
:1073300001B962B610BD00BF3429002000E100E0B1
:10734000435882B03BB10023435043580193019B03
:10735000012002B070471846FBE70000F8B5204B4B
:107360004479204E43F824201F4A204B06EBC404E6
:107370009B1A2279DB081B0432B143F002001C493E
:10738000FFF766FB0820F8BD02680C88C2F80845C4
:1073900090F904508A7804795201002DD2B219DB99
:1073A00014494F1987F8002301226D0904F01F04C6
:1073B00002FA04F441F82540427906EBC2010124A7
:1073C00046F832000C7143F003000B49FFF740FB15
:1073D0000020D8E7094904F00F040A55ECE700BF84
:1073E0004829002040290020680F0300B00F030047
:1073F000C811030000E100E0EA11030014ED00E011
:10740000036801221A607047036801225A607047BE
:1074100073B501F15005AD000068ADB24FF4803492
:107420008C400026C0F80843C0F84843465101F597
:10743000A8714559019522F07F42019D40F8212015
:10744000C0F844430BB1C0F8044302B070BD000063
:107450002DE9F74F0D4622F07F4402684FF4803744
:1074600005F150068F408046B60002EB8500C2F859
:107470004873B6B2C2F80873D2F8041599464FF0B3
:10748000000BD0F84035C0F8401542F806B05B1A42
:107490009259009223F07F43012B009A4FEA850A0C
:1074A0000CD1264B4FF4806043F001039847D8F885
:1074B000003043F806B09B590193019BD8F80010A7
:1074C000D1F80465C1F84473A31B23F07F43012B5B
:1074D0001CD11A4B05F5A875013443F0010341F89E
:1074E00025404FF480609847D8F80030D3F8043531
:1074F0009E4209D1D8F800300020C3F84473C3F885
:10750000047303B0BDE8F08F0D20FAE78A44C9F197
:10751000FF13CAF84045D1F80405221A013A22F0B7
:107520007F4203F57F439342EED3002AE2D1013438
:10753000CAF84045D1F804359842DAE70012030052
:1075400003680222C3F8442309B1C3F80423704737
:1075500000684FF48271FFF7F3BE4FF4803303FAF3
:1075600001F10368C3F84813C3F80813704750319A
:107570008900006889B2FFF7E3BE0368D3F8040509
:107580007047000090F90430002B09DB5A090121F3
:1075900003F01F0301FA03F34032024941F822309D
:1075A000704700BF00E100E0024B034A1B6810680F
:1075B000184700BF482900204029002070B5064D1B
:1075C0000646002455F8043B0BB130469847013479
:1075D000042CF7D170BD00BF582900204388033325
:1075E00000EB830399420BD382884FF6FF739A42D4
:1075F00008D0038833B18068431C58425841704713
:107600000220704701207047033080B240F2FE3301
:10761000984230B51FD8134B1A783AB91C895D8946
:107620002C440444A4B2B4F5806F0AD91A7DAAB9D7
:107630009A8BDC8B2244024492B2B2F5806F0DD853
:1076400001220A801446142202FB04335A89104492
:107650005881002030BD48F20860FBE748F2066020
:10766000F8E700BF8C2900200B4A0C4953881420EE
:1076700000FB0311CB6833B9042049681070012264
:10768000074801F00BBB07490523137002238B80C9
:10769000012209680023F3E7702900208C290020CB
:1076A00050220020542A002007B5002305490093EA
:1076B000054A09680548082301F056FA03B05DF849
:1076C00004FB00BF542A00201412030050220020A3
:1076D00007B5002301460093034A0448082301F03C
:1076E00043FA03B05DF804FB0C12030050220020A3
:1076F00013B500230C4600930146084A08480423AA
:1077000001F032FA38B9074B142101FB043101238F
:107710000B7402B010BD48F20D60FAE708120300C6
:10772000502200208C29002037B50A480A4B4268B5
:107730009C88196853880325033305709BB2002089
:1077400000909B0001EB8401044801F00DFA03B0A6
:1077500030BD00BF70290020542A00205022002094
:1077600010B50146044800F070FE1C2204460021BA
:1077700009F031F8204610BD402A002068B10268A7
:10778000084B9A4209D14068074B984207D0013311
:10779000984214BF03200120704703207047002047
:1077A000704700BFDEC0ADDEFE011EF12DE9F041E5
:1077B0000D460223154F2B80164600F5805100F12F
:1077C00008044FF001088C420ED2236801330BD01D
:1077D0002046FFF703FF48B10EB186F8008002286B
:1077E00009D14FF480632B80BDE8F081A3683A682B
:1077F000934200D93B602B886288033313442B806B
:107800006388033304EB8304DDE700BF8429002091
:1078100038B5144B14220D4602FB00302B68446827
:1078200004F58051A3B15C88033403EB84048C42DB
:1078300015D22368013312D02046FFF7CFFE01286E
:1078400008D002280BD00028F1D12C60012038BDCF
:107850000834ECE76388033304EB8304E7E7002094
:10786000F5E700BF8C290020426873B504460D4639
:107870006AB3234BD9688A4229D31B699A4226D816
:1078800012F0030323D11F490089098988421ED1C0
:107890002068916888421AD11B4841688A4203D9FE
:1078A00001F580518A420DD381698A420CD901F5D4
:1078B00080518A4208D201222A80B3FA83F040091B
:1078C00002B070BD1A46F7E748F20963F5E70026F3
:1078D0002E800196288801A9FFF79AFF30B92B88DE
:1078E00001339BB2012B2B80F3D9E9E7019B22687E
:1078F00099689142EED16360024B1B892381DFE7D7
:1079000050220020702900208C2900202DE9F84306
:107910001C461D4B1B7806460F46154673B382B3B3
:107920007CB3DFF86C804FF01409A388012B02D9D7
:1079300048F2096020E009FB03F318F803302BB983
:10794000A0882146FFF764FF20B92060A388013397
:10795000A380EAE723681EB1998832889142EFD16B
:107960001FB119883A889142EAD19A68C5E9002383
:10797000064B1B892B810020BDE8F88348F201608B
:10798000FAE748F20460F7E7682900207029002030
:107990008C29002008B5074B5888191DFFF738FFC0
:1079A00018B1BDE80840FFF7BFBEBDE80840FFF7CB
:1079B0005BBE00BF702900202DE9F0479F4FDFF824
:1079C000A08288B006463B6823B99D48414600F036
:1079D00076FD38603D6829784B1E052B07D8DFE817
:1079E00013F0200074007400060106015D0148F2E6
:1079F0000E641422002103A808F0EDFE41F61D5389
:107A00009C4208BF00243B6804941A78023A042A76
:107A100000F2FC81DFE812F0DD01E9010B02130244
:107A20001A022EB1874B00225A604FF40644E0E759
:107A30002B79032B1CD8DFE803F014022A35824A85
:107A40001378022B1AD0137D022B4FF0010317D1AC
:107A500014214B43D1180020D0544868FFF738FE5A
:107A600003E001232B71FFF71FFE002800F0B9800F
:107A7000744B00225A6048F20D64BAE70023E7E72E
:107A8000704A13700023536041F61D54B1E76F49EB
:107A90006F48002302222B718A800968012201F0BD
:107AA000FDF8E2E76B4B684C5B88684A14214B4356
:107AB000E11800262E714D681068156095884860A1
:107AC0000D810221E6549180C8E7B5F814A0AA7D83
:107AD000DFF87491AEB1022AEB8806D9142101FBBC
:107AE0000A91DA1C088902440A81142202FB0A99CD
:107AF000C3F57F43B9F80A20FD331344A9F80A30CF
:107B000093E7142303FB0A9318895C6804EB800451
:107B1000062A69D8DFE802F0274E36441D5A0400D1
:107B200041F61D54AA7DEB88022A06D9142101FBD7
:107B30000A91DA1C088902440A81142202FB0A997C
:107B4000C3F57F43B9F80A20FD331344A9F80A307E
:107B50004FE74148414900234360AB690360FFF7A9
:107B600083FE00285BD00223AB750023009304231F
:107B7000EA182146364800F0F7FF002831D048F2D5
:107B80000D64CFE72B69002B14BF03230123AB75D2
:107B90000023009305F10C02042304F10801E9E736
:107BA0000123AB750022EB8800922A699B0004F147
:107BB0000C01DFE703290CBF05230623AB75002367
:107BC0000093042305F10802E118D3E70623AB75FF
:107BD000224B1988204B5868FFF78AFD044600287D
:107BE000A0D108B0BDE8F08748F20E649AE7002EF5
:107BF0007FF41BAF2B79012B34D0022B3FF444AF21
:107C0000002B7FF4F4AE02232B710DF10A01EB6817
:107C1000039303A8CDE90466FFF726FE10B948F2E6
:107C20000964E6E60498BDF80A108388EB800388AF
:107C30002B81FFF75DFD044629E000BF8829002065
:107C4000402A0020682900208C290020542A002086
:107C500050220020702900204C290020602A00209A
:107C600080290020DFF8009203AA4B463146A81D68
:107C7000FFF74CFE044670B9B9F804100498FFF7FA
:107C800037FD044648F209639C423FF4FDAE002CE8
:107C90007FF4AFAEA5E7C9E90066F3E7002E7FF4F5
:107CA000C4AE6C4B1A7BBAB11E731A78013A062A1D
:107CB0003FF69DAE01A151F822F000BF677D0200A2
:107CC0008D7D0200AB7D0200B17D0200EF790200E4
:107CD000B77D0200C97D02001A78072AE5D801A104
:107CE00051F822F0057D0200AB7C0200AB7C020063
:107CF0002B7D02003F7D0200637D0200637D020058
:107D0000277D02001A89544901321A8100225A80C3
:107D10001A730A78B2FA82F252099A720A7DB2FA9A
:107D200082F25209DA72012207E04C4958688A88C7
:107D30004088033202448A8002221A70B5E75C88C8
:107D4000454A4649142505FB0422086854685060DA
:107D50008888108102200C6088800021117406221E
:107D6000EBE70722E9E79A7A32B9DA7A8AB9002290
:107D70001A705A805A6087E6374900229A72CA6898
:107D8000002AF2D1097C0029EFD05A80FFF702FEC9
:107D900051E70022DA72304A116A0029E7D192F8DD
:107DA0002420002AE3D00122EFE7FFF7BDFC42E7E1
:107DB000FFF75AFC3FE75A88274B142101FB023397
:107DC0005868FFF785FC36E700225A60FFF76CFC25
:107DD00031E701228DF80C201A89ADF818209A8815
:107DE000DB68ADF81A20059310E002228DF80C2014
:107DF0001A89ADF818209A88ADF81A20DA689B7DA8
:107E000005929A1F534253418DF81C3003A8FFF787
:107E1000D5FB0026414612483E6000F07BFB11482E
:107E2000012100F031FC00287FF4CDADD9E603221A
:107E30008DF80C20DA88ADF818201A89D0E70422D2
:107E40008DF80C20DB88ADF81830DFE705238DF8BE
:107E50000C30DBE7702900208C290020542A0020F8
:107E6000402A0020502A0020642A00204068FFF7A2
:107E7000A3BD000008B50548012100F0EDFB18B9CD
:107E8000BDE80840FFF798BD08BD00BF502A00209C
:107E90002DE9F3419846374B1B7806460D46002BDB
:107EA0005CD000295DD009884FF6FF7399425BD002
:107EB0006B88002B58D06B689B0758D14AB92F8923
:107EC0000DF102013846FFF79FFB30B102B0BDE86B
:107ED000F08113885788ADF8023001A8FFF740FC05
:107EE000044660B9BDF80220234B142101FB023384
:107EF00058890338C01B588148F20760E6E780F8CC
:107F0000008000238375BDF8023083826B680361B3
:107F100001211A4800F0ACFB2B882381B8F1030F34
:107F20006B88A38004BF0423A3754FF0000508BF2E
:107F30003368E06008BFA3611148E780658101A94B
:107F400000F0ADFA36B1E36833600E4B75601B8903
:107F5000B5723381FFF78EFF0020B7E748F201606A
:107F6000B4E748F20460B1E748F20360AEE748F2D4
:107F70000260ABE7682900208C29002084290020BA
:107F8000402A00207029002008B5034607480268EF
:107F9000042A08D00168064A42F82130012100F085
:107FA00067FB002008BD48F20B60FBE75C2A00205D
:107FB000582900202DE9F04FDFF8248289B01422DF
:107FC000002103A808F007FC98F8003003F0FF0236
:107FD00000923BB103A8FFF7F1FA0027384609B039
:107FE000BDE8F08F08F1040000F05AFB0028F4D13E
:107FF000009BDFF8F0A1D3F8F83F5C1C08BF4FF0FE
:1080000010234FF0805208BF5B6911695269581CF8
:1080100008BF02FB01F3A3F58052CAF81020A3F5B4
:1080200080436849CAF80C300022504600F06AFDCF
:1080300007460028D2D11C2363496448DFF8A8B161
:108040008C2200F0CDF90323B9463D4601933C460E
:10805000DAF80C604E443046FFF790FB012867D0F9
:10806000032817D000283DD159494FF0140C0CFBC0
:1080700004FC01EB0C0201F80C0056600CF110023C
:108080000CF1080C0A4430466144FFF78FFB45F0C1
:1080900002054AE03268531C02D04E4B9A4239D155
:1080A000321D06F580511068013033D104329142FF
:1080B000F9D1DBF800203AB902220123CBF80060A5
:1080C000ABF8042000930BE014226243404B0220E3
:1080D00099189854404A4E60548001340881A4B2E3
:1080E00045F0010509F58059B9F5405FB0D1019B14
:1080F000012B98BF0025EDB2022D03D0062D36D0FE
:10810000002D3ED1002388F8003048F20A67C8F8F5
:10811000043063E7019B2E495A1E93B21422624336
:10812000881801934660032088540134A4B2D9E72B
:10813000009B6BB1264B142262439918022098547D
:10814000DBF800204A60244A088154800134A4B23C
:1081500000222249CBF800603046FFF727FBBBF82E
:108160000420022A0CBF042208221543BAE7012387
:1081700088F8003003A80023C8F80430FFF71EFA7F
:108180002CE702A8FFF7ECFAC8B10123013D037008
:108190000A2D09D8DFE805F00608060807080708D1
:1081A0000F110F000023037102A9084800F077F9AE
:1081B000FFF760FE12E70323F5E70223F3E748F237
:1081C00007670BE708140300B4290020402A0020A9
:1081D0008C290020DEC0ADDE70290020582A002046
:1081E0006829002050220020542A002073B50D4633
:1081F0000446C8B1C1B10DF10601FFF735FBB0B1BE
:10820000BDF806300B486668142202FB030001210A
:108210000C3000F02DFA63682E600C336B60012384
:10822000A372002002B070BD48F20460FAE748F281
:108230000960F7E78C29002013B50446A8B10DF1B9
:108240000601FFF711FB98B1BDF806200B4B142176
:1082500001FB0233DA6872B1A27A62B1DA680020F7
:10826000013ADA60A07202B010BD48F20460FAE789
:1082700048F20960F7E748F20560F4E78C2900202E
:1082800002230022FFF704BE18B103230022FFF7E8
:10829000FFBD48F204607047104B1B7837B50546A8
:1082A0009BB1A8B101A8FFF75BFAA0B1042303704A
:1082B0002B68C3600024047101A9094800F0EFF89D
:1082C000FFF7D8FD204603B030BD48F20160FAE761
:1082D00048F20460F7E748F20760F4E768290020F5
:1082E000402A0020114B1B7813B50446ABB14FF662
:1082F000FF73984214D001A8FFF732FA98B1052312
:10830000037001230371C48001A9094800F0C7F874
:10831000FFF7B0FD002002B010BD48F20160FAE79F
:1083200048F20360F7E748F20760F4E768290020A5
:10833000402A00200F4B1B7807B5A3B101A8FFF717
:108340000FFA98B10623037001A90B4800F0A7F8B3
:108350000A4B1A780AB101221A73FFF78BFD00202D
:1083600003B05DF804FB48F20160F9E748F20760EA
:10837000F6E700BF68290020402A0020702900206D
:1083800007B5ADF80600ADF804100DF1060001A91F
:10839000FFF7BCFA03B05DF804FB07B51346ADF870
:1083A00006000A4600200DF10601FFF7AFFA03B000
:1083B0005DF804FB07B51346ADF806000A460DF15B
:1083C00006000021FFF7A2FA03B05DF804FB20B11C
:1083D00019B103680B600020704748F204607047D1
:1083E00010B561B1B2FBF3F403FB1424A4B244B999
:1083F000C0E9001484608281C381204610BD0E2034
:10840000FCE70920FAE782B050E8022FC188B2EBFE
:10841000324F4FF0000317BF92B241EA014142EAE6
:10842000014104E04268B2EB324F08BF012340E84B
:108430000212002AE8D18DF807309DF80730002B92
:108440000CBF1120002002B0704737B550E8013F43
:108450009DB2C48925448489A54228BF2D1B048967
:10846000A54202BFBFF32F8F002207E0C5EA030534
:1084700040E80154002CE9D14FF001028DF80320AF
:108480000193019A0A609DF8031001F0FF0321B1E6
:10849000006810FA82F003B030BD1846FBE70A8886
:1084A0004B889A4209D150E8012FC2EA024240E8C3
:1084B0000123002BF7D1012070470020704737B50A
:1084C00050E8023F1FFAA3F5C488A54202BFBFF3DC
:1084D0002F8F00220DE0C48925448489A54228BF3E
:1084E0002D1BC3EA054540E80254002CE8D14FF0AB
:1084F00001028DF803200193019A0A609DF8031090
:1085000001F0FF0321B1006800EB124003B030BD61
:108510001846FBE70A884B889A4209D150E8022F97
:10852000C2EA224240E80223002BF7D10120704723
:108530000020704701F01F024B090121914000EB20
:10854000830000F065B84B0910B501F01F0401214C
:10855000A14000EB830000F04FF8E04000F0010084
:1085600010BD01F01F0301229A404B0900EB83006C
:10857000D14300F065B84B0901F01F0150F823000A
:10858000C84000F0010070472DE9F0474F1E7F09F9
:1085900080460E460137002558F8254008EB85092E
:1085A000E44394FAA4F4B4FA84F44FEA451A202C74
:1085B00006D10135AF42EFD834462046BDE8F087FA
:1085C0005444A642F5D921464046FFF7BCFF002897
:1085D000F3D0D9F80040E44394FAA4F4B4FA84F454
:1085E000E5E710B5034653E8000F0A4643E80024C8
:1085F00094F0000FF7D110BD10B5034653E8000FFB
:1086000040EA010243E8002494F0000FF6D110BDC7
:1086100010B5034653E8002F42EA010043E8000486
:1086200094F0000FF6D110BD10B5034653E8000FCB
:1086300000EA010243E8002494F0000FF6D110BDD7
:1086400010B5034653E8002F02EA010043E8000496
:1086500094F0000FF6D110BD10B5034653E8000F9B
:1086600000EB010243E8002494F0000FF6D110BDA6
:1086700010B5034653E8002F02EB010043E8000465
:1086800094F0000FF6D110BD10B5034653E8002F4B
:10869000A2EB010043E8000494F0000FF6D110BDF6
:1086A0000121FFF7A9BF0121FFF7B2BF0021FFF7AA
:1086B000BBBF10B590B1D0E9012301689B1ADBB2B2
:1086C0000A60013BDBB2FF2B026802D1002010716F
:1086D00010BD11684C1C14600B70F2E70E20F7E718
:1086E00037B5054600240DF107008DF80740FEF769
:1086F000EDFD2A686B68116899420ED9481E10601A
:1087000011F8013CEC68298A01FB0344AB6811793C
:108710001B1ADBB2994238BF13719DF80700FEF7B0
:10872000F9FD204603B030BD37B5054600230DF1F5
:1087300007000C468DF80730FEF7C8FD2A6813685D
:10874000591C1160E968641A298AB4FBF1F41C70A1
:108750009DF80700FEF7DEFD03B030BD826810B55E
:1087600004462AB143690168006998470023A36061
:1087700010BD0EB403B5039921B104AB01AA019356
:1087800000F076F802B05DF804EB03B070470A29F8
:1087900038B504460D4602D10D21FFF7F8FFA36856
:1087A0002268591CA160D554D4E901329A4204D3FD
:1087B0002046BDE83840FFF7D1BF38BD2DE9F84F5E
:1087C0009846DDE90A43154682460F460A464FF0B1
:1087D0000109AA420FD2C14538BFC14613F0010BAF
:1087E00001D16CB900240126B8F1010F1BD908F1A1
:1087F000FF386E43F8E709F10109B2FBF5F2E8E74B
:108800009B070ED5B8F1000F0CBF30262026A145DE
:10881000E9D2013C31465046FFF7B9FF002CF6D1B2
:10882000E0E72026F3E7B7FBF6F39D42E1D9DFF856
:108830003C80B7FBF6F3504618F8031006FB13779D
:10884000FFF7A5FF3346AB42B6FBF5F6F1D2BBF11D
:10885000000F02D00CB1A14501D3BDE8F88F202153
:108860005046013CFFF793FFF4E700BF1C120300E2
:108870002DE9F74F054617468846002900F03E814E
:1088800018F8011B49B92B7B002B00F037812846D3
:1088900003B0BDE8F04FFFF761BF252940F0B78076
:1088A000002698F800302D2B424608F1010823D00D
:1088B000302B24D02B2B25D000242A2B02F10101B0
:1088C00023D13B681A1D1B683A601C440A46137882
:1088D0002E2B26D101324FF0000A104610F8011B52
:1088E000A1F1300CBCF1090F1DD80A2303FB0A13B8
:1088F000A3F1300A0246F0E746F00106D1E746F060
:108900000206CEE746F00406CBE711F8013CA3F1DE
:1089100030000928DBD80A2202FB0434303C0A4626
:10892000CBE74FF0000A12F8011B01F0FB006828AA
:108930009046F8D0782909D86F290CD8632962D0DD
:1089400022D8252963D0582900F0888098F8003073
:10895000002B95D197E770390829F7D801A353F870
:1089600021F000BFD78A02004D8902004D89020024
:108970006D8A02004D8902004B8A02004D89020077
:108980004D8902005D8A0200642901D06929DDD188
:108990003A68D2F80090111D89EAE9723960A2EBB9
:1089A000E9724FF0010B092A35DCD34538BFD346B5
:1089B0002CB1B9F1000F01DB720700D5013CB30700
:1089C00002D5BAF1000F03D0F00701D44CBB00244C
:1089D000B9F1000F2DDAC9F100092D212846FFF762
:1089E000D6FE06F00302022A04D1BAF1000F01D12B
:1089F0001CBB0024CDE9004653460A2249462846BE
:108A0000FFF7DCFEA2E73B681A1D19783A6028469A
:108A1000FFF7BDFE9AE70A230BF1010BB2FBF3F25D
:108A2000C1E7A345D4D220212846013CFFF7AFFE81
:108A3000CCE77107D5D52B21D0E7A345DAD2302179
:108A40002846013CFFF7A3FED2E73968CDE900468E
:108A50000A1D3A6053460A220968D0E739680A1DA0
:108A60003A60CDE9004653461022F5E73B681A1DEF
:108A70003A6016F00106D3F8009024D1B9F1000F46
:108A800003D0484607F0FCFE0646B4421DD809F163
:108A9000FF3919F8011F00293FF458AF2846FFF7A6
:108AA00076FEF6E728460136FFF771FE19F8061044
:108AB0000029F7D1A642BFF449AF20212846013C46
:108AC000FFF765FEF6E70026F0E720212846013C87
:108AD000FFF75DFED9E73B681A1D3A603021284652
:108AE0001C68FFF754FE78212846FFF750FE00224D
:108AF0000823CDE900322146102280E703B0BDE80B
:108B0000F08F00BF13B50B46114680B9104B1148CA
:108B1000114AC01A0E23C0080093104B00041049DC
:108B200040F00100FDF7ABFF0E2002B010BD4BB9C5
:108B3000074B08480B4AC01AC0080E2300930004D4
:108B4000064BECE703601B6802B0BDE81040184715
:108B5000680F0300C80F03002C120300E813030082
:108B600031120300601203002DE9F743DDF828807D
:108B700088B93E4B3E483F4AC01AC0080E243E4BBF
:108B8000009400043D4940F00100FDF778FF2046C5
:108B900003B0BDE8F0834AB9344B3548384AC01AAF
:108BA000C0080E24344B00940004EBE7D0F800E03A
:108BB000BEF1000F09D12D4B2D48324AC01AC00812
:108BC00008242D4B00940004DCE74BB9274B2848C0
:108BD0002D4AC01AC0080924274B00940004D1E78D
:108BE0004568D5F80490B3FBF9F509FB15354DB18F
:108BF0001E4B1F48254AC01AC00809241E4B00946A
:108C00000004BFE78D0709D0184B1948204AC01A45
:108C1000C0081024184B00940004B3E712F0030FAF
:108C200009D0124B12481B4AC01AC0081024124B1C
:108C300000940004A6E7C568A9420DD34D1EEC18A8
:108C40000569AC4208D8CDF82880DEF80C40A4466F
:108C500003B0BDE8F0436047044B05480E4AC01A14
:108C6000C0081024044B009400048BE7680F030035
:108C7000C80F03002C120300D513030031120300A8
:108C8000AE1203005A1203006D120300B412030067
:108C9000DE120300F612030019130300F7B580B9C2
:108CA0002A4B2B482B4AC01AC0080E242A4B00948A
:108CB00000042A4940F00100FDF7E1FE204603B020
:108CC000F0BDD0F800C0BCF1000F09D11F4B204807
:108CD000234AC01AC00808241F4B00940004E8E788
:108CE0004AB91A4B1A481F4AC01AC00809241A4B1D
:108CF00000940004DDE74568D5F800E00EF1FF358B
:108D00000D4209D0114B1248174AC01AC00810244E
:108D1000114B00940004CCE7C568A9420CD34D1E4A
:108D20000EFB02540569AC4206D8DCF81040A4469C
:108D300003B0BDE8F0406047044B05480B4AC01A39
:108D4000C0081024044B00940004B2E7680F03002D
:108D5000C80F03002C120300C213030031120300DA
:108D60005A1203006D120300401303006613030040
:108D700029DF704728DF704770B503689E6886B0AA
:108D800004460D466EB114220021684607F023FD0B
:108D9000A3680593237901952BB1012B0DD068466B
:108DA000B04706B070BD01238DF8003023690293EF
:108DB000E368039363690493F1E702238DF80030BD
:108DC000E3681B030293F5E70846704700207047ED
:108DD000024B187A003818BF01207047082B00207A
:108DE000034B187A0122B0FA80F05A744009704798
:108DF000082B002008B510461A4607F0C3FC0020D7
:108E000008BD000008B514220021044807F0E3FC67
:108E10000348FFF7F8FA002008BD00BF082B002028
:108E2000F82A002010B5094C094B43602046FFF793
:108E300037FC40B906F098FF064920741C23064809
:108E40008C22FFF7CDFA002010BD00BF082B0020B8
:108E5000FC1303006C2A0020F82A002038B5234DAB
:108E6000234C2B7A3BB923492348FFF728FB20608A
:108E700008B9686038BD022324682B72237973B166
:108E8000012B24D020460321FFF776FF00232B720D
:108E90006B6018491848BDE83840FFF73BBBD4E980
:108EA0000523D21AB2F5805FD4E9031028BF4FF42E
:108EB00080529208012A38BF012219441844FFF752
:108EC00057FF50B11128DDD101232B72D2E7D4E92D
:108ED00003031844FFF74EFFF3E72B7C002BC9D1A7
:108EE000BDE83840022000F009B800BF082B002080
:108EF000202B00201C2B0020F82A002038B5234C02
:108F0000237A002B41D0022B09D1032830D0204BEB
:108F100000221B68E2601A793AB1012A22D0637CF0
:108F20007BBBBDE83840FFF799BFD3E905128D1A26
:108F3000B5F5805F94BF521902F580529A61914253
:108F4000EDD102284FF0000308BF19462372104BE1
:108F500018BF0D211868FFF70FFF0E490E48FFF7E5
:108F6000D9FADCE71A6901321A615B699A42E7E7CC
:108F7000E3680133082B01D8E360D0E70023E36006
:108F8000DFE7BDE8384006F0DFBE38BD082B002023
:108F9000202B00201C2B0020F82A0020831E012BF0
:108FA00001D8FFF7ABBF704700F0FD03012B08D1DC
:108FB000044B00225A74421E504250411874FFF76D
:108FC0004DBF7047082B002010B5064C201DFFF741
:108FD00067FB28B9637C1BB9BDE81040FFF73EBFB3
:108FE00010BD00BF082B00202DE9F34180460D463F
:108FF000104801A916461F46FFF727FA0446B0B1EC
:1090000018220021043007F0E6FB2D0B0123237109
:1090100001A90848C4F80080A760E5606661FFF711
:109020003EFAFFF7D1FF002002B0BDE8F081042036
:10903000FAE700BFF82A00202DE9F34180460F46E9
:109040000F4801A916461D46FFF7FFF90446A8B1CF
:1090500018220021043007F0BEFB089BA36001A981
:10906000C4E903670648C4F800806561FFF717FA92
:10907000FFF7AAFF002002B0BDE8F0810420FAE764
:10908000F82A00202DE9F84FB0F806A04579D2F86B
:1090900000B09DF828900AFB05F5043D88460BEBCF
:1090A0000301A94203F1040488BFA5EB030BB4FB41
:1090B000FAF607460AFB1644C2F800B04EB9AAEB0E
:1090C00004055D4528BF5D46BBF1000F04D1BDE836
:1090D000F88F3F68013EF1E7043408EB06003C449A
:1090E0002A46B9F1000F0DD02146ABEB050B07F076
:1090F00049FBDA452E443F6855464FF0000428BF2F
:109100005D46E1E701462046EFE7FFF7D2BAF8B542
:1091100046790146721E0546002393422D6803D30B
:109120000024A64202D8F8BD0133F6E70F682846AE
:10913000FFF7FAFA01343946F3E72DE9F843068AD6
:10914000CD1C0746FFF7CCFA043E35440446B5FB78
:10915000F6F5F0B14FF48073EDB28380C680013D27
:10916000076081464FF00008A84512D23846FFF745
:10917000B7FA064648B163790133637108F1010813
:10918000C9F8000007608146EEE72046FFF7BFFF01
:1091900034462046BDE8F88301210430FFF768BA61
:1091A00010B5012104460430FFF76EFAC0B220B9B1
:1091B0002046BDE81040FFF7AABF10BD1FB50392BF
:1091C0000022009203AAFFF75DFF05B05DF804FBE3
:1091D0001FB503920122009203AAFFF753FF05B0C7
:1091E0005DF804FB33DF704738B5194C194D6368DF
:1091F000BBB9FDF773FCFDF7DFFA0028FBD1154B77
:109200001B78023B012B14D8BFF34F8F1249134B2D
:10921000CA6802F4E0621343CB60BFF34F8F00BF14
:10922000FDE71B682878984788B1204600F08BF846
:10923000DDE706F099FD08B1FFF7D4FF4FF080435A
:109240000122C3F80025BFF34F8F20BFFDE738BDD3
:10925000242B00202C2B002000ED00E00400FA0558
:109260000D4A08B5002313700C4A1360BFF35F8FDB
:109270000B490C4800F05DF80B4A0C480121FDF742
:10928000DBFE024630B9BDE8084009484FF4804192
:10929000FDF7E4BE08BD00BF2D2B0020302B0020C1
:1092A00038140300242B00200D9302003414030013
:1092B0008822002038B5114D044601212846FFF7C9
:1092C00090F9BFF35F8F38B9042C0AD00C4B1A7891
:1092D0001AB1BFF35F8F286038BD0A4A14700122AB
:1092E0001A700021084A0846FDF774FD08B1FDF721
:1092F0002DFDBFF35F8F00232B60EDE7302B0020A7
:109300002D2B00202C2B0020E9910200034B1B7811
:1093100013B10420FFF7CEBF704700BF2D2B0020F4
:10932000836800225A60C3E904229A60DA601A60F6
:1093300070470B684A684360934208BF002301608E
:1093400008BF43607047436843B102689168526840
:109350000B449342436004BF00234360704770B5E1
:10936000446806460D46206818B1B36829469847F8
:1093700018B923682B60256070BD2468F3E7436843
:10938000186808B102681A60704743681868704727
:109390004368186800B97047884203D102681A60B0
:1093A0000120704703460068F4E7000010B50D493E
:1093B000A1F59472914201D800200FE08C1AE30FBE
:1093C00003EBE4035B1002EBC30452F83330834237
:1093D00005D802D204F10802ECE7606810BD21460E
:1093E000E8E700BF4419030008B5FFF7DFFF024BB1
:1093F000002808BF184608BD071803004FF0805327
:10940000D3F83001421C04BF4FF0704393F8E00FD3
:10941000831F5842584170474FF0704393F8E02F34
:10942000062A09D1D3F8E83FC3F30313033B042B07
:1094300002D8024AD05C70470020704753190300DD
:10944000024AD2F80034002BFBD0704700E0014004
:1094500010B5FFF7D3FF40B14FF08053944AD3F8D3
:109460002433C3F30423C2F84035FFF7D5FF10B10E
:10947000904B914A5A67FFF7C1FF48B14FF08053B4
:109480004FF08042D3F84432C3F34233C2F83C3544
:10949000FFF7C2FF30B1894AD2F8FC3023F0807365
:1094A000C2F8FC30FFF7AAFF40B14FF08043002222
:1094B000C3F80C21C3F81021C3F83825FFF7ACFF1F
:1094C00020B14FF080430322C3F8A025FFF7A4FF8B
:1094D00060B17B4B0522C3F810260122C3F8882611
:1094E0000022C3F818263F22C3F814264FF08053F9
:1094F000D3F83021511C09BF4FF07043D3F83431F9
:1095000093F8E02FD3F8E83F08BFC3F30313062A0C
:109510004DD1033B042B03D86A4AD35C002B46D0C1
:109520004FF08052684BD2F80414C3F82015D2F8DB
:109530000814C3F82415D2F80C14C3F82815D2F86F
:109540001014C3F82C15D2F81414C3F83015D2F83F
:109550001814C3F83415D2F81C14C3F84015D2F807
:109560002014C3F84415D2F82414C3F84815D2F8CF
:109570002814C3F84C15D2F82C14C3F85015D2F89F
:109580003014C3F85415D2F83414C3F86015D2F867
:109590003814C3F86415D2F83C14C3F86815D2F82F
:1095A0004014C3F86C15D2F84424C3F87025FFF7B3
:1095B00025FF48B14FF080534FF08042D3F8583226
:1095C00003F04F03C2F8E43EFFF718FF48B14FF035
:1095D0008043D3F80024D20744BF6FF00102C3F8E0
:1095E00000244FF08053D3F83021062A0ED1D3F84F
:1095F0003431033B042B02D8344AD35C33B1344AB0
:10960000D2F83C3743F48063C2F83C372B4AD2F897
:10961000883043F47003C2F88830BFF34F8FBFF334
:109620006F8F4FF08053D3F83021062A0FD1D3F833
:109630003431033B042B02D8264AD35C3BB14FF0B4
:109640001023D3F808224FF08043C3F858254FF079
:109650001023D3F80022002A03DBD3F80432002BB6
:1096600022DA1D4901234FF01020C1F804351524DA
:10967000FFF7E6FEC0F80042FFF7E2FEC0F8044242
:10968000FFF7DEFE0023C1F80435FFF7D9FEBFF374
:109690004F8F0A49114BCA6802F4E0621343CB6052
:1096A000BFF34F8F00BFFDE70D4B0E4A1A6010BD90
:1096B0000030014000C007400DF0ADBA00ED00E001
:1096C000005000404419030000C000404919030045
:1096D000001000404E19030000E001400400FA05AC
:1096E000A82200200090D00338B5074C051E04F1D5
:1096F000080318BF1C4623682BB11A6822605B68F8
:1097000028469847F7E738BD3C2B002020B9054B89
:1097100001225A70FFF7E8BF012802D1014A907078
:10972000F8E77047342B002020B9034B01225A7010
:10973000FFF7DABF704700BF342B002038B50E4C5E
:109740002378B3B90D486360A3602361E36000F040
:10975000E7F8054606F008FB08B900F0EDF801232C
:109760002370074BD3F800340BB10123A3702846B4
:1097700038BD8525F5E700BF342B00200D9702008A
:109780000000014037B50D4C00230DF107008DF8A6
:109790000730FDF79BFDE368013BE360E36833B905
:1097A000074BD3F8005415B900F0DCF8A5709DF80C
:1097B0000700FDF7AFFD03B030BD00BF342B002024
:1097C00000000140012813B50CD0032820D038B97F
:1097D000134B0122C3F88020BFF34F8FBFF36F8F6D
:1097E00002B010BD0F4C00230DF107008DF80730BB
:1097F000FDF76CFD23780BB9FFF7A0FFE3689DF838
:1098000007000133E3600123A370FDF783FDE7E761
:1098100000F092F802B0BDE81040FFF7B3BF00BF00
:1098200000E100E0342B00201FB503788DF80030F4
:109830004368019383688DF80830C368054A039331
:10984000054B684653F8213052F82110984705B06F
:109850005DF804FB482B00204C2B00201FB503783B
:109860008DF800304368019383688DF80830C36831
:10987000054A0393054B684653F8213052F82110EE
:10988000984705B05DF804FB482B00204C2B0020C6
:10989000F0B5194B90F800C091F81DE043F82C206A
:1098A000164B16460A6943F82C20154B03F80CE0BA
:1098B0000C4607460FCC89B06D460FC594E80F00E3
:1098C00085E80F00CDF810C0BEF1000F09D0002EC2
:1098D0000C4A694608BF3246381D00F047FC09B003
:1098E000F0BD002E084A694608BF324607F10C0059
:1098F00000F01EFAF3E700BF4C2B0020482B00209D
:10990000502B0020299802005D98020000F1804051
:10991000002382B0036003680193019B02B070478B
:10992000044A137923B901211060918018467047C9
:1099300085207047542B0020084B1A68D20704D4A6
:10994000C02283F8002301221A604FF080420123D5
:10995000C2F81835024A1370704700BF00E100E0FA
:109960005C2B00204FF0804208B50223C2F8083378
:109970004FF48270FFF7CAFF0123D360D2F8183486
:10998000DB03FBD408BD00F1804000F5C04000239C
:1099900082B0036003680193019B02B070478000AE
:1099A00000F1A040D0F8002722F44032C0F8002790
:1099B000D0F8003743EA0141C0F8001770470000B3
:1099C0002DE9F74F00244E4D01944FF48072012190
:1099D00002F1804303F5C04390B21B68012B06D10E
:1099E000D5F804330B4202D0FFF7CDFF0C4304320D
:1099F000B2F5907F4FEA4101EAD1414BD3F87C3177
:109A0000012B0CD14FF4BE70FFF7BDFF4FF0A04308
:109A100044F00044D3F820250192C3F82025E3B296
:109A2000D3B1384F00250126344210D0AB0003F1EA
:109A3000804303F5C043D3F81005D3F8101557F849
:109A4000253023B1C1F30141C0F30420984701350B
:109A5000082D4FEA4606E7D1002C48DA294D4FF091
:109A6000A048294E4FF00009012716F9013B5A1C66
:109A700031D0C3F3C20208326A44DCB212F8042CBB
:109A800003F03F0A03F0070307FA03F31A4222D058
:109A90000AF5E073504658F82330C3F3014BBBF18D
:109AA000020F0CBF03210221FFF779FF07FA0AF327
:109AB000C8F8203505EB0A0393F9303055F8233008
:109AC0004BB1A109032904D0BBF1020F12D1012926
:109AD00001D15046984709F10109B9F1040FC4D1E9
:109AE000D8F820350193C8F82035002BB9D103B040
:109AF000BDE8F08FBBF1030FEDD10229E8E700BF0D
:109B000000600040602B0020B02B0020014B1B6840
:109B1000184700BFBC2B00200E4B984237B50C46AF
:109B200002D0002003B030BD00230DF107008DF8F6
:109B30000730FDF7CBFB084B1D7915B901221C60DE
:109B40001A719DF80700FDF7E5FB002DE9D0112003
:109B5000E8E700BF00200040BC2B0020034B9842E8
:109B600001BF034B00221A601A71704700200040A9
:109B7000BC2B00200023435082B043580193019B2B
:109B800002B070470A4610B54FF48E71FFF7F2FF2E
:109B9000136A9168C95C136A01331362C0F81C151B
:109BA00010BD8B690A4610B54FF4847123B9FFF7D5
:109BB000E1FFD0F8183510BDFFF7DCFF536AD1681C
:109BC000D0F81805C854536A01335362F3E7000014
:109BD0001FB501238DF80030044BCDE90110D3E906
:109BE00000126846904705B05DF804FBC42B0020C6
:109BF00030B54D4DD5F804339A0585B051D5D5F81B
:109C00002431002B4DD04FF492712846FFF7B2FF5C
:109C10004FF40173C5F80833444B93F829200AB96F
:109C200001226A60404902228DF80020D1F8802488
:109C3000C1F8802403929A690292DA6801920022A4
:109C4000C3E906226846D3E9001290473648D0F8A7
:109C50001C315BB1354A5169136A99424DD992F86A
:109C60002830002B49D11146FFF78CFF2E48D0F841
:109C70004431002B56D04FF4A271FFF77BFF2B4BE2
:109C800093F829200AB1012202609A69002A49D07A
:109C9000586AD96800229A6105B0BDE83040FFF7E4
:109CA00097BFD5F804335B07D0D5D5F80831002B22
:109CB000CCD01E4C1C482146FFF773FF636AA26993
:109CC0009A42C3D1E369E1684BB1A3612369E360C0
:109CD0000023606AE3616362FFF77AFFB6E794F8F6
:109CE00029300BB901236B600F4B4FF40172C3F89D
:109CF00008230023606AA361EEE70B484FF48E71DE
:109D0000FFF738FF5369002BB0D05169029100234F
:109D100091688DF80030019153616846D2E90013D3
:109D20009847A3E705B030BD00200040C42B0020B9
:109D30002DE9F843534D90F804802C2303FB08537E
:109D4000064693F82A300C469146002B40F0968048
:109D50004D490068FFF7E0FE0746002840F090807C
:109D600022683068511C0BD04FF0A0410123934072
:109D7000C1F8083502F5E0734FF0030C41F823C039
:109D800061684B1C1FBF01F5E0734FF0A04C4FF012
:109D9000000E4CF823E0A369C0F8243594F814C0F1
:109DA000637DBCF1010F4CEA0303C0F86C35C0F8C9
:109DB0001415C0F80C251DD1A268531C1FBF02F555
:109DC000E0734FF0A0414FF0000C41F823C0E3686E
:109DD000591C0BD04FF0A04C01219940CCF808152C
:109DE00003F5E0714FF0030E4CF821E0C0F80835A0
:109DF000C0F810252C2202FB08F2AB18C3F804901F
:109E00002369AB50B9F1000F20D04FF48E71247F3D
:109E1000FFF7B0FE4FF4A2713068FFF7ABFE326877
:109E20001A4BC2F80433130B42F307326101002AC4
:109E3000C9B21EDB1648841884F8001301215209A8
:109E400003F01F0301FA03F340F8223033680422C1
:109E5000C3F800252C2303FB08530022C3E9062284
:109E600083F829205A61012283F82A203846BDE868
:109E7000F883084A03F00F03D154E7E70827F5E712
:109E80001127F3E7C42B0020F19B020080000200A1
:109E900000E100E014ED00E0F8B503680579304C0E
:109EA0000022C3F800252C2202FB05425268A2B111
:109EB0002C4AC3F808231A0B43F30733002B0CDB9F
:109EC00002F01F015B0901228A402033264941F834
:109ED0002320BFF34F8FBFF36F8F0068D0F80C655E
:109EE000D0F81415D0F80835D0F810254FF0FF370A
:109EF000BE42C0F8147518BF06F5E076C0F80C75C0
:109F0000C0F80875C0F810751EBF4FF0A0474FF09D
:109F1000020C47F826C04E1C1FBF4FF0A04601F5AB
:109F2000E071022746F82170511C1FBF4FF0A0417D
:109F300002F5E072022641F822605A1C1FBF03F5A9
:109F4000E0734FF0A042022142F82310FFF706FE13
:109F50002C2303FB0544002384F82A306360F8BDFA
:109F6000C42B00208402020000E100E00279044BCF
:109F70002C2101FB02335869003818BF01207047BB
:109F8000C42B00202DE9F84F064690F8048089463E
:109F90009246FFF7EBFF044600283CD1204F2C25CA
:109FA00008FB057B4FF48E71CBF814A0CBF808901A
:109FB000CBF820008BF828003068FFF7DBFD306815
:109FC000012383605946FFF7DDFDDBF804305D4671
:109FD0001BBB3068DBF814402B6A9C4211D83368F5
:109FE000D3F81C21002AFBD00122DA6000202C23A8
:109FF00003FB087700237B61BDE8F88F95F82830D4
:10A000003BB9D0F81C31002BF8D05946FFF7BAFD08
:10A01000E2E70F20EBE71120EEE72046ECE700BF78
:10A02000C42B00200023435082B043580193019B6E
:10A0300002B070471FB501238DF80030044BCDE905
:10A040000110D3E900126846904705B05DF804FBA3
:10A05000F02B00207FB5434AD2F82461002E60D057
:10A0600010464FF49271FFF7DDFF02238DF80030A8
:10A07000D2F88034C2F880340393D2F83C3502938E
:10A08000394BDA6801920022C3E906226846D3E917
:10A09000001290473348D0F8443173B14FF4A271A5
:10A0A000FFF7C0FF304B9A693AB10022C3E906229C
:10A0B000D968D0F83C05FFF7BDFF2A48D0F8203119
:10A0C000ABB14FF49071FFF7ADFF0123C360264B96
:10A0D0005A6962B1D0F84C150291002299688DF846
:10A0E000002001915A616846D3E9001290471D484B
:10A0F000D0F858319BB14FF4AC71FFF793FF1A4B76
:10A100005A6962B1D0F84C150291002299688DF815
:10A11000002001915A616846D3E90012904704B0CB
:10A1200070BDD2F81031002BB4D04FF488711046B6
:10A13000FFF778FF0C4BD2F83C0599698842A9D10A
:10A14000DC69D96864B1D2F8005225F02005C2F864
:10A1500000521A699C61DA60DE61FFF76BFF99E7D4
:10A160009C61FAE700200040F02B00202DE9F84325
:10A170005A4E90F80480242303FB0863044693F8A6
:10A1800020300D469146002B40F0A38054490068D2
:10A19000FFF7C2FC0746002840F09D802A6820682F
:10A1A000511C0BD04FF0A04101239340C1F808355A
:10A1B00002F5E0734FF0030C41F823C069684B1CB3
:10A1C0001FBF01F5E0734FF0A04C4FF0000E4CF8AC
:10A1D00023E0AB69C0F8243595F814C06B7DBCF161
:10A1E000010F4CEA0303C0F86C35C0F80C25C0F829
:10A1F00014151DD1AA68531C1FBF02F5E0734FF060
:10A20000A0414FF0000C41F823C0EB68591C0BD063
:10A210004FF0A04C01219940CCF8081503F5E071EE
:10A220004FF0030E4CF821E0C0F80835C0F81025B7
:10A23000242202FB08F2B318C3F804902B69B35030
:10A24000B9F1000F2FD04FF488712A7FFFF7EAFE93
:10A2500020684FF49071FFF7E5FE20684FF492718B
:10A26000FFF7E0FE20684FF4A271FFF7DBFE4FF42A
:10A27000AC712068FFF7D6FE23681A49C3F80413AF
:10A28000190B43F307335201002BD2B21CDB1648E3
:10A29000C51885F8002301225B0901F01F0102FAAD
:10A2A00001F140F8231023680822C3F80025242375
:10A2B00003FB08660023C6E906337361012386F8B1
:10A2C00020303846BDE8F883084B01F00F015A549E
:10A2D000E9E70827F5E71127F3E700BFF02B002097
:10A2E00055A002001003420000E100E014ED00E080
:10A2F000F8B5444C0579242303FB054302465B680B
:10A300000068ABB1404BC0F8083340F30733002B73
:10A310004FEA10310CDB01F01F065B090121B1404F
:10A3200020333A4E46F82310BFF34F8FBFF36F8FA1
:10A33000D0F8003223F02003C0F80032242303FBBE
:10A3400005439B692BB14FF4A271FFF76BFE01230C
:10A3500043604FF4AC71FFF765FE0123C360242313
:10A3600003FB0543D0F858110029FBD0996919B1B6
:10A37000D0F844110029F5D00023C0F80035136847
:10A38000D3F80C75D3F81465D3F80825D3F8101555
:10A390004FF0FF3C6745C3F80CC518BF07F5E077E1
:10A3A000C3F814C5C3F808C5C3F810C51EBF4FF0E5
:10A3B000A0434FF0020C43F827C0771C1FBF4FF09B
:10A3C000A04306F5E076022743F826704E1C1FBF17
:10A3D00001F5E0714FF0A043022643F82160531CC1
:10A3E0001FBF4FF0A04302F5E072022143F8221094
:10A3F000FFF7B4FB242303FB0544002384F820303B
:10A400006360F8BDF02B00201003420000E100E083
:10A410000279044B242101FB02335869003818BF2C
:10A4200001207047F02B002001F06043B3F1005F82
:10A430002DE9F0470646884692463BD190F80490B5
:10A44000FFF7E6FF0446002836D11D4F306824256B
:10A4500005FB09754FF49071C5F814A0C5F8088084
:10A46000FFF7E0FD4FF4AC713068FFF7DBFD3368B8
:10A470006A69A968C3F84415C3F8482501229A609F
:10A480006A68DAB9D3F82021D3F858011AB900283C
:10A49000F8D00F2007E00028FBD10122DA60D3F8C2
:10A4A0005821002AFBD0242303FB097700237B617A
:10A4B000BDE8F0871020FBE71120F9E72046F7E719
:10A4C000F02B00204FF0402382B0D3F81821EAB1DE
:10A4D0000022C3F81821D3F818310193019B0C4BCB
:10A4E000D97FFF2907D0987F01228A404FF0A041F1
:10A4F00048B1C1F80C2500225A771A72D3E900211D
:10A50000044802B01047C1F80825F4E702B07047CC
:10A51000142C00201C2C00202DE9F74F90F804800B
:10A52000644E01924FF0240909FB08F906EB090B70
:10A530009A469BF81C3007460C46002B40F0B5802D
:10A5400005685D492846FFF7E7FA002840F0AF802C
:10A55000019B46F80930CBF804A094F800E094F889
:10A560000CC04FF0A042012303FA0EF3BCF1010F1F
:10A5700094BFC2F80C35C2F808350EF5E07301211E
:10A5800042F823106378FF2B1FBF9940C2F80C15C7
:10A5900003F5E0714FF0030918BF42F82190A2784B
:10A5A00008BF4FF0FF33FF2A1FBF02F5E0714FF0E5
:10A5B000A04A4FF0040B4AF821B04FF0240101FBF0
:10A5C000086618BF914686F82020E2783949F2776C
:10A5D00008BF4FF0FF39FF2A17D094F804A04FF0BE
:10A5E000010B0BFA02FB4FF0A046BAF1000F4ED060
:10A5F000C6F80CB502F5E0724FF0030B46F822B036
:10A60000242202FB081282F81EA0C5F808E5C5F84E
:10A610000C35A368C5F81095C5F82435637B003B5D
:10A6200018BF0123BCF1020F34D0BCF1030F34D0AA
:10A63000BCF1010F01D143F00203C5F85435A379F1
:10A64000C5F8C0350723C5F80035019BABB13B68A1
:10A65000627943F307355201002DC3F30733D2B2B9
:10A660001EDB164C661986F8002301226D0903F0E3
:10A670001F0302FA03F344F82530242303FB0811D7
:10A6800000234B7701230B7703B0BDE8F08FC6F8AA
:10A6900008B5AFE743F00403CFE743F00603CCE788
:10A6A000074C03F00F03E254E7E70820ECE7112022
:10A6B000EAE700BF142C0020C5A4020000E100E07E
:10A6C00014ED00E02DE9F3410779474E24237B4345
:10A6D0001446F2180D46517F8646002940F08180CD
:10A6E000F35823B114F0140F04BF0123537795E8F6
:10A6F0000F004FF0240C0CFB076C0CF10C0888E8E1
:10A700000F009CF81F20FF2A08D09CF81E10012380
:10A7100093404FF0A042C1B1C2F80835296821B179
:10A7200001F06043B3F1005F06D1AA6882B102F084
:10A730006043B3F1005F0BD0242303FB07660023C3
:10A740007377102002B0BDE8F081C2F80C35E5E760
:10A75000DEF800306868C3F84415C3F84805E968B6
:10A76000C3F834250022C3F83815C3F81821D3F8EC
:10A7700018210192019A14F0010218BF0122C3F8B6
:10A78000502514F0020218BF0122C3F84025220709
:10A790005CBF01221A6124227A43B258B2B9D3F8BD
:10A7A0001821002AFBD0242303FB0766F27FFF2A2F
:10A7B00007D0B07F012393404FF0A04218B1C2F8F8
:10A7C0000C350020BEE7C2F80835BBE714F00400E2
:10A7D0004FF0400202D0C3F80823F2E7C3F8042385
:10A7E000B0E71120AEE700BF142C00201FB503789E
:10A7F0008DF800308388ADF8043083688DF806301A
:10A80000C3688DF80730036902934369054A0393CF
:10A81000054B684653F8213052F82110984705B08F
:10A820005DF804FB382C0020402C0020024B4FF434
:10A83000807043F001031847801903002DE9F047A9
:10A84000154690F80090324A42F82950314A42F8B1
:10A8500029304B7B07460C466BB308684968820079
:10A860008B0002F1A04203F1A04340F20C66C2F853
:10A8700000674FF0010AC3F800674FF0A0460AFADC
:10A8800000F00AFA01F1C6F80805C6F8081540F20A
:10A890000D61C2F80017C3F80017FFF7C7FF4FF0AC
:10A8A0000008D6F81025636822FA03F3DB070DD5FC
:10A8B000B8F1000F1DD1002D174A4B4608BF2A469C
:10A8C0002146381DBDE8F04700F05ABA23680AFA5D
:10A8D00003F3C6F80C35FFF7A9FF23680AFA03F360
:10A8E000C6F8083508F10108FFF7A0FFB8F1090F15
:10A8F000D7D1636801264FF0A04806FA03F3C8F8E1
:10A900000C35FFF793FF63689E40C8F80865D2E7EF
:10A91000402C0020382C0020EDA702007FB50378E2
:10A920008DF804304368029383688DF80C30C36857
:10A9300004930369064A8DF81430064B01A853F8B6
:10A94000213052F82110984707B05DF804FB00BF92
:10A95000482C0020542C0020F0B50546174615F869
:10A9600004CB124A42F82C70114A42F82C30114B99
:10A970000C460FCB85B06E4686E80F002368009327
:10A9800023798DF8053063798DF80630A36802933A
:10A99000002FA389084AADF80C3008BF3A46634639
:10A9A00031462846FFF7B8FD05B0F0BD542C002015
:10A9B000482C0020881903001DA9020000234350E1
:10A9C00082B043580193019B02B070478B6A4A6B77
:10A9D0009A4210B54FF0010305D2496A8A5CC0F86B
:10A9E0001C251A4604E091F82C201AB1C3610022FC
:10A9F000104610BD0C6A640603D5C36181F82D3082
:10AA0000F6E74361EDE770B5D0F8046105460C4602
:10AA100026B14FF48271FFF7D1FF012694F82F2061
:10AA200022B34FF492712846FFF7C8FF4FF48E719E
:10AA3000FFF7C4FF4FF48471FFF7C0FF002E69D009
:10AA400094F82F20002384F82D3092BBA36A616B09
:10AA500099421CBF1646052386F001061CBFC5F8A7
:10AA60000025C5F8003584F82F6023E0D5F824319F
:10AA70004BB14FF492712846FFF7A0FF01236B61A1
:10AA800084F82F30DAE7D5F81C31ABB14FF48E7172
:10AA90002846FFF793FF636B01336363D5F82431D6
:10AAA00013B14FF49271E7E72146FFF78FFF0028BB
:10AAB000C4D10022104670BDD5F80831002BBDD09E
:10AAC0004FF484712846FFF779FFD5F82431002B25
:10AAD000E7D1636BA16A8B42B0D2616AD5F81805E1
:10AAE000C854636BA16A0133481E8342636308D173
:10AAF000206A400610D40223C5F8003201232B62DD
:10AB00009CE78B42FAD1236A5B0697D5022384F82F
:10AB10002D30CFE70122CDE78B42EFD1F6E70000E1
:10AB200037B5314B01930D464FF48271FFF746FF65
:10AB30004FF49271FFF742FF4FF48E71FFF73EFF23
:10AB40004FF48471FFF73AFF0023C0F800326B63C3
:10AB500085F82F300123036295F82D209A4218BF03
:10AB6000836029460446FFF731FF2B6883B140F22A
:10AB70008623AB60AB68C4F80433002003B030BD5B
:10AB800029462046FFF73FFF28B1019B013B019377
:10AB9000019B002BF4DC95F82F0050B9019B002B92
:10ABA000ECDC0023C4F800350523C4F8003503208D
:10ABB000E4E7D4F8C434C4F8C43493B113F0010FFB
:10ABC00014BF4FF40240032048F2012213F0020F99
:10ABD00018BF104613F0040F48F2022318BF18469E
:10ABE000DCE70320DAE700BFA086010037B5344B6D
:10ABF00001930D464FF48271FFF7E0FE4FF492711E
:10AC0000FFF7DCFE4FF48E71FFF7D8FE4FF484712E
:10AC1000FFF7D4FE00236B6385F82F30AB6A012B5E
:10AC2000044617D12B6A5B0614D40223C4F8003201
:10AC30000123236295F82D20022A18BF23602B6878
:10AC400093B140F28623AB60AB68C4F804330020B4
:10AC500003B030BD0123E9E729462046FFF7D3FEC4
:10AC600028B1019B013B0193019B002BF4DC95F87B
:10AC70002F0050B9019B002BEADC0023C4F80035FB
:10AC80000523C4F800350320E2E7D4F8C434C4F83F
:10AC9000C43493B113F0010F14BF4FF402400320EA
:10ACA00048F2012213F0020F18BF104613F0040FF0
:10ACB00048F2022318BF1846DCE70320DAE700BF9A
:10ACC000A0860100F0B52B4C2B4887B02146FFF73A
:10ACD0009AFE002840D194F82F70D4F820C0FFB914
:10ACE000237B9A1E012A1BD8616AA269914217D15F
:10ACF000E2696262CCF3401C62691F48A262032BC6
:10AD000084F82CC084F82D70214604D107B0BDE82A
:10AD1000F040FFF705BF07B0BDE8F040FFF766BFA2
:10AD2000164E0FCE01AD0FC533682B60FFB1124A2E
:10AD3000D2F8C434C2F8C43499070FD501238DF872
:10AD4000003000231CF0040F84F8303000D01FB115
:10AD5000D4E900316846984707B0F0BD5A0701D5DD
:10AD60000223ECE7DB074CBF03230423E7E78DF85E
:10AD70000070E6E7602C0020003000406C2C0020C2
:10AD80002DE9F84F0779314E4FF03C0A0AFB07FADC
:10AD900006EB0A059B4695F82E3080460C469146F8
:10ADA000002B4FD12A490068FEF7B6FE00284BD190
:10ADB0002168637B85F8383001F5E0724FF0A043DD
:10ADC000A860C5F804B085F8300085F82D0085F836
:10ADD000310040F20C6546F80A9043F82250626850
:10ADE00002F5E07C43F82C50D8F80030C3F8081581
:10ADF000C3F80C25A268C3F82425B9F1000F14D0BC
:10AE0000227B43F3073152010029C3F30733D2B247
:10AE100013DB104C651885F800230122490903F063
:10AE20001F0302FA03F344F821303C2303FB0766B7
:10AE3000012386F82E30BDE8F88F074903F00F0391
:10AE4000CA54F2E70820F6E71120F4E7602C00204E
:10AE5000C5AC020000E100E014ED00E003680279F7
:10AE60000521C3F80015044B3C2101FB02330222EB
:10AE700083F82E20704700BF602C00202DE9F0479A
:10AE8000314F0479D0F800903C2303FB04730D4646
:10AE900093F82D30012B944604D10B78012B06D169
:10AEA000082011E0022B02D10B78012BF8D13C26AF
:10AEB000264BC9F8083306FB047696F830302BB1E0
:10AEC000B368C9F804331120BDE8F0878CF004039F
:10AED000C3F3800386F83030C6F820C0A846B8E82F
:10AEE0000F0006F10C0EAEE80F00D8F80030CEF8D7
:10AEF00000306B68B362EB6873626B78C9F88835B1
:10AF00002B78C4EB041A012B07EB8A0A17D09BB9E4
:10AF1000CCF3401C3C2303FB0473514683F82CC044
:10AF20004846FFF7FDFD3C235C433A193B59002B93
:10AF3000CAD182F83030C7E74FF0010CEAE751463A
:10AF40004846FFF753FEEEE7602C002086420400DF
:10AF500010B586B00024CDE902349DF820308DF87C
:10AF60000510A342CDE9042401A914BF20222246E2
:10AF70008DF80440FFF782FF06B010BD10B586B013
:10AF8000012402930023CDE903328DF805101A46FF
:10AF900001A98DF804400593FFF770FF06B010BDBE
:10AFA000032811D8012A0AD101290FD100F10E027C
:10AFB000D2B20D4B00EB40001A540020704701291B
:10AFC000F7D0022904D049B1072070470022F8E7E2
:10AFD000054B00EB400018444270EEE7024B00EBDB
:10AFE000400018448270E8E79C2C002008B501223C
:10AFF00002210020FFF7D4FF08B1072810D1072253
:10B0000002210120FFF7CCFF08B1072808D1002159
:10B010000A220846FFF7C4FF10B1072808BF002026
:10B0200008BD00000388102B10B502D0112B1ED0D4
:10B0300010BD1A4C2168B1B901220846FFF7B0FFD4
:10B0400008B1072824D1072202210120FFF7A8FF19
:10B0500008B107281CD1042202210020FFF7A0FF1D
:10B0600008B1072814D1236801332360E0E70B4AB5
:10B070001368013B1360002BDAD1FFF7B7FF0028FC
:10B08000D6D0074B1B68002BD2D0BDE81040184724
:10B09000034B1B68002BE6D09847E4E7AC2C00205C
:10B0A000A82C002038B5054D044645F001054FF4A5
:10B0B0007A40A847013CFAD138BD00BFB01B03005D
:10B0C0002DE9F0470546002400F10C092F1909EB82
:10B0D000040817F801AB07264AFA06F000F0010051
:10B0E000303005F0D3F9013EF6D2B845F1D10A204F
:10B0F0000C3405F0CBF9B4F50A6FE7D1BDE8F08761
:10B1000037B50C46054628B305F0BAFB0A280246B7
:10B1100020D1FCB10021284605F030FA1E30019004
:10B1200001A805F015FBC0B1036823704368637084
:10B130008368A3708369E370C36823710369013373
:10B1400063714369642BB8BF6423643BA37100201F
:10B1500003B030BD4FF0FF30FAE76FF00100F7E7C2
:10B16000F0B516468BB0054696200C461F46FFF7F5
:10B1700099FF3146444801F0B5FA1098642101F076
:10B1800089F908B1FBF7E2FD06A93046FFF7B8FFE1
:10B19000002875D108A93846FFF7B2FF00286FD103
:10B1A0009DF81B3003939DF8183002939DF81930D9
:10B1B00001939DF81A309DF81D209DF81E100093F4
:10B1C00032489DF81C3001F08DFA9DF8183002933A
:10B1D0009DF8193001939DF81A309DF81E109DF8C6
:10B1E0001D2000932A489DF81C3001F07BFA06A828
:10B1F00000F0E1FF014620B1264801F073FA0BB0E0
:10B20000F0BD254801F06EFAADB1A4B12846FFF7B4
:10B2100057FF00F089FE00F014FFFF2000F020FF30
:10B22000294622461D4805F0ADFA00F021FF1C48D2
:10B23000214601F057FA9DF821109DF8220001F0F7
:10B24000E5F80146D0B9174801F04CFA9620FFF70F
:10B2500029FF05A801F095F830B99DF814209DF854
:10B260001510114801F03EFA6420FFF71BFF4FF064
:10B27000A0434FF48052C3F80C25C0E70B48BCE74D
:10B280000B4801F02FFABAE79C190300B519030027
:10B29000ED1903001D1A03003A1A03008041002033
:10B2A000561A0300861A0300BA1A0300A01A0300F4
:10B2B000DA1A030008B54FF0A0430322C3F8302781
:10B2C0004FF48052C3F80825C820FFF7EBFE15485D
:10B2D00001F008FAC820FFF7E5FE134801F002FA72
:10B2E000124801F0FFF9012000F0FCFF104801F0C6
:10B2F000F9F9C820FFF7D6FE0E4801F0F3F901F086
:10B30000B7F808B1FBF722FD0B4801F0EBF90B4849
:10B3100000F08EFC0A4801F0E5F90A4801F0E2F974
:10B32000FEE700BFF51A0300071B0300181B03000C
:10B33000341B0300461B03005B1B030061B10200CA
:10B34000701B0300821B03002DE9F04FC9B008AA4F
:10B3500001F1400514464B780E781B0443EA06635E
:10B36000CE7833438E78043143EA06238D4244F885
:10B37000043BF0D11024916B16464FEAF14383EA67
:10B38000714383EA9123716A366852F8045F31444D
:10B390000B444FEAB54181EAF51181EAD501013448
:10B3A0000B44402CD363E6D1D0E900E300938368DB
:10B3B0000193C36802930369039343690493836908
:10B3C0000593C3690693DDE9057BDDE9031CDDE92F
:10B3D00001592B4B009E079374464FF00008079BC2
:10B3E00053F8042B07934FEAF12383EAB11383EA5E
:10B3F000716A08AB53F828301A440AEB020327EAB3
:10B40000010A01EA0C028AEA02021A444FEA743A7B
:10B4100086EA05035A4423408AEAB40A06EA050B81
:10B4200083EA0B0B8AEAB45A08F10108DA44B8F14E
:10B43000400F02EB0903BB465244A94619D172449E
:10B440000260009A22444260019A32448260029A69
:10B450002A44C260039A1A44049B02610B4443616C
:10B46000059B63448361069B3B44C36149B0BDE8CF
:10B47000F08F674635468C46264619461446AEE799
:10B48000EC1B03002DE9F047454E0C46824617465B
:10B490000FCEA0B008AD0FC596E80F000AEB04066A
:10B4A00085E80F0025463F2DA6EB050172D84FEA2F
:10B4B00094194FF000086FF03F0101FB09443C2252
:10B4C000414611A8CDF8408005F085F922460AEBE7
:10B4D000891110A805F056F904F180036B4480220D
:10B4E00003F8402C264640234546E9FB0365ED0062
:10B4F000372C45EA56754FEAC60609D90DEB03010C
:10B5000008A8FFF721FF3822414610A805F063F98B
:10B510000DF17F040023C3F12000A3F1200126FADE
:10B5200003F205FA00F0024325FA01F108330A4359
:10B53000402B04F80129EED110A908A8FFF704FF59
:10B5400069460B46002450F8042BDA70150E1D7066
:10B550000134150C5D70082C4FEA12259D7003F123
:10B560000403F0D10F4800237C1C11F8012B1509AE
:10B5700002F00F02455D825C07F8135004F81320B7
:10B580000133202BF1D10023012087F8403020B077
:10B59000BDE8F08708A8FFF7D7FE403D83E700BF6E
:10B5A000B81B0300D81B03002DE9F047ADF5E15DA2
:10B5B00084B00746A14801F095F80FAB00210D2299
:10B5C00010A8196005F007F99D4B0FAC03F11005A9
:10B5D000994618685968224603C20833AB4214469C
:10B5E000F7D1984C002523786BB1102221460FA883
:10B5F00004F072FF38B9944801F091F80DF5E15D5F
:10B6000004B0BDE8F0870135082D04F11104EAD13A
:10B610008E498F48042204F05FFF014608B18D482F
:10B62000EAE714A83D2240F8041B05F0D4F88A4B41
:10B6300014AC03F1400518685968224603C2083368
:10B64000AB421446F7D185498548844D01F04AF84C
:10B6500009AA002313600AAA0CAEC2E90033A6F1BE
:10B660000C0188462A4612F8010BA0F13004092C7F
:10B6700001D80A2B6FD109AA0021D1547848294654
:10B6800001F030F82B7829462C460135002B68D183
:10B69000734801F027F83246002342F8043B7360F8
:10B6A00053603046224612F8011BA1F13005092DE6
:10B6B00001D80A2B59D10025F5546022294637A814
:10B6C00036AB1D6005F087F836AA1646234613F8F8
:10B6D000011BA1F13000092801D8642D4BD136ABF4
:10B6E00000225A5531465F4800F0FCFF21465C4875
:10B6F00000F0F8FF5C4B5D481D680DF1300AA4EBCB
:10B700000909A5EB0905AAF10C0953464A460FA9F8
:10B7100000F0E8FF3146564800F0E4FF554B564A2A
:10B72000CDE9044340F674610FABCDE90265CDE984
:10B73000009A0DF6BC5004F0B9FE014607904F4840
:10B7400000F0D0FF079925AA0DF6BC50FFF79AFE2E
:10B75000B8B94B4850E7013301F8010BDBB215468D
:10B7600080E7303B092B8DD892E7013300F8011BAD
:10B77000DBB2144696E7013502F8011BEDB21C4618
:10B78000A4E7402225A914A804F0A6FE00283AD177
:10B7900005EB04090346014605463A480DF59E7C33
:10B7A000A14532D1384800F09DFF0FA9374800F07D
:10B7B00099FF4146364800F095FF5146354800F064
:10B7C00091FF3146274800F08DFF3348294600F0AD
:10B7D00089FF002F2ED0314800F0A1FF009653467C
:10B7E0004246A9B24FA8B8472D4D164B2C7804EB12
:10B7F0000410013411220FA9184404F0070404F0C6
:10B800008FFE2C70FAE62748F6E614F8012B8256D4
:10B81000002AC5DB42EA81119A1DD2B2072A81BFF4
:10B82000023BDBB221FA03F20CF8052094BF134669
:10B830000135B5E71C4800F072FFD5E7EC1C0300AA
:10B84000012E00207E3C0020101D0300621D03001D
:10B85000112E0020301D0300152E0020552E002033
:10B860003D1D0300451D0300783C0020541D0300CE
:10B87000751F0300B02C0020671D0300861D030008
:10B880009B1D0300002D0020CE1D0300E01D0300C2
:10B89000F11D0300EC1D03000C1E0300241E030019
:10B8A0007D3C0020A81D0300461E030008B501468C
:10B8B0004F22204804F034FE4FF480721E484FF0AF
:10B8C000FF3104F088FF1D4B002203F8012B0132E9
:10B8D0001A2AFAD11A4B03F8012B0132D2B2342AB8
:10B8E000F9D1154B83F83020352283F831203622E8
:10B8F00083F83220372283F83320382283F834202B
:10B90000392283F835203A2283F836203B2283F807
:10B9100037203C2283F838203D2283F839203E220C
:10B9200083F82B203F2283F82F20002283F83D202C
:10B9300008BD00BFB02C0020002D0020412D0020AC
:10B94000612D00202DE9F047DFF89890204E9046B9
:10B9500004464718BC4201D1BDE8F08799F80010B1
:10B96000A9B91C4A1C48137894F800C0C55CAC45C2
:10B970000BD10133DBB21370C35C23B9012189F809
:10B980000010336013700134E4E71170FBE7336893
:10B9900040F67262934204D85A1C32600F4A2178F2
:10B9A000D1543568062DEED9DFF830A00C49073D9B
:10B9B00007220AEB050004F02FFD0028E3D10AF866
:10B9C000050089F8000040463560FFF7EDFDDAE735
:10B9D000783C00207C3C0020621E0300012E0020E9
:10B9E0005A1E0300002E00207ADF70477CDF70476C
:10B9F00090DF7047A8DF7047AADF7047B5DF704758
:10BA000062DF70470388232B37B5044670D005D812
:10BA1000102B12D0112B20D003B030BD502B26D0CC
:10BA2000552BF9D180881721FFF7E8FF0028F3D0C4
:10BA300003B0BDE83040FBF789B9334800F052FE4F
:10BA40003248334B3349C01AC008000440F00300A9
:10BA500003B0BDE83040FAF7FBBF2F4800F042FECC
:10BA60002A482B4B2D49C01AC0080004EEE72C4A87
:10BA7000C38812889A420DD12448254B228A29492D
:10BA8000C01AC008000440F0030003B0BDE8304015
:10BA9000FAF7E2BF244A12889A4207D11B481C4B8E
:10BAA000228A2249C01AC0080004ECE7204A128802
:10BAB0009A42B1D1028A164B1448C01AC008000439
:10BAC0001AB91C4940F00200C2E71B4D2B680BB9A4
:10BAD0001A49F7E71A4940F00300FAF7BDFF2A6850
