:020000022000DC
:1060000000000120756302005D6302005F6302000F
:106010006163020063630200656302000000000028
:1060200000000000000000000000000067630200A4
:1060300069630200000000006B6302006D630200F0
:10604000599202006F6302002D9402006F630200F8
:106050006F6302006F630200E19202006F6302004F
:106060006F6302006F6302006F6302006F630200E0
:106070006F6302006F6302006F6302006F630200D0
:106080006F630200B57402006F6302006F63020069
:106090006F6302006F630200A1D902006F63020008
:1060A0006F6302006F6302006F6302006F630200A0
:1060B0006F6302006F630200000000000000000038
:1060C0006F6302006F6302006F6302006F63020080
:1060D0006F6302006F6302006F6302000000000044
:1060E00000000000000000000000000000000000B0
:1060F00000000000000000000000000000000000A0
:10610000000000000000000000000000000000008F
:10611000000000000000000000000000000000007F
:10612000000000000000000000000000000000006F
:10613000000000000000000000000000000000005F
:10614000000000000000000000000000000000004F
:10615000000000000000000000000000000000003F
:10616000000000000000000000000000000000002F
:10617000000000000000000000000000000000001F
:10618000000000000000000000000000000000000F
:1061900000000000000000000000000000000000FF
:1061A00000000000000000000000000000000000EF
:1061B00000000000000000000000000000000000DF
:1061C00000000000000000000000000000000000CF
:1061D00000000000000000000000000000000000BF
:1061E00000000000000000000000000000000000AF
:1061F000000000000000000000000000000000009F
:10620000354936480A1A02D0072291438D4634494F
:1062100034480A1A06D00722914381F309880222E2
:1062200082F3148830483149314A00F044F831484B
:106230003149324A00F03FF831483249324A00F0E1
:106240003AF832483249334A00F035F83248334997
:10625000334A00F030F833483349344A00F02BF821
:1062600033483449344A00F026F83448344900228F
:1062700000F02CF833483449002200F027F8334866
:106280003349091A082902DB002202604160314AC1
:1062900090471F481F49884205D00268043003B464
:1062A000904703BCF7E700208646EC46002000211B
:1062B000294A9047FEE7884207D0521A05D0037852
:1062C00001300B700131013AF9D17047884202D098
:1062D00002700130FAE770470000012000E0002062
:1062E00000000120000001201404030064220020AB
:1062F000AC220020D0630200D0630200D4E502008B
:1063000014040300642200206422002044E70200F9
:1063100044E7020044E7020044E7020044E70200C9
:1063200044E7020044E7020044E7020014040300CB
:106330005C040300AC220020AC220020AC22002030
:1063400040340020403400204034002040340020FD
:10635000405400209D630200919F0200FEE7FEE78B
:10636000FEE7FEE7FEE7FEE7FEE7FEE7FEE7FEE705
:1063700000F002B8FFF7FCBF0F484FF00701884359
:1063800085460E4880470E48016841F4700101605F
:10639000BFF34F8FBFF36F8FFFF732BF09480A4932
:1063A0000A4A884207D0521A05D0037801300B7090
:1063B0000131013AF9D1704700000120298D020016
:1063C00088ED00E030E70200502200206422002027
:1063D000F0B595B01D46164608460C4602F0A6FBE1
:1063E0001A9B0D93CDE9086500252B46082205A9C7
:1063F00020460A958DF82C500C9502F0B3FB079BB4
:106400000293069B03939DF814308DF8115003F00E
:106410000302012A1DD1BDF81420059DC3F3C20358
:10642000C2F383168DF81030B20008230EA920465F
:1064300002F098FBC5F3952508AB0093324602ABFA
:106440000EA9284600F0BAFB204602F073FB15B0F7
:10645000F0BD022AF8D1BDF81650C3F3C203C5F34C
:1064600089158DF810300827082D2E4628BF0826DC
:106470003B4632460EA9204602F074FBAD1B08AB2A
:1064800002AA31460EA8374400F0FCFB002DEBD1E8
:10649000DAE70000014B01221A707047ED2200205C
:1064A0007047000070B50E4D06460FCD88B06C46A3
:1064B0000FC495E80F00002E84E80F00094A0A482F
:1064C0004FF0060308BF00226946009302F04CFE1D
:1064D00008B100F037FC054B1E7008B070BD00BF5E
:1064E00044E702009564020064220020AC220020F0
:1064F00007B5044B0093044A4023FFF769FF03B03C
:106500005DF804FB0D650200AD22002038B50D4892
:106510000D4C0E4D002323700378EB5CD2B263B1B7
:10652000043003F011FC08B100F00CFC084B1A78A1
:1065300012B12378002BFBD038BD0C3003F0B2F938
:10654000F1E700BF64220020ED220020042A002091
:10655000AC22002008B50848084A0378D35C3BB158
:10656000043003F055FBBDE808400020FFF79ABF58
:106570000C3003F021F9F6E764220020042A002001
:106580000120FFF78FBF000008B5FFF7F9FF0448AF
:10659000042100F07DFA034B01225A7108BD00BFAF
:1065A00020E7020078220020037813F0040216D0BE
:1065B00003F00303012B03D0022B09D00120704705
:1065C0000A6800880232C0F3831002440A60F5E7CB
:1065D0000B684288023303EB92130B60EEE7104620
:1065E000704700002DE9F04FDFF81CA187B00F467F
:1065F00000230446861C0DF1070015468DF8073070
:1066000000F0EAFDDAF804203A60DAF8083003F521
:1066100080739B1A0AF21C470AF583690AF2144830
:10662000B3421AD30020002D69D004F00F039B0160
:1066300043F0050363F30F00DAF80430DAB20332F3
:1066400033444AF822009DF80700CAF8043000F0ED
:10665000E7FD012007B0BDE8F08F0121384601F0C9
:10666000A3FD484601F0B8FD404601F0B5FDDAF85B
:1066700008000290C0B203300AEB800002A9FFF7C5
:1066800093FF029B30BBDAB20AEB8202D16803911E
:106690009A1C0133DBB20AEB83030292D3F80CB0ED
:1066A00001F00303012B22D0022B15D08346404674
:1066B00001F095FD10B1029BCAF8083059463846E2
:1066C00001F072FDDAF80830DAF8042003F580737F
:1066D0009B1AA5E7D8B2CEE7BDF80E30C3F38913F5
:1066E00003334FEA1B4B02EB93030293DFE7BDF842
:1066F0000C30C3F383134FEA1B4B1344F5E7A40597
:1067000044F0060098E700BFC0230020064B07486E
:1067100010B500221A7002F0C2F9044610B90448FC
:1067200002F06AFA204610BDC023002044E60200B1
:1067300098E7020030B50A4C71B10A4A0A49121BA7
:10674000D20800239A4201D1002030BD31F82350F5
:10675000854202D00133F5E7034654F83300F4E7ED
:1067600058E6020020E7020064220020094B0139AC
:1067700003EBC000032909D8DFE801F00A02040690
:1067800004207047007970474079704700207047B7
:106790000220704758E6020070470000034BD3E91F
:1067A0000130C31A58425841704700BFC02300202F
:1067B0002DE9F04186B0FFF7F1FF0546002840F0D3
:1067C000ED80774CC4F81804BFF34F8FA368029391
:1067D000DBB2033304EB830002A9FFF7E5FE029B63
:1067E00018B1D4F81824002A5AD0DAB2991C01330F
:1067F00004EB8202DBB204EB8303D268DB68049310
:1068000002F00303022B0392029154D1BDF80E3023
:106810006448C3F38917502F3E4628BF502606F11F
:10682000080166F38F13C1F30901ADF80E3002F0D1
:106830004EF90546002800F09C8002F077F900230D
:10684000082203A9284602F083F90299CB43DBB260
:106850000133C9B20331B6EB830F4FEA830204EB75
:10686000810125D95FFA82F80823A6EB080628469D
:1068700002F06EF9F6B208F108034B4903F0FC038D
:106880003246284602F064F9029B033703EB970770
:106890000297D4F81834002B43D1D4F8106453E095
:1068A00062689A4294D8A260284606B0BDE8F0819A
:1068B00008233246E5E7012B5BD1BDF80C3039489F
:1068C000C3F38311062928BF062161F3891302311E
:1068D00001F00F018900ADF80C3002F0F8F8054620
:1068E000002846D002F022F90023082203A92846F6
:1068F00002F02EF90026BDF80C20C2F38312B3007B
:10690000964203F10803C4D202994A1CC9B203316A
:10691000029204EB81010422284602F019F90136A3
:10692000E9E7284602F006F9FFF738FF80F001009A
:10693000C5B2B9E7F3685B7923B1336829461B68B0
:1069400030469847F3681E68002EF3D1284602F0BF
:10695000F1F80DF107008DF8076000F03DFCD4F868
:1069600018340BB9029BA3609DF8070000F058FC97
:10697000DAE7D4F8104454B90C4B0D480D49C01A4D
:10698000C008000440F0020000F05EF8CCE7236885
:1069900020469B689847E3681C68ECE7002583E77E
:1069A000C023002044E60200CC23002058E6020069
:1069B00080E6020081E702002DE9F34704460E4617
:1069C000924601A9012218469946FFF70BFE1C4F7B
:1069D00010B3019D4FF00008AA1CC84508EB020146
:1069E00025D11848002101F098FB80F31000000425
:1069F00040EA1440E4006B1C04F03804DBB2EDB252
:106A000044F0010407EB8303033544EA881444EAA5
:106A10008624D86047F825403B781BB1FFF7C8FEB5
:106A20000028FBD1FFF7B8FE02B0BDE8F087C9B27D
:106A300007EB81015AF82830CB6008F10108CCE758
:106A4000C0230020DC27002000231A46FFF7B4BF34
:106A500007B50123019201AAFFF7AEFF03B05DF86D
:106A600004FB07B5CDE9002302236A46FFF7A4FF24
:106A700003B05DF804FB1FB5CDE90123069B03932A
:106A800001AA0323FFF798FF05B05DF804FB00009F
:106A900030B50F4CD4F8102403460020114631B90C
:106AA000D96808714AB9C4F810340A6030BDC968A1
:106AB0000D79854206D00968F1E7D26814680C6048
:106AC0001360F3E701300A28E8D14FF0FF30EDE71B
:106AD000C023002038B5084B0125D3F810441D70A1
:106AE00004B938BDE3685D71236820465B68984748
:106AF000E3681C68F4E700BFC023002030B5C388FA
:106B000085B004460D4633B1144A00921449154A23
:106B1000284601F0C7FB217A05291DD0637A4BB1C5
:106B2000A088FFF723FE104B104953F82020284679
:106B300001F0B8FB227A0E4BA08853F82220039272
:106B40000021FFF7F7FD039A0A490346284605B0DE
:106B5000BDE8304001F0A6BB05B030BDC4E702007F
:106B6000ACE70200A4E7020030E80200C9E7020037
:106B700054E80200CCE7020007B503460846197A3C
:106B8000052911D05B7A2BB1094A0A49019001F01D
:106B900089FB01980849019001F084FB019803B03A
:106BA0005DF804EB01F073BB002AF8D0F2E700BFF8
:106BB000C4E70200C9E7020041F002002DE9F043FA
:106BC00085B01F460C9D002395F80C902B7306464C
:106BD0000C46904629463846FFF790FFB8F1060F5D
:106BE00009D8DFE808F00412181F283340003146A6
:106BF000284601F057FB002229463846FFF7BCFF24
:106C000085F80C9005B0BDE8F0832268314628462F
:106C100001F048FBEFE7D4E900233146284601F0B4
:106C200041FBE8E7A36800933146D4E900232846F6
:106C300001F038FBDFE7E3680193A3680093314676
:106C4000D4E90023284601F02DFBD4E72369029301
:106C5000E3680193A36800933146D4E900232846F2
:106C600001F020FBC7E76369039323690293E3689C
:106C70000193A36800933146D4E90023284601F02C
:106C800011FBB8E708292DE9F74F80460E46174655
:106C90001C463DD800251B7B2573214610460193D9
:106CA000FFF72CFFDFF88CA0DFF88CB0AE4232D9B2
:106CB00018F805205946204601F0F4FA0135082D50
:106CC000F4D11B49DFF874A0DFF874B0204601F05E
:106CD000E9FA4FF000094E4524D918F809507E2DE5
:106CE0001ED8284607F064F8002814BF2A462E2232
:106CF0005946204601F0D6FA09F10109B9F1080F09
:106D0000E9D1012221463846FFF736FF019B237364
:106D100003B0BDE8F08F5146204601F0C3FACDE73D
:106D20002E22E5E75146204601F0BCFAE4E700BF19
:106D3000E0E70200DCE70200D6E70200DEE702003F
:106D4000E2E702001FB50021039001AA44F201000E
:106D5000CDE9011100F004F805B05DF804FB000076
:106D600038B572B6FFF7B6FEFFF722FD0028FBD15B
:106D7000104B114C114D1249E41AE408240444F05C
:106D80000100FFF761FED5F8F030DB0700D500BE4B
:106D90000C4944F00200FFF757FEBFF34F8FEA683B
:106DA000094B02F4E0621343EB60BFF34F8F00BF67
:106DB000FDE700BF58E6020080E6020000ED00E0BB
:106DC00073E802007FE802000400FA0510B5D0E97C
:106DD0000243D1E90202A04272EB03032CBF01205F
:106DE000002010BD08B50A4800F04DFB094AD2E961
:106DF0000031C018084BD3E9002341F10001904253
:106E000071EB030303D210F1807041F1000108BD62
:106E10008022002080280020F828002037B5054671
:106E20000C460A4801A901F0ACF860B10570446055
:106E300001A9064801F0CFF818B1054800F028FB79
:106E4000002003B030BD0420FBE700BFE428002091
:106E500080220020294B73B51E7804461EB90026F7
:106E6000304602B070BD0028F9D0FFF7BBFFD4E96F
:106E700002239042994139D300230DF107008DF888
:106E8000073000F0A9F923692BB94FF0FF324FF01A
:106E9000FF33C4E902239DF8070000F0C1F9D4E9EB
:106EA0000530984700250DF107008DF8075000F0D8
:106EB00093F92369C3B1D4E90212B2F1FF3F08BFCD
:106EC000B1F1FF3F05D05B1842F10002C4E9023284
:106ED00035469DF8070000F0A3F9002DBFD0084803
:106EE000214601F0A8FEBBE71D46F2E7B3F1FF3FE4
:106EF00008BFB2F1FF3FB2D0F1E700BF8828002001
:106F00009CE8020013B5114B114918680190082341
:106F10001048582201F022F8044698B90E4A0F484A
:106F200001A900F0A1F9044660B90C48012100F064
:106F30008DFA01230A4A0948194600F0EFF9094B76
:106F400001221A70204602B010BD00BF96E8020070
:106F50008C280020E42800202170020080220020DC
:106F6000FFFF7F0088280020F7B5044600250DF1BB
:106F7000070017460E468DF8075000F02DF9D4E9AA
:106F80000223B3F1FF3F08BFB2F1FF3F07D1FFF784
:106F900029FF301841F10001C4E9020101259DF8E3
:106FA000070000F03DF955B12369A76103B12661DF
:106FB0002146002003B0BDE8F040FFF72FBF284670
:106FC00003B0F0BD37B5054600240DF107008DF87C
:106FD000074000F001F9D5E90223B3F1FF3F08BFF4
:106FE000B2F1FF3F1FBF4FF0FF324FF0FF33C5E953
:106FF000022301249DF8070000F012F934B129465C
:10700000012003B0BDE83040FFF708BF204603B0C1
:1070100030BD0000014800F036BA00BF80220020D9
:107020002DE9F743064600F019FA40B1624AD2E969
:10703000003113F1807341F10001C2E900310021F8
:10704000304600F01AFA38B15C4C236823B120684E
:10705000FFF700FF002323600121304600F00DFA06
:1070600020B1FFF7BFFE564BC3E900015548534C12
:1070700001A900F0C0FF4FF0FF384FF0FF39A0B971
:10708000DFF844814D4D404601F0EBFD002800F053
:107090008580D0E90223B3F1FF3F08BFB2F1FF3F83
:1070A00032D1404601F0D7FDEDE70378012B20D027
:1070B000022B08D1444D284601F0CDFD002877D0A1
:1070C000C0E90289F7E75BB94168D1E90223B3F16E
:1070D000FF3F08BFB2F1FF3F02D03B4801F0ABFDDC
:1070E00001A9384800F0B2FF01A9364800F083FF3B
:1070F000C5E741682368994202D100232360EFE786
:10710000314801F0B1FDEBE7296891B12968D1E977
:10711000020182428B412FD22B68D3E90223B3F1C3
:10712000FF3F08BFB2F1FF3F03D02968404601F09E
:1071300082FD404601F08FFDD0E902490746FFF786
:1071400051FE201A69EB0109012879F1000318DBCF
:10715000B0F5350F13D3FFF75DFF1C4A02441C48FE
:107160004FF49603002100F0F9F890B92B6813B999
:10717000304600F0CBF82F6003B0BDE8F083224624
:10718000EDE71348002100F06EF93846FFF762FE84
:1071900001E00D28F9D000232B6074E7074B1B6832
:1071A000002BE9D1304603B0BDE8F04300F0B2B89F
:1071B000084B01221A7093E7802800200029002044
:1071C000F8280020E42800209CE80200FFFFB4001B
:1071D000802200208828002070B5EFF3108672B658
:1071E0000C4A946801239CB993600B4B0B4DD3F868
:1071F000801029401160C3F88050D3F8841051608A
:107200004FF0FF32C3F88420047006B962B670BD37
:107210000370FAE70429002000E100E0FC06FFBD4E
:10722000084B9A6810B55AB150B9EFF3108172B695
:10723000054A1C6814605C685460986001B962B6C5
:1072400010BD00BF0429002000E100E0435882B0D7
:107250003BB10023435043580193019B012002B0EE
:1072600070471846FBE70000F8B5204B4479204EE4
:1072700043F824201F4A204B06EBC4049B1A2279B2
:10728000DB081B0432B143F002001C49FFF7DCFBB2
:107290000820F8BD02680C88C2F8084590F904502F
:1072A0008A7804795201002DD2B219DB14494F19A2
:1072B00087F8002301226D0904F01F0402FA04F488
:1072C00041F82540427906EBC201012446F832001C
:1072D0000C7143F003000B49FFF7B6FB0020D8E721
:1072E000094904F00F040A55ECE700BF18290020F3
:1072F0001029002058E6020090E60200A8E80200EB
:1073000000E100E0CAE8020014ED00E00368012299
:107310001A607047036801225A60704773B501F123
:107320005005AD000068ADB24FF480348C400026AB
:10733000C0F80843C0F84843465101F5A8714559C3
:10734000019522F07F42019D40F82120C0F844437E
:107350000BB1C0F8044302B070BD00002DE9F74F37
:107360000D4622F07F4402684FF4803705F1500645
:107370008F408046B60002EB8500C2F84873B6B273
:10738000C2F80873D2F8041599464FF0000BD0F8F4
:107390004035C0F8401542F806B05B1A9259009289
:1073A00023F07F43012B009A4FEA850A0CD1264B2C
:1073B0004FF4806043F001039847D8F8003043F859
:1073C00006B09B590193019BD8F80010D1F80465D1
:1073D000C1F84473A31B23F07F43012B1CD11A4B2C
:1073E00005F5A875013443F0010341F825404FF439
:1073F00080609847D8F80030D3F804359E4209D110
:10740000D8F800300020C3F84473C3F8047303B005
:10741000BDE8F08F0D20FAE78A44C9F1FF13CAF8DE
:107420004045D1F80405221A013A22F07F4203F5C3
:107430007F439342EED3002AE2D10134CAF840459B
:10744000D1F804359842DAE7E0E802000368022246
:10745000C3F8442309B1C3F80423704700684FF40C
:107460008271FFF7F3BE4FF4803303FA01F1036832
:10747000C3F84813C3F808137047503189000068F7
:1074800089B2FFF7E3BE0368D3F804057047000034
:1074900090F90430002B09DB5A09012103F01F0386
:1074A00001FA03F34032024941F82230704700BF2D
:1074B00000E100E0024B034A1B681068184700BF58
:1074C000182900201029002070B5064D064600241A
:1074D00055F8043B0BB1304698470134042CF7D1E2
:1074E00070BD00BF282900204388033300EB8303CD
:1074F00099420BD382884FF6FF739A4208D00388D3
:1075000033B18068431C584258417047022070478D
:1075100001207047033080B240F2FE33984230B50C
:107520001FD8134B1A783AB91C895D892C4404443E
:10753000A4B2B4F5806F0AD91A7DAAB99A8BDC8BF4
:107540002244024492B2B2F5806F0DD801220A8023
:107550001446142202FB04335A8910445881002037
:1075600030BD48F20860FBE748F20660F8E700BF6C
:107570005C2900200B4A0C495388142000FB03119E
:10758000CB6833B90420496810700122074801F024
:10759000EDB807490523137002238B800122096887
:1075A0000023F3E7402900205C290020502200201E
:1075B0009829002007B5002305490093054A09686A
:1075C0000548082301F038F803B05DF804FB00BF5C
:1075D00098290020F4E802005022002007B500237B
:1075E00001460093034A0448082301F025F803B03C
:1075F0005DF804FBECE802005022002013B50023E4
:107600000C4600930146084A0848042301F014F888
:1076100038B9074B142101FB043101230B7402B06C
:1076200010BD48F20D60FAE7E8E8020050220020A1
:107630005C29002037B50A480A4B42689C881968C3
:1076400053880325033305709BB2002000909B00F4
:1076500001EB8401044800F0EFFF03B030BD00BF30
:1076600040290020982900205022002010B5014612
:10767000044800F086FC1C220446002106F027FC8A
:10768000204610BD8429002038B5144B14220D4625
:1076900002FB00302B68446804F58051A3B15C887C
:1076A000033403EB84048C4215D22368013312D0D7
:1076B0002046FFF719FF012808D002280BD0002828
:1076C000F1D12C60012038BD0834ECE76388033326
:1076D00004EB8304E7E70020F5E700BF5C29002006
:1076E000426873B504460D466AB3234BD9688A4293
:1076F00029D31B699A4226D812F0030323D11F49CC
:107700000089098988421ED12068916888421AD16F
:107710001B4841688A4203D901F580518A420DD342
:1077200081698A420CD901F580518A4208D201222E
:107730002A80B3FA83F0400902B070BD1A46F7E719
:1077400048F20963F5E700262E800196288801A9F2
:10775000FFF79AFF30B92B8801339BB2012B2B80A6
:10776000F3D9E9E7019B226899689142EED1636001
:10777000024B1B892381DFE7502200204029002093
:107780005C2900202DE9F8431C461D4B1B7806465A
:107790000F46154673B382B37CB3DFF86C804FF0AD
:1077A0001409A388012B02D948F2096020E009FBE3
:1077B00003F318F803302BB9A0882146FFF764FFC4
:1077C00020B92060A3880133A380EAE723681EB1B3
:1077D000998832889142EFD11FB119883A88914235
:1077E000EAD19A68C5E90023064B1B892B8100204A
:1077F000BDE8F88348F20160FAE748F20460F7E771
:1078000038290020402900205C29002008B5074BBA
:107810005888191DFFF738FF18B1BDE80840FFF779
:1078200009BFBDE80840FFF7A5BE00BF4029002002
:107830002DE9F0479F4FDFF8A08288B006463B68ED
:1078400023B99D48414600F0D6FB38603D68297851
:107850004B1E052B07D8DFE813F0200074007400DE
:10786000060106015D0148F20E641422002103A8FE
:1078700006F02DFB41F61D539C4208BF00243B68D7
:1078800004941A78023A042A00F2FC81DFE812F02C
:10789000DD01E9010B0213021A022EB1874B00220F
:1078A0005A604FF40644E0E72B79032B1CD8DFE83D
:1078B00003F014022A35824A1378022B1AD0137D62
:1078C000022B4FF0010317D114214B43D118002094
:1078D000D0544868FFF782FE03E001232B71FFF7C5
:1078E00069FE002800F0B980744B00225A6048F20B
:1078F0000D64BAE70023E7E7704A13700023536072
:1079000041F61D54B1E76F496F48002302222B71E5
:107910008A800968012200F029FFE2E76B4B684C7E
:107920005B88684A14214B43E11800262E714D688C
:1079300010681560958848600D810221E654918099
:10794000C8E7B5F814A0AA7DDFF87491AEB1022A99
:10795000EB8806D9142101FB0A91DA1C088902443C
:107960000A81142202FB0A99C3F57F43B9F80A2061
:10797000FD331344A9F80A3093E7142303FB0A9359
:1079800018895C6804EB8004062A69D8DFE802F0F5
:10799000274E36441D5A040041F61D54AA7DEB883B
:1079A000022A06D9142101FB0A91DA1C0889024433
:1079B0000A81142202FB0A99C3F57F43B9F80A2011
:1079C000FD331344A9F80A304FE7414841490023E9
:1079D0004360AB690360FFF783FE00285BD002239E
:1079E000AB75002300930423EA182146364800F0C3
:1079F00023FE002831D048F20D64CFE72B69002B1D
:107A000014BF03230123AB750023009305F10C027F
:107A1000042304F10801E9E70123AB750022EB8898
:107A200000922A699B0004F10C01DFE703290CBFD7
:107A300005230623AB7500230093042305F10802F8
:107A4000E118D3E70623AB75224B1988204B586801
:107A5000FFF7D4FD04460028A0D108B0BDE8F087A8
:107A600048F20E649AE7002E7FF41BAF2B79012BAE
:107A700034D0022B3FF444AF002B7FF4F4AE02234A
:107A80002B710DF10A01EB68039303A8CDE904669D
:107A9000FFF726FE10B948F20964E6E60498BDF83F
:107AA0000A108388EB8003882B81FFF7A7FD04462B
:107AB00029E000BF5829002084290020382900200F
:107AC0005C29002098290020502200204029002015
:107AD0001C290020A029002050290020DFF8009256
:107AE00003AA4B463146A81DFFF74CFE044670B969
:107AF000B9F804100498FFF781FD044648F20963C1
:107B00009C423FF4FDAE002C7FF4AFAEA5E7C9E97F
:107B10000066F3E7002E7FF4C4AE6C4B1A7BBAB15B
:107B20001E731A78013A062A3FF69DAE01A151F85C
:107B300022F000BFDF7B0200057C0200237C0200F4
:107B4000297C0200677802002F7C0200417C020041
:107B50001A78072AE5D801A151F822F07D7B0200AE
:107B6000237B0200237B0200A37B0200B77B020081
:107B7000DB7B0200DB7B02009F7B02001A895449F9
:107B800001321A8100225A801A730A78B2FA82F2FC
:107B900052099A720A7DB2FA82F25209DA7201220D
:107BA00007E04C4958688A884088033202448A803A
:107BB00002221A70B5E75C88454A4649142505FB40
:107BC00004220868546850608888108102200C6084
:107BD0008880002111740622EBE70722E9E79A7AF0
:107BE00032B9DA7A8AB900221A705A805A6087E666
:107BF000374900229A72CA68002AF2D1097C00290A
:107C0000EFD05A80FFF702FE51E70022DA72304AC5
:107C1000116A0029E7D192F82420002AE3D001223A
:107C2000EFE7FFF707FD42E7FFF7A4FC3FE75A88BD
:107C3000274B142101FB02335868FFF7CFFC36E7CE
:107C400000225A60FFF7B6FC31E701228DF80C20C4
:107C50001A89ADF818209A88DB68ADF81A200593C8
:107C600010E002228DF80C201A89ADF818209A88AD
:107C7000ADF81A20DA689B7D05929A1F5342534152
:107C80008DF81C3003A8FFF71FFC00264146124860
:107C90003E6000F0DBF91148012100F091FA002864
:107CA0007FF4CDADD9E603228DF80C20DA88ADF84B
:107CB00018201A89D0E704228DF80C20DB88ADF853
:107CC0001830DFE705238DF80C30DBE74029002072
:107CD0005C29002098290020842900209429002074
:107CE000A42900204068FFF7A3BD000008B505489F
:107CF000012100F04DFA18B9BDE80840FFF798BD22
:107D000008BD00BF942900202DE9F3419846374B68
:107D10001B7806460D46002B5CD000295DD00988F3
:107D20004FF6FF7399425BD06B88002B58D06B687D
:107D30009B0758D14AB92F890DF102013846FFF748
:107D4000E9FB30B102B0BDE8F08113885788ADF887
:107D5000023001A8FFF78AFC044660B9BDF8022092
:107D6000234B142101FB023358890338C01B58816F
:107D700048F20760E6E780F8008000238375BDF8CD
:107D8000023083826B68036101211A4800F00CFA0B
:107D90002B882381B8F1030F6B88A38004BF0423D1
:107DA000A3754FF0000508BF3368E06008BFA3610A
:107DB0001148E780658101A900F00DF936B1E3684B
:107DC00033600E4B75601B89B5723381FFF78EFFF0
:107DD0000020B7E748F20160B4E748F20460B1E779
:107DE00048F20360AEE748F20260ABE738290020B2
:107DF0005C290020542900208429002040290020EB
:107E000073B50D460446C8B1C1B10DF10601FFF7C7
:107E100067FCB0B1BDF806300B486668142202FB5F
:107E2000030001210C3000F0BFF963682E600C33B1
:107E30006B600123A372002002B070BD48F20460A1
:107E4000FAE748F20960F7E75C29002013B5044619
:107E5000A8B10DF10601FFF743FC98B1BDF806206B
:107E60000B4B142101FB0233DA6872B1A27A62B1C2
:107E7000DA680020013ADA60A07202B010BD48F260
:107E80000460FAE748F20960F7E748F20560F4E7B2
:107E90005C29002002230022FFF736BF18B103231C
:107EA0000022FFF731BF48F204607047114B1B7886
:107EB00013B50446ABB14FF6FF73984214D001A836
:107EC000FFF7D4FB98B10523037001230371C4802D
:107ED00001A9094800F07FF8FFF708FF002002B071
:107EE00010BD48F20160FAE748F20360F7E748F294
:107EF0000760F4E7382900208429002007B5ADF891
:107F00000600ADF804100DF1060001A9FFF73AFCD8
:107F100003B05DF804FB07B51346ADF806000A464A
:107F200000200DF10601FFF72DFC03B05DF804FB06
:107F300007B51346ADF806000A460DF1060000210C
:107F4000FFF720FC03B05DF804FB20B119B1036812
:107F50000B600020704748F20460704710B561B1B3
:107F6000B2FBF3F403FB1424A4B244B9C0E9001437
:107F700084608281C381204610BD0E20FCE7092069
:107F8000FAE737B550E8013F9DB2C489254484899A
:107F9000A54228BF2D1B0489A54202BFBFF32F8F26
:107FA000002207E0C5EA030540E80154002CE9D1AE
:107FB0004FF001028DF803200193019A0A609DF8A9
:107FC000031001F0FF0321B1006810FA82F003B042
:107FD00030BD1846FBE70A884B889A4209D150E821
:107FE000012FC2EA024240E80123002BF7D1012011
:107FF00070470020704737B550E8023F1FFAA3F5DD
:10800000C488A54202BFBFF32F8F00220DE0C489B0
:1080100025448489A54228BF2D1BC3EA054540E8B5
:108020000254002CE8D14FF001028DF80320019397
:10803000019A0A609DF8031001F0FF0321B1006866
:1080400000EB124003B030BD1846FBE70A884B88AE
:108050009A4209D150E8022FC2EA224240E80223A4
:10806000002BF7D1012070470020704701F01F025C
:108070004B090121914000EB830000F065B84B09EA
:1080800010B501F01F040121A14000EB830000F0B6
:108090004FF8E04000F0010010BD01F01F03012285
:1080A0009A404B0900EB8300D14300F065B84B09BF
:1080B00001F01F0150F82300C84000F00100704794
:1080C0002DE9F0474F1E7F0980460E4601370025F7
:1080D00058F8254008EB8509E44394FAA4F4B4FA6F
:1080E00084F44FEA451A202C06D10135AF42EFD86F
:1080F00034462046BDE8F0875444A642F5D92146CF
:108100004046FFF7BCFF0028F3D0D9F80040E44315
:1081100094FAA4F4B4FA84F4E5E710B5034653E8FE
:10812000000F0A4643E8002494F0000FF7D110BD79
:1081300010B5034653E8000F40EA010243E800246B
:1081400094F0000FF6D110BD10B5034653E8002F90
:1081500042EA010043E8000494F0000FF6D110BD9C
:1081600010B5034653E8000F00EA010243E800247B
:1081700094F0000FF6D110BD10B5034653E8002F60
:1081800002EA010043E8000494F0000FF6D110BDAC
:1081900010B5034653E8000F00EB010243E800244A
:1081A00094F0000FF6D110BD10B5034653E8002F30
:1081B00002EB010043E8000494F0000FF6D110BD7B
:1081C00010B5034653E8002FA2EB010043E800047A
:1081D00094F0000FF6D110BD0121FFF7B5BF0021CB
:1081E000FFF7BEBF10B590B1D0E9012301689B1A1B
:1081F000DBB20A60013BDBB2FF2B026802D1002038
:10820000107110BD11684C1C14600B70F2E70E2049
:10821000F7E737B5054600240DF107008DF8074054
:10822000FEF7DAFF2A686B68116899420ED9481E7A
:10823000106011F8013CEC68298A01FB0344AB682B
:1082400011791B1ADBB2994238BF13719DF80700F0
:10825000FEF7E6FF204603B030BD37B505460023E4
:108260000DF107000C468DF80730FEF7B5FF2A68C0
:108270001368591C1160E968641A298AB4FBF1F487
:108280001C709DF80700FEF7CBFF03B030BD82687D
:1082900010B504462AB14369016800699847002374
:1082A000A36010BD0EB403B5039921B104AB01AABC
:1082B000019300F077F802B05DF804EB03B070476B
:1082C0000A2938B504460D4602D10D21FFF7F8FF03
:1082D000A3682268591CA160D554D4E901329A429E
:1082E00004D32046BDE83840FFF7D1BF38BD0000B9
:1082F0002DE9F84F9846DDE90A43154682460F46B8
:108300000A464FF00109AA420FD2C14538BFC14603
:1083100013F0010B01D16CB900240126B8F1010F53
:108320001BD908F1FF386E43F8E709F10109B2FBE8
:10833000F5F2E8E79B070ED5B8F1000F0CBF302629
:108340002026A145E9D2013C31465046FFF7B8FF4F
:10835000002CF6D1E0E72026F3E7B7FBF6F39D42C9
:10836000E1D9DFF83C80B7FBF6F3504618F803106C
:1083700006FB1377FFF7A4FF3346AB42B6FBF5F6D7
:10838000F1D2BBF1000F02D00CB1A14501D3BDE881
:10839000F88F20215046013CFFF792FFF4E700BF21
:1083A000FCE802002DE9F74F0546174688460029EC
:1083B00000F03E8118F8011B49B92B7B002B00F01F
:1083C0003781284603B0BDE8F04FFFF760BF25298D
:1083D00040F0B780002698F800302D2B424608F177
:1083E000010823D0302B24D02B2B25D000242A2B7E
:1083F00002F1010123D13B681A1D1B683A601C443D
:108400000A4613782E2B26D101324FF0000A10466F
:1084100010F8011BA1F1300CBCF1090F1DD80A2383
:1084200003FB0A13A3F1300A0246F0E746F0010607
:10843000D1E746F00206CEE746F00406CBE711F896
:10844000013CA3F130000928DBD80A2202FB0434E6
:10845000303C0A46CBE74FF0000A12F8011B01F04E
:10846000FB0068289046F8D0782909D86F290CD8E5
:10847000632962D022D8252963D0582900F088804A
:1084800098F80030002B95D197E770390829F7D874
:1084900001A353F821F000BF0B8602008184020083
:1084A00081840200A1850200818402007F85020090
:1084B000818402008184020091850200642901D038
:1084C0006929DDD13A68D2F80090111D89EAE97274
:1084D0003960A2EBE9724FF0010B092A35DCD34574
:1084E00038BFD3462CB1B9F1000F01DB720700D5BC
:1084F000013CB30702D5BAF1000F03D0F00701D455
:108500004CBB0024B9F1000F2DDAC9F100092D216F
:108510002846FFF7D5FE06F00302022A04D1BAF17D
:10852000000F01D11CBB0024CDE9004653460A22AE
:1085300049462846FFF7DCFEA2E73B681A1D19787A
:108540003A602846FFF7BCFE9AE70A230BF1010BBD
:10855000B2FBF3F2C1E7A345D4D220212846013C67
:10856000FFF7AEFECCE77107D5D52B21D0E7A345A9
:10857000DAD230212846013CFFF7A2FED2E7396863
:10858000CDE900460A1D3A6053460A220968D0E741
:1085900039680A1D3A60CDE9004653461022F5E7D6
:1085A0003B681A1D3A6016F00106D3F8009024D1FA
:1085B000B9F1000F03D0484605F0DEFC0646B44290
:1085C0001DD809F1FF3919F8011F00293FF458AFF0
:1085D0002846FFF775FEF6E728460136FFF770FEDE
:1085E00019F806100029F7D1A642BFF449AF20219F
:1085F0002846013CFFF764FEF6E70026F0E720215D
:108600002846013CFFF75CFED9E73B681A1D3A603B
:10861000302128461C68FFF753FE78212846FFF7D3
:108620004FFE00220823CDE900322146102280E7C8
:1086300003B0BDE8F08F00BF2DE9F743DDF82880D7
:1086400088B93E4B3E483F4AC01AC0080E243E4BF4
:10865000009400043D4940F00100FEF70CFA20466A
:1086600003B0BDE8F0834AB9344B3548384AC01AE4
:10867000C0080E24344B00940004EBE7D0F800E06F
:10868000BEF1000F09D12D4B2D48324AC01AC00847
:1086900008242D4B00940004DCE74BB9274B2848F5
:1086A0002D4AC01AC0080924274B00940004D1E7C2
:1086B0004568D5F80490B3FBF9F509FB15354DB1C4
:1086C0001E4B1F48254AC01AC00809241E4B00949F
:1086D0000004BFE78D0709D0184B1948204AC01A7B
:1086E000C0081024184B00940004B3E712F0030FE5
:1086F00009D0124B12481B4AC01AC0081024124B52
:1087000000940004A6E7C568A9420DD34D1EEC18DD
:108710000569AC4208D8CDF82880DEF80C40A446A4
:1087200003B0BDE8F0436047044B05480E4AC01A49
:10873000C0081024044B009400048BE758E60200A4
:10874000A8E602000CE90200B5EA020011E9020005
:108750008EE902003AE902004DE9020094E90200C4
:10876000BEE90200D6E90200F9E90200F7B580B9D6
:108770002A4B2B482B4AC01AC0080E242A4B0094BF
:1087800000042A4940F00100FEF775F9204603B0C5
:10879000F0BDD0F800C0BCF1000F09D11F4B20483C
:1087A000234AC01AC00808241F4B00940004E8E7BD
:1087B0004AB91A4B1A481F4AC01AC00809241A4B52
:1087C00000940004DDE74568D5F800E00EF1FF35C0
:1087D0000D4209D0114B1248174AC01AC008102484
:1087E000114B00940004CCE7C568A9420CD34D1E80
:1087F0000EFB02540569AC4206D8DCF81040A446D2
:1088000003B0BDE8F0406047044B05480B4AC01A6E
:10881000C0081024044B00940004B2E758E602009C
:10882000A8E602000CE90200A2EA020011E9020037
:108830003AE902004DE9020020EA020046EA02009D
:1088400029DF704728DF704770B503689E6886B0DF
:1088500004460D466EB114220021684605F037FB30
:10886000A3680593237901952BB1012B0DD06846A0
:10887000B04706B070BD01238DF800302369029324
:10888000E368039363690493F1E702238DF80030F2
:10889000E3681B030293F5E7034B187A0122B0FA51
:1088A00080F05A7440097047BC29002038B5234D28
:1088B000234C2B7A3BB923492348FFF79CFB2060CC
:1088C00008B9686038BD022324682B72237973B11C
:1088D000012B24D020460321FFF7B6FF00232B7283
:1088E0006B6018491848BDE83840FFF7AFBBD4E9C2
:1088F0000523D21AB2F5805FD4E9031028BF4FF4E4
:1089000080529208012A38BF012219441844FFF707
:1089100097FF50B11128DDD101232B72D2E7D4E9A2
:1089200003031844FFF78EFFF3E72B7C002BC9D11C
:10893000BDE83840022000F009B800BFBC29002083
:10894000D4290020D0290020AC29002038B5234CA0
:10895000237A002B41D0022B09D1032830D0204BA1
:1089600000221B68E2601A793AB1012A22D0637CA6
:108970007BBBBDE83840FFF799BFD3E905128D1ADC
:10898000B5F5805F94BF521902F580529A61914209
:10899000EDD102284FF0000308BF19462372104B97
:1089A00018BF0D211868FFF74FFF0E490E48FFF75B
:1089B0004DFBDCE71A6901321A615B699A42E7E70D
:1089C000E3680133082B01D8E360D0E70023E360BC
:1089D000DFE7BDE8384004F0B9BF38BDBC2900204E
:1089E000D4290020D0290020AC290020831E012B8F
:1089F00001D8FFF7ABBF704700F0FD03012B08D192
:108A0000044B00225A74421E504250411874FFF722
:108A10004DBF7047BC2900202DE9F84FB0F806A0E3
:108A20004579D2F800B09DF828900AFB05F5043D81
:108A300088460BEB0301A94203F1040488BFA5EBB0
:108A4000030BB4FBFAF607460AFB1644C2F800B063
:108A50004EB9AAEB04055D4528BF5D46BBF1000F8A
:108A600004D1BDE8F88F3F68013EF1E7043408EB1C
:108A700006003C442A46B9F1000F0DD02146ABEB6D
:108A8000050B05F0FBF9DA452E443F6855464FF0DB
:108A9000000428BF5D46E1E701462046EFE7FFF707
:108AA000A1BBF8B546790146721E054600239342E4
:108AB0002D6803D30024A64202D8F8BD0133F6E79F
:108AC0000F682846FFF7C9FB01343946F3E72DE963
:108AD000F843068ACD1C0746FFF79BFB043E35444E
:108AE0000446B5FBF6F5F0B14FF48073EDB2838028
:108AF000C680013D076081464FF00008A84512D2AC
:108B00003846FFF786FB064648B163790133637147
:108B100008F10108C9F8000007608146EEE7204629
:108B2000FFF7BFFF34462046BDE8F883012104303B
:108B3000FFF73ABB10B5012104460430FFF740FBB4
:108B4000C0B220B92046BDE81040FFF7AABF10BD53
:108B50001FB503920022009203AAFFF75DFF05B044
:108B60005DF804FB1FB503920122009203AAFFF7F0
:108B700053FF05B05DF804FB41DF7047064B10B5AD
:108B800000241C70054B1C60BFF35F8F044905482F
:108B900000F03BF8204610BDE0290020E429002029
:108BA000D4EA0200D829002007B500230DF1070000
:108BB0008DF80730FEF710FBF1EE103A23F09F031B
:108BC000E1EE103ABFF35F8F0A4B4022C3F88421D5
:108BD0009DF80700FEF724FB04F0C8FE20B103B0A7
:108BE0005DF804EBFFF7C8BF20BF40BF20BF03B054
:108BF0005DF804FB00E100E0836800225A60C3E9ED
:108C000004229A60DA601A6070470B684A68436011
:108C1000934208BF0023016008BF43607047436868
:108C200043B10268916852680B449342436004BFA9
:108C300000234360704770B5446806460D462068BF
:108C400018B1B3682946984718B923682B60256086
:108C500070BD2468F3E74368186808B102681A60B9
:108C600070474368186870474368186800B97047D0
:108C7000884203D102681A600120704703460068E9
:108C8000F4E7000010B50D49A1F59472914201D8A6
:108C900000200FE08C1AE30F03EBE4035B1002EB00
:108CA000C30452F83330834205D802D204F10802DB
:108CB000ECE7606810BD2146E8E700BFE0EF020086
:108CC00008B5FFF7DFFF024B002808BF184608BDB4
:108CD000A3EE02004FF08053D3F83001421C04BFD2
:108CE0004FF0704393F8E00F831F5842584170478C
:108CF0004FF0704393F8E02F062A09D1D3F8E83FEC
:108D0000C3F30313033B042B02D8024AD05C704721
:108D100000207047EFEF0200024AD2F80034002B27
:108D2000FBD0704700E0014010B5FFF7D3FF40B122
:108D30004FF08053944AD3F82433C3F30423C2F88A
:108D40004035FFF7D5FF10B1904B914A5A67FFF7B6
:108D5000C1FF48B14FF080534FF08042D3F8443206
:108D6000C3F34233C2F83C35FFF7C2FF30B1894A42
:108D7000D2F8FC3023F08073C2F8FC30FFF7AAFF72
:108D800040B14FF080430022C3F80C21C3F81021FA
:108D9000C3F83825FFF7ACFF20B14FF08043032222
:108DA000C3F8A025FFF7A4FF60B17B4B0522C3F8F1
:108DB00010260122C3F888260022C3F818263F2275
:108DC000C3F814264FF08053D3F83021511C09BF4B
:108DD0004FF07043D3F8343193F8E02FD3F8E83FE5
:108DE00008BFC3F30313062A4DD1033B042B03D85A
:108DF0006A4AD35C002B46D04FF08052684BD2F8C1
:108E00000414C3F82015D2F80814C3F82415D2F8B6
:108E10000C14C3F82815D2F81014C3F82C15D2F886
:108E20001414C3F83015D2F81814C3F83415D2F856
:108E30001C14C3F84015D2F82014C3F84415D2F816
:108E40002414C3F84815D2F82814C3F84C15D2F8E6
:108E50002C14C3F85015D2F83014C3F85415D2F8B6
:108E60003414C3F86015D2F83814C3F86415D2F876
:108E70003C14C3F86815D2F84014C3F86C15D2F846
:108E80004424C3F87025FFF725FF48B14FF0805305
:108E90004FF08042D3F8583203F04F03C2F8E43E5B
:108EA000FFF718FF48B14FF08043D3F80024D207F2
:108EB00044BF6FF00102C3F800244FF08053D3F891
:108EC0003021062A0ED1D3F83431033B042B02D8CB
:108ED000344AD35C33B1344AD2F83C3743F480632C
:108EE000C2F83C372B4AD2F8883043F47003C2F8FA
:108EF0008830BFF34F8FBFF36F8F4FF08053D3F89D
:108F00003021062A0FD1D3F83431033B042B02D889
:108F1000264AD35C3BB14FF01023D3F808224FF020
:108F20008043C3F858254FF01023D3F80022002ABD
:108F300003DBD3F80432002B22DA1D4901234FF062
:108F40001020C1F804351524FFF7E6FEC0F80042F2
:108F5000FFF7E2FEC0F80442FFF7DEFE0023C1F88F
:108F60000435FFF7D9FEBFF34F8F0A49114BCA688A
:108F700002F4E0621343CB60BFF34F8F00BFFDE705
:108F80000D4B0E4A1A6010BD0030014000C0074072
:108F90000DF0ADBA00ED00E000500040E0EF02003F
:108FA00000C00040E5EF020000100040EAEF0200C0
:108FB00000E001400400FA05882200200090D00360
:108FC00038B5074C051E04F1080318BF1C4623687A
:108FD0002BB11A6822605B6828469847F7E738BDCE
:108FE000F029002020B9054B01225A70FFF7E8BF95
:108FF000012802D1014A9070F8E77047E829002063
:1090000020B9034B01225A70FFF7DABF704700BF47
:10901000E829002038B50E4C2378B3B90D486360B9
:10902000A3602361E36000F0E7F8054604F09EFCCE
:1090300008B900F0EDF801232370074BD3F8003492
:109040000BB10123A370284638BD8525F5E700BF85
:10905000E8290020E58F02000000014037B50D4CE3
:1090600000230DF107008DF80730FEF7B5F8E3682F
:10907000013BE360E36833B9074BD3F8005415B9FB
:1090800000F0D8F8A5709DF80700FEF7C9F803B006
:1090900030BD00BFE829002000000140012813B5C1
:1090A0000CD0032820D038B9134B0122C3F88020FC
:1090B000BFF34F8FBFF36F8F02B010BD0F4C002373
:1090C0000DF107008DF80730FEF786F823780BB90D
:1090D000FFF7A0FFE3689DF807000133E360012379
:1090E000A370FEF79DF8E7E700F092F802B0BDE844
:1090F0001040FFF7B3BF00BF00E100E0E829002007
:109100001FB503788DF800304368019383688DF8AC
:109110000830C368054A0393054B684653F821306D
:1091200052F82110984705B05DF804FBFC29002097
:10913000002A00201FB503788DF8003043680193A2
:1091400083688DF80830C368054A0393054B684669
:1091500053F8213052F82110984705B05DF804FB10
:10916000FC290020002A0020F0B5194B90F800C01F
:1091700091F81DE043F82C20164B16460A6943F877
:109180002C20154B03F80CE00C4607460FCC89B099
:109190006D460FC594E80F0085E80F00CDF810C0AC
:1091A000BEF1000F09D0002E0C4A694608BF3246B6
:1091B000381D00F06BFC09B0F0BD002E084A69466E
:1091C00008BF324607F10C0000F042FAF3E700BF97
:1091D000002A0020FC290020042A0020019102001E
:1091E0003591020000F18040002382B003600368E3
:1091F0000193019B02B07047044A137923B90121FE
:10920000106091801846704785207047082A00201A
:10921000074B1A68D20704D4C02283F80023012226
:109220001A604FF080430122C3F81825704700BF31
:1092300000E100E04FF0804208B50223C2F8083395
:109240004FF48270FFF7CEFF0123D360D2F81834B9
:10925000DB03FBD408BD00004FF0804110B5D1F80E
:10926000003163B14FF48070FFF7BCFF0D4B5879AC
:109270000122C1F8082310B95A711B6898474FF0B2
:109280008042D2F8043163B14FF48270FFF7AAFF35
:109290000223C2F80833034BBDE810401B680120CD
:1092A000184710BD082A002000F1804000F5C0409A
:1092B000002382B0036003680193019B02B07047F2
:1092C000800000F1A040D0F8002722F44032C0F81E
:1092D0000027D0F8003743EA0141C0F80017704773
:1092E0002DE9F74F00244E4D01944FF48072012177
:1092F00002F1804303F5C04390B21B68012B06D1F5
:10930000D5F804330B4202D0FFF7CEFF0C430432F2
:10931000B2F5907F4FEA4101EAD1414BD3F87C315D
:10932000012B0CD14FF4BE70FFF7BEFF4FF0A043EE
:1093300044F00044D3F820250192C3F82025E3B27D
:10934000D3B1384F00250126344210D0AB0003F1D1
:10935000804303F5C043D3F81005D3F8101557F830
:10936000253023B1C1F30141C0F3042098470135F2
:10937000082D4FEA4606E7D1002C48DA294D4FF078
:10938000A048294E4FF00009012716F9013B5A1C4D
:1093900031D0C3F3C20208326A44DCB212F8042CA2
:1093A00003F03F0A03F0070307FA03F31A4222D03F
:1093B0000AF5E073504658F82330C3F3014BBBF174
:1093C000020F0CBF03210221FFF77AFF07FA0AF30D
:1093D000C8F8203505EB0A0393F9303055F82330EF
:1093E0004BB1A109032904D0BBF1020F12D101290D
:1093F00001D15046984709F10109B9F1040FC4D1D0
:10940000D8F820350193C8F82035002BB9D103B026
:10941000BDE8F08FBBF1030FEDD10229E8E700BFF3
:1094200000600040102A0020602A0020014B1B68C9
:10943000184700BF6C2A00200E4B984237B50C46E7
:1094400002D0002003B030BD00230DF107008DF8DD
:109450000730FDF7C1FE084B1D7915B901221C60CC
:109460001A719DF80700FDF7DBFE002DE9D01120F1
:10947000E8E700BF002000406C2A0020034B984220
:1094800001BF034B00221A601A7170470020004090
:109490006C2A00200023435082B043580193019B63
:1094A00002B070470A4610B54FF48E71FFF7F2FF15
:1094B000136A9168C95C136A01331362C0F81C1502
:1094C00010BD8B690A4610B54FF4847123B9FFF7BC
:1094D000E1FFD0F8183510BDFFF7DCFF536AD16803
:1094E000D0F81805C854536A01335362F3E70000FB
:1094F0001FB501238DF80030044BCDE90110D3E9ED
:1095000000126846904705B05DF804FB742A0020FD
:1095100030B54D4DD5F804339A0585B051D5D5F801
:109520002431002B4DD04FF492712846FFF7B2FF43
:109530004FF40173C5F80833444B93F829200AB956
:1095400001226A60404902228DF80020D1F880246F
:10955000C1F8802403929A690292DA68019200228B
:10956000C3E906226846D3E9001290473648D0F88E
:109570001C315BB1354A5169136A99424DD992F851
:109580002830002B49D11146FFF78CFF2E48D0F828
:109590004431002B56D04FF4A271FFF77BFF2B4BC9
:1095A00093F829200AB1012202609A69002A49D061
:1095B000586AD96800229A6105B0BDE83040FFF7CB
:1095C00097BFD5F804335B07D0D5D5F80831002B09
:1095D000CCD01E4C1C482146FFF773FF636AA2697A
:1095E0009A42C3D1E369E1684BB1A3612369E360A7
:1095F0000023606AE3616362FFF77AFFB6E794F8DD
:1096000029300BB901236B600F4B4FF40172C3F883
:1096100008230023606AA361EEE70B484FF48E71C4
:10962000FFF738FF5369002BB0D051690291002336
:1096300091688DF80030019153616846D2E90013BA
:109640009847A3E705B030BD00200040742A0020F1
:109650002DE9F843534D90F804802C2303FB085365
:10966000064693F82A300C469146002B40F096802F
:109670004D490068FFF7E0FE0746002840F0908063
:1096800022683068511C0BD04FF0A0410123934059
:10969000C1F8083502F5E0734FF0030C41F823C020
:1096A00061684B1C1FBF01F5E0734FF0A04C4FF0F9
:1096B000000E4CF823E0A369C0F8243594F814C0D8
:1096C000637DBCF1010F4CEA0303C0F86C35C0F8B0
:1096D0001415C0F80C251DD1A268531C1FBF02F53C
:1096E000E0734FF0A0414FF0000C41F823C0E36855
:1096F000591C0BD04FF0A04C01219940CCF8081513
:1097000003F5E0714FF0030E4CF821E0C0F8083586
:10971000C0F810252C2202FB08F2AB18C3F8049005
:109720002369AB50B9F1000F20D04FF48E71247F24
:10973000FFF7B0FE4FF4A2713068FFF7ABFE32685E
:109740001A4BC2F80433130B42F307326101002AAB
:10975000C9B21EDB1648841884F80013012152098F
:1097600003F01F0301FA03F340F8223033680422A8
:10977000C3F800252C2303FB08530022C3E906226B
:1097800083F829205A61012283F82A203846BDE84F
:10979000F883084A03F00F03D154E7E70827F5E7F9
:1097A0001127F3E7742A00201195020080000200BF
:1097B00000E100E014ED00E0F8B503680579304CF5
:1097C0000022C3F800252C2202FB05425268A2B1F8
:1097D0002C4AC3F808231A0B43F30733002B0CDB86
:1097E00002F01F015B0901228A402033264941F81B
:1097F0002320BFF34F8FBFF36F8F0068D0F80C6545
:10980000D0F81415D0F80835D0F810254FF0FF37F0
:10981000BE42C0F8147518BF06F5E076C0F80C75A6
:10982000C0F80875C0F810751EBF4FF0A0474FF084
:10983000020C47F826C04E1C1FBF4FF0A04601F592
:10984000E071022746F82170511C1FBF4FF0A04164
:1098500002F5E072022641F822605A1C1FBF03F590
:10986000E0734FF0A042022142F82310FFF706FEFA
:109870002C2303FB0544002384F82A306360F8BDE1
:10988000742A00208402020000E100E00279044B07
:109890002C2101FB02335869003818BF01207047A2
:1098A000742A00202DE9F84F064690F80480894676
:1098B0009246FFF7EBFF044600283CD1204F2C25B1
:1098C00008FB057B4FF48E71CBF814A0CBF8089001
:1098D000CBF820008BF828003068FFF7DBFD3068FC
:1098E000012383605946FFF7DDFDDBF804305D4658
:1098F0001BBB3068DBF814402B6A9C4211D83368DC
:10990000D3F81C21002AFBD00122DA6000202C238E
:1099100003FB087700237B61BDE8F88F95F82830BA
:109920003BB9D0F81C31002BF8D05946FFF7BAFDEF
:10993000E2E70F20EBE71120EEE72046ECE700BF5F
:10994000742A00200023435082B043580193019BA6
:1099500002B070471FB501238DF80030044BCDE9EC
:109960000110D3E900126846904705B05DF804FB8A
:10997000A02A00207FB5434AD2F82461002E60D08F
:1099800010464FF49271FFF7DDFF02238DF800308F
:10999000D2F88034C2F880340393D2F83C35029375
:1099A000394BDA6801920022C3E906226846D3E9FE
:1099B000001290473348D0F8443173B14FF4A2718C
:1099C000FFF7C0FF304B9A693AB10022C3E9062283
:1099D000D968D0F83C05FFF7BDFF2A48D0F8203100
:1099E000ABB14FF49071FFF7ADFF0123C360264B7D
:1099F0005A6962B1D0F84C150291002299688DF82D
:109A0000002001915A616846D3E9001290471D4831
:109A1000D0F858319BB14FF4AC71FFF793FF1A4B5C
:109A20005A6962B1D0F84C150291002299688DF8FC
:109A3000002001915A616846D3E90012904704B0B2
:109A400070BDD2F81031002BB4D04FF4887110469D
:109A5000FFF778FF0C4BD2F83C0599698842A9D1F1
:109A6000DC69D96864B1D2F8005225F02005C2F84B
:109A700000521A699C61DA60DE61FFF76BFF99E7BB
:109A80009C61FAE700200040A02A00202DE9F8435D
:109A90005A4E90F80480242303FB0863044693F88D
:109AA00020300D469146002B40F0A38054490068B9
:109AB000FFF7C2FC0746002840F09D802A68206816
:109AC000511C0BD04FF0A04101239340C1F8083541
:109AD00002F5E0734FF0030C41F823C069684B1C9A
:109AE0001FBF01F5E0734FF0A04C4FF0000E4CF893
:109AF00023E0AB69C0F8243595F814C06B7DBCF148
:109B0000010F4CEA0303C0F86C35C0F80C25C0F80F
:109B100014151DD1AA68531C1FBF02F5E0734FF046
:109B2000A0414FF0000C41F823C0EB68591C0BD04A
:109B30004FF0A04C01219940CCF8081503F5E071D5
:109B40004FF0030E4CF821E0C0F80835C0F810259E
:109B5000242202FB08F2B318C3F804902B69B35017
:109B6000B9F1000F2FD04FF488712A7FFFF7EAFE7A
:109B700020684FF49071FFF7E5FE20684FF4927172
:109B8000FFF7E0FE20684FF4A271FFF7DBFE4FF411
:109B9000AC712068FFF7D6FE23681A49C3F8041396
:109BA000190B43F307335201002BD2B21CDB1648CA
:109BB000C51885F8002301225B0901F01F0102FA94
:109BC00001F140F8231023680822C3F8002524235C
:109BD00003FB08660023C6E906337361012386F898
:109BE00020303846BDE8F883084B01F00F015A5485
:109BF000E9E70827F5E71127F3E700BFA02A0020CF
:109C0000759902001003420000E100E014ED00E04D
:109C1000F8B5444C0579242303FB054302465B68F1
:109C20000068ABB1404BC0F8083340F30733002B5A
:109C30004FEA10310CDB01F01F065B090121B14036
:109C400020333A4E46F82310BFF34F8FBFF36F8F88
:109C5000D0F8003223F02003C0F80032242303FBA5
:109C600005439B692BB14FF4A271FFF76BFE0123F3
:109C700043604FF4AC71FFF765FE0123C3602423FA
:109C800003FB0543D0F858110029FBD0996919B19D
:109C9000D0F844110029F5D00023C0F8003513682E
:109CA000D3F80C75D3F81465D3F80825D3F810153C
:109CB0004FF0FF3C6745C3F80CC518BF07F5E077C8
:109CC000C3F814C5C3F808C5C3F810C51EBF4FF0CC
:109CD000A0434FF0020C43F827C0771C1FBF4FF082
:109CE000A04306F5E076022743F826704E1C1FBFFE
:109CF00001F5E0714FF0A043022643F82160531CA8
:109D00001FBF4FF0A04302F5E072022143F822107A
:109D1000FFF7B4FB242303FB0544002384F8203021
:109D20006360F8BDA02A00201003420000E100E0BB
:109D30000279044B242101FB02335869003818BF13
:109D400001207047A02A002001F06043B3F1005FBA
:109D50002DE9F0470646884692463BD190F804909C
:109D6000FFF7E6FF0446002836D11D4F3068242552
:109D700005FB09754FF49071C5F814A0C5F808806B
:109D8000FFF7E0FD4FF4AC713068FFF7DBFD33689F
:109D90006A69A968C3F84415C3F8482501229A6086
:109DA0006A68DAB9D3F82021D3F858011AB9002823
:109DB000F8D00F2007E00028FBD10122DA60D3F8A9
:109DC0005821002AFBD0242303FB097700237B6161
:109DD000BDE8F0871020FBE71120F9E72046F7E700
:109DE000A02A0020032811D8012A0AD101290FD165
:109DF00000F10E02D2B20D4B00EB40001A540020CD
:109E000070470129F7D0022904D049B107207047D3
:109E10000022F8E7054B00EB400018444270EEE7E3
:109E2000024B00EB400018448270E8E7C42A00208F
:109E300008B5012202210020FFF7D4FF08B107284E
:109E400010D1072202210120FFF7CCFF08B107281B
:109E500008D100210A220846FFF7C4FF10B10728E5
:109E600008BF002008BD00000388102B10B502D0E9
:109E7000112B1ED010BD1A4C2168B1B90122084621
:109E8000FFF7B0FF08B1072824D1072202210120E3
:109E9000FFF7A8FF08B107281CD1042202210020E7
:109EA000FFF7A0FF08B1072814D12368013323600E
:109EB000E0E70B4A1368013B1360002BDAD1FFF790
:109EC000B7FF0028D6D0074B1B68002BD2D0BDE8C7
:109ED00010401847034B1B68002BE6D09847E4E777
:109EE000D42A0020D02A00207ADF70477CDF704718
:109EF000A8DF7047AADF704762DF704708B50548E2
:109F0000032100F030FD18B1BDE80840FCF71ABF8E
:109F100008BD00BFD82A00200388112B70B5044665
:109F200008D0502B0DD0102B24D11348BDE8704021
:109F300000F003BA114800F000FABDE87040FFF7E6
:109F4000DDBF0F4BC2881B889A4213D1018A0D488E
:109F50000D4E00F0D5F90025228AABB29A4201D805
:109F60000A48E3E714FA85F33046997C00F0C8F913
:109F70000135F1E770BD00BF16F0020021F00200CC
:109F80000C2F00202FF0020044F002001FF002000E
:109F9000F0B54FF48041B9B00020FCF7B7FBFCF7F7
:109FA000F3FAFCF7AFFF08B1FCF7CCFEFEF7E6FDD5
:109FB00008B1FCF7C7FE00230D9303F059FC08B16C
:109FC000FCF7C0FE0DA9012003F01EFD08B1FCF74F
:109FD000B9FE0DA803F0BAFD08B1FCF7B3FE08AD59
:109FE0005049002411230B2228468DF82030CDE95A
:109FF0000D44FFF77BFF1023ADF834302023ADF87C
:10A0000036300DA84FF4C873ADF83840ADF83A308B
:10A01000FFF76AFF4448214601F024FF08B1FCF72E
:10A0200091FE424B04AA03F11007164618685968BE
:10A03000144603C40833BB422246F7D13C4930469C
:10A04000FFF75AFF08B1FCF77DFE394C394A2378F7
:10A050008DF80A3002A941F234230120ADF808300E
:10A06000FFF746FF08B1FCF76DFE00211C220DA88A
:10A070008DF8031003F02BFF0C238DF834301123DF
:10A080008DF804308DF8053003238DF806302378E1
:10A090008DF80E3045F27863ADF80C3003AB0893C1
:10A0A00001AB0122234809934FF40073CDE90A2341
:10A0B0000DF103030C9300881F4B2A460DA9FFF7EF
:10A0C00019FF08B1FCF73EFE41F23423ADF8203011
:10A0D000002123788DF82230AC220DA803F0F7FE82
:10A0E000164B0D930123ADF844308DF8B030144871
:10A0F000129540230DA92F9300F0B8FB08B1FCF78F
:10A1000021FE0F48012100F0AEFB0E4800F015F9CA
:10A11000FFF7F4FEFCF74CFB0028FBD1FEF744FDF3
:10A12000F8E700BF4AF00200142F00207DF0020083
:10A130002A2F0020282F00200C2F002002000006CC
:10A14000D82A002056F002000369C26893429CBFDF
:10A1500080681B18013B981A70472DE9F843D0E935
:10A1600002940546A9EB04084068904520440F4638
:10A17000144404D903F082FEEC60BDE8F883424643
:10A18000A4EB090403F07AFE6868224607EB080195
:10A19000F0E72DE9F843C5680646894617464FF0B3
:10A1A00000083469B3687068A54228BFE418013C10
:10A1B000621B5C1BBC4228BF3C46944228BF14462D
:10A1C00049462844224603F059FEB3682544AB4271
:10A1D00008BF00253F1BA044A144F560E1D14046E3
:10A1E000BDE8F88310B5114C114AA2610223C4E9FD
:10A1F0000433104BE361A2644FF400730E4A0F491D
:10A200002362E26400231022E01DA3626362E36222
:10A21000A3656365E365226503F08CFE084920466B
:10A2200003F088FE2023A37110BD00BF2C2F002057
:10A230008DF00200B42F0020A42F002096F0020021
:10A240009AF0020070B5164B182400FB04451D441B
:10A2500004FB00331646DC6A012C0ED0022C18D009
:10A26000E4B92846FFF770FF864204D832462846F4
:10A27000FFF773FF3446204670BD2846FFF764FFA2
:10A280008642344628BF044622462846FFF765FF2B
:10A29000F1E72846BDE87040FFF77BBF0024EAE7FE
:10A2A0002C2F002073B50E4B1B7804460D46164626
:10A2B0000BB9FFF797FF00230DF107008DF807306A
:10A2C000FCF78AFF324629462046FFF7BBFF0446CB
:10A2D0009DF80700FCF7A4FF204602B070BD00BF48
:10A2E0002C2F002013B504460846019103F044FECC
:10A2F00001990246204602B0BDE81040FFF7D2BFE8
:10A300000FB410B5A2B024AB802153F8042B0193F5
:10A3100002A803F0A3FD802804460ADD802202A9DA
:10A320000020FFF7BFFF204622B0BDE8104004B078
:10A3300070470028F7DD0246F1E701460020FFF7ED
:10A34000D1BF6DDF704779DF70477DDF704764DF15
:10A3500070472DE9F04F85B000250E9CBDF83CB04C
:10A36000B4F800A00191074690461E46A9463A88D7
:10A370004A450DDC45B12388013BA3EB0A039BB2A0
:10A38000FF2B3AD806F80A30002005B0BDE8F08F60
:10A390007A6852F82900039000220DF10B0103A8FE
:10A3A000FFF7D5FF0028F0D19DF80B20424521D1C1
:10A3B0002288002D14BF0020022002EB0801014476
:10A3C00059451ADC3DB9013292B2019B2280B35447
:10A3D00022880132228022880DF10B01324403A829
:10A3E000FFF7B5FF0028D0D121889DF80B200A4443
:10A3F0002280012509F10109B9E70C20C5E72DE903
:10A40000F341089FBDF824801546CDE9007802226B
:10A4100004461E46FFF79DFF50B9334610222946D9
:10A420002046CDE9087802B0BDE8F041FFF791BFC2
:10A4300002B0BDE8F0812DE9F04F002317881380AA
:10A4400090F82D3085B006460D4614465BB3082FB4
:10A4500001D80C2028E102A8FFF773FF002840F084
:10A4600023812388DDF809100822EA542388013368
:10A470009BB21B222380EA54238801339BB2EA1843
:10A480002380E950BDF80D30938023889DF8082083
:10A4900006339BB212F0FE0218BF01222380EA5459
:10A4A000238801332380B378FBB123880433BB4274
:10A4B000CFD802A8FFF747FF002840F0F580238897
:10A4C0000322EA54238801339BB219222380EA54E1
:10A4D0002388BDF8082001339BB2E9182380EA5491
:10A4E000120A4A70238802332380F2789AB12388B3
:10A4F000D91CB942ADD80221E954238801339BB25B
:10A5000001212380E95423880B449BB22380EA5421
:10A5100023880B4423807268AAB12388D91CB942CE
:10A5200097D8022192F90020E954238801339BB285
:10A530000A212380E954238801339BB22380EA5403
:10A540002388013323803389002B40F0A180338A94
:10A550005BB1CDE900472B460722032106F110002D
:10A56000FFF74DFF002840F09F80338B5BB1CDE9B2
:10A5700000472B461522142106F11800FFF73FFF74
:10A58000002840F09180326A002A40F09080D6F88E
:10A590002480B8F1000F30D0B8F804302188981C1E
:10A5A0008A1C0244BA423FF654AFFE283FF651AF30
:10A5B00003336B54238801339BB2FF222380EA5478
:10A5C000238801339BB22380B8F80020EA54E918AD
:10A5D000120A4A702088023080B22080B8F8042025
:10A5E0005AB1D8F8081000296BD0284403F046FC73
:10A5F0002388B8F804201344238096F82C30002BCD
:10A6000040F09880307800284ED03388012B58D005
:10A61000228802F1020CBC453FF61BAF012805D190
:10A620007378023313449F42FFF413AF023FBF1A03
:10A63000BFB202A905EB0C00ADF80870FFF785FE6C
:10A6400090BB3178BDF80830022900F0B9807278EB
:10A650009A4202D39F4280F0B180012940F0B2803B
:10A66000974293B2C0F0AE80ADF808300821BDF833
:10A670000830FE2B3FF6EDAE22880133AB54228822
:10A68000013292B22280A9542288134423800BE025
:10A69000CDE900472B460622022106F10800FFF70C
:10A6A000AEFE00283FF453AF05B0BDE8F08FB4F81C
:10A6B00000C00CF10603BB423FF6CBAE1188052962
:10A6C00001D80720F0E76FF4486E01EB0E039BB250
:10A6D0004FF27D3E7345F4D95388052BF1D96FF4C1
:10A6E0004860181880B27045EBD94FF6FF70814270
:10A6F00001D09942E5D8052305F80C3023880133B1
:10A700009BB212212380E954238801339BB223801A
:10A710001188E954E818090A4170238802339BB272
:10A7200023805288EA54E918120A4A7023880233B7
:10A7300023802CE7B36A002BC3D04FF000084FF002
:10A740000C0A4FF0160BB16A5FFA88F20AFB02F2AC
:10A7500001EB0209B9F80430981CFE283FF679AEE7
:10A76000208803332B54238801339BB2238005F8C0
:10A7700003B0238801339BB223808A5AEA54E91834
:10A78000120A4A702088023080B22080B9F8042072
:10A790005AB1D9F80810002993D0284403F06EFB71
:10A7A0002388B9F804201344238096F82C2008F15C
:10A7B00001085FFA88F39A42C5D823E7092156E7D2
:10A7C0009F42FBD2ADF8087050E730B5C8B1F2B186
:10A7D0000024651C8D4206DA1588A54212D8051999
:10A7E0006D789D420ED1A14211D9005D48B101386A
:10A7F00080B230B10234A3B210FA84F4A14206DB75
:10A80000138030BD055D01352C44A4B2E1E7002082
:10A81000F7E713B513460022ADF806200DF1060246
:10A820000446FFF7D2FF10B1BDF80630E01802B0C1
:10A8300010BD72DF704773DF704738B501220446E0
:10A840000D46B0F81414D0F81004FFF7E2FF00B181
:10A85000057004F13C0204F5826104F15400BDE886
:10A860003840FFF7E6BF80F830107047F8B504466F
:10A870000F46002973D0002871D091F87A301BB1AF
:10A8800091F89830002B6CD1D7F8A030042B68D009
:10A89000D7F89C30042B64D04FF0000C84F802C031
:10A8A00007F178060FCE251D0FC50FCE0FC596E810
:10A8B000070085E8070084F830C0D7F8A430636348
:10A8C000D7F8A830A36304F582624FF6FF73C4F88B
:10A8D00026C4A4F82434C4F82024C4F829C4227857
:10A8E0000AB984F8543094F82430002B14BFEE23B6
:10A8F0001F2304F15501C4F81014A4F8143404F211
:10A9000014423846FFF797FD40BB94F82430002BE3
:10A9100014BFEE231F2304F23121C4F81814A4F845
:10A920001C3404F21C4207F13C00FFF784FDA8B977
:10A93000A369A4F848304FF480730125A4F850307F
:10A9400063692064014684F83C50636404F13C026E
:10A9500004F15400FFF76DFF00B92570F8BD0E201B
:10A96000FCE70720FAE7F8B5077804460D46002F04
:10A9700000F001810023C0F82634C0F82934C388D0
:10A98000817000F226460BB1012903D0E37943B16F
:10A99000022D06D1636BABB1012284F82D2408206F
:10A9A000984704F2274304F22D4113F8012B12B902
:10A9B0009942FAD117466B1E032B4ED8DFE803F0FD
:10A9C000050B0F1284F82D34EBE7A3791BB194F833
:10A9D000243003B95FB9E3790BB1002F3FD1237A5B
:10A9E000002B3ED1637A002B0CBF00250425636B3E
:10A9F000A570002B37D0033D012D34D8627992B376
:10AA000094F82E247ABB84F83024012284F82F2471
:10AA10000720984704F13C0518220021284603F03E
:10AA200056FAE26A531E0121022B28BF0A4684F817
:10AA3000512094F8242084F83C1032B1A36A581EA7
:10AA4000022828BF0B4684F85230A378042B1CD868
:10AA5000DFE803F0780D23365A000025C7E702250A
:10AA6000C5E70325C3E7002384F82F34D2E7012389
:10AA700084F831300023C4E91063C4F82034022381
:10AA800084F83C308023A4F84830A378002B5DD1B3
:10AA9000636B002B6BD1002068E00223002A84F84E
:10AAA000313014BF0723032384F83C302369A4F812
:10AAB00048300023C4F82034E36826646364E4E784
:10AAC00063696364A369A4F8483012B1062384F86B
:10AAD0003C306379B3B194F82E349BB994F8303498
:10AAE00083B1022384F8503004212046FFF7A5FEED
:10AAF0000028CAD1052384F8313004F58263C4F8F4
:10AB00002034C2E70323F6E7E3696364236AA4F809
:10AB1000483012B1062384F83C30637983B194F84D
:10AB20002E346BB994F8303453B1022384F850308A
:10AB300004212046FFF781FE0028A6D10623DAE78C
:10AB40000423D8E7002384F831309EE7D4F820149A
:10AB50002A4604F15400FFF76CFE38B994F830101F
:10AB600094F85400FFF767FE002891D0F8BD94F8E0
:10AB7000310098478FE70820F8E70388112B10B5BC
:10AB80000C460AD0262B1FD0102B05D1C37B012BDE
:10AB900002D18388A1F8243410BD0022838881F873
:10ABA0002E24B1F824249A42F6D10B79002BF3D14C
:10ABB00001212046FFF7D7FE0028EDD0A36B002B24
:10ABC000EAD0BDE810401847037A013B012BE3D8D7
:10ABD000897805230131B1FBF3F303EB8303C91A31
:10ABE000C9B2E6E7034B1A8882420CBF1846002020
:10ABF000704700BFD0310020024B9B6903B118475A
:10AC0000704700BFB431002037B50B46497A0F4A70
:10AC100079B9D2E901141D7A0246002D18BF2146E8
:10AC20005868FCF7A1F978B103B0BDE83040FFF7F0
:10AC3000E3BF00211972536933B10122ADF8060058
:10AC40008DF8042001A8984703B030BDB43100202E
:10AC50004B8802889A4212D842889A420FD3808841
:10AC60008B8840F2F311884294BF021A421A9A422A
:10AC700005D80844984234BF0020012070470020C6
:10AC8000704700000388122B70B5014659D004D8D4
:10AC9000102B1ED0112B44D070BD502BFCD12F4B4C
:10ACA000C288DB899A42F7D1038A022BF4D18688C5
:10ACB0003046FFF797FF05460028EDD001F112005E
:10ACC00000F0BEF938BB6868FCF77CF90028E3D0D7
:10ACD00009E0C37B012BDFD14FF6FF70FFF782FF46
:10ACE000054620B90420BDE87040FFF785BF1C4A27
:10ACF0008E880680002303721368C0F80A305368F8
:10AD0000C0F80E3010310A30FFF7A2FF134B687203
:10AD1000DB89002BC0D129463046BDE87040FFF7E3
:10AD200073BF8088FFF75EFF04460028B4D04068F8
:10AD3000FCF748F908B1FFF75FFF4FF6FF73238078
:10AD4000AAE786883046FFF74DFF05460028A3D0C6
:10AD500008310A30FFF77CFF6872DCE7B43100206D
:10AD6000E4310020F7B5174601900E4691B1019CE1
:10AD70006CB100252C46294601A8FDF798F918B1B9
:10AD80003946A8B2B04701340135142DF3D120461D
:10AD900003B0F0BD0C46FAE70AB1FDF767B9FDF75D
:10ADA0007CB973B50191019C06466CB100252C4617
:10ADB000294601A8FDF77BF918B106EB44030134DD
:10ADC0009D800135142DF3D13046346002B070BD42
:10ADD0002DE9F04703888488103B8CB005460A2B88
:10ADE00021D8DFE803F00640202020202020206525
:10ADF0004700DFF8E880D8F80830DB430093D8F844
:10AE000004106846FDF7B8F9009901A8FFF7C9FFDB
:10AE10000DF108090027019B9F4207D3132C12D97B
:10AE20000420FBF78FFF0CB0BDE8F08739F802ABC8
:10AE300000260136514608EB8600FDF72EF91E2E3E
:10AE4000F7D10137E7E71F482146FDF70FF91E4804
:10AE50002146FDF70BF9EB7B022BE4D11B48214681
:10AE6000FDF704F9DFE7174821460CB0BDE8F047CD
:10AE7000FDF713B9027A16483F2A4FEA1215214608
:10AE800094BF00220122FFF787FF022D94BF00220A
:10AE9000012210482146FFF77FFF012D0E4894BF85
:10AEA0000022012221460CB0BDE8F047FFF774BF35
:10AEB000037A002BB7D1427A0548C2F3C00221467B
:10AEC000F1E700BFF4310020F0310020F83100201C
:10AED0000432002000320020FC310020EC31002040
:10AEE0001328014602D80248FDF7E1B80020704758
:10AEF000F031002007B50190FFF7F2FF019930B162
:10AF00000448FDF7D4F8002814BF0220012003B044
:10AF10005DF804FBF831002007B50190FFF7E0FF72
:10AF2000019930B10448FDF7C2F8002814BF02208F
:10AF3000012003B05DF804FBF431002007B5019057
:10AF4000FFF7CEFF019928B1044803B05DF804EB88
:10AF5000FDF7ADB803B05DF804FB00BFFC31002085
:10AF600007B50190FFF7BCFF019928B1044803B071
:10AF70005DF804EBFDF79BB803B05DF804FB00BF80
:10AF80000032002007B50190FFF7AAFF019928B110
:10AF9000044803B05DF804EBFDF789B803B05DF831
:10AFA00004FB00BF0432002070B50A4E054630464F
:10AFB0000C46FDF77CF858B12846FFF791FF38B1F1
:10AFC0000734294606EB8400BDE87040FDF76FB8F2
:10AFD000002070BDEC310020F8B50B4F0546384617
:10AFE0000C461646FDF763F860B12846FFF778FF78
:10AFF00040B107343246294607EB8400BDE8F840EB
:10B00000FFF7CABEF8BD00BFEC31002073B50B4D91
:10B01000019204460E4601462846FDF748F850B115
:10B02000063405EB8404019A6068314602B0BDE83D
:10B030007040FFF797BE02B070BD00BFEC3100203A
:10B04000008800F001007047A0DF7047A1DF704763
:10B05000ADDF7047B3DF7047B4DF704710B504460B
:10B06000408800F04FFDA0802046BDE8104001F070
:10B0700073BC30B587B005460C461422002101A8E8
:10B0800002F025FF082301A88DF80430ADF8065022
:10B090000394FFF7E3FF07B030BD000070B586B042
:10B0A00005461422002101A802F011FF4FF6FF739C
:10B0B0009D42ADF806503FD0284600F015FC1128FF
:10B0C000044633D016D8D8B10B2820D02046FDF73F
:10B0D000F7FD1A4E1A4902461A48361AF60836047F
:10B0E00046F001002B46FBF7BCFC21462846FFF743
:10B0F000C0FF03E043F202039842E7D1002216E0CA
:10B100000F238DF8043001A8FFF7A8FFF6E71023FE
:10B110008DF8043009480B4B0B49C01AC0080004D5
:10B120002A4640F00200FBF793FCECE70122074BB4
:10B1300028461978FFF750FF06B070BDD0E6020030
:10B1400021F1020058E60200A1F002006F32002057
:10B15000FFF7A4BF024B034918780022FFF756BF40
:10B160007132002069B102002DE9F047DFF8348127
:10B1700088B098F800100446FFF716FF064600282E
:10B1800040F08480204600F013FC0828054632D0A9
:10B1900016D808B306285BD02846FDF791FD3D4F31
:10B1A0003D4902463D483F1AFF083F0447F0010071
:10B1B0002346FBF756FC29462046FFF75AFF09E0D5
:10B1C00043F20203984205D043F20143984259D01A
:10B1D0001128E1D1012546E03146142203A802F0EE
:10B1E00076FE112303A88DF80C30ADF80E40012631
:10B1F000FFF734FFEEE70DF10600FFF72BFF3546B2
:10B2000001274FF0020A0DF10809BDF80630BB42D4
:10B210001ED9002249463846CDE903A9FFF71CFF95
:10B22000B0B9BDF808303DB942F605255B1B5D425B
:10B230005D410137BFB2E8E742F602129342F8D10E
:10B2400001AB03AA394620460493FFF701FF30B152
:10B25000204600F057FC00F0D7FB002503E0BDF8C6
:10B260000430002BF4D00E4B2A4619782046FFF705
:10B27000B3FE98F800103246204608B0BDE8F0470B
:10B28000FFF7AABE2046FFF709FFA3E708B0BDE815
:10B29000F08700BFD0E6020072F1020058E602001B
:10B2A000713200207232002013B5044600F02AFCEF
:10B2B00000236A46092100F038FF052805D1044B18
:10B2C000012219782046FFF787FE02B010BD00BFAB
:10B2D0006D32002008B5084B084918780022FFF7A6
:10B2E00095FE024630B9064B06491878BDE808407D
:10B2F000FFF78CBE08BD00BF7032002045B30200CE
:10B300006D32002009B3020037B542F6A623ADF82E
:10B3100000300A4B044618680190012501AA6946CD
:10B320002046ADF80250FFF78FFE28B9044B2A469D
:10B3300019782046FFF750FE03B030BD40F30200FD
:10B340006C32002070B5012186B006462B48FCF710
:10B35000E4FE0446BFF35F8F00284AD1304600F078
:10B3600037FA1128054639D018D8002843D00B28C1
:10B3700032D02846FDF7A4FC214C2249024622483F
:10B38000241AE408240444F001003346FBF769FB67
:10B3900029463046FFF76DFE00241DE0862803D0C5
:10B3A00043F202039842E3E71422214601A802F087
:10B3B0008EFD07238DF804301148134B1349ADF867
:10B3C0000660C01AC008000440F002003246FBF7D5
:10B3D0003FFB01A8FFF742FE224600E001220C4B92
:10B3E00030461978FFF7F8FD1CB9BFF35F8F034BA8
:10B3F0001C6006B070BD01240246F0E768320020F0
:10B40000D0E60200E7F1020058E60200B2F10200C5
:10B410007032002038B503780446A3B94088FFF79E
:10B420003DFE6588284600F0B1FA28B1064B01229E
:10B4300019782846FFF7D0FD6088FFF735FFBDE893
:10B440003840FFF747BF38BD7132002037B5037869
:10B45000092B044630D1427A72BB057A072D1BD0E6
:10B46000082D2ED0012D27D180886A46294601F06B
:10B470009BF808BB019B1B78F3B1A08800F070FB20
:10B480004FF6FF73984217D0124B2A461978FFF7F0
:10B49000A3FDFFF75FFE0FE0808800F061FB4FF631
:10B4A000FF739842044607D00B4B01221978FFF72F
:10B4B00093FD2046FFF7F8FE03B0BDE83040FFF7EC
:10B4C00009BF064B19680129F6D1BFF35F8F1A60D7
:10B4D000F2E700BF71320020703200206832002095
:10B4E00037B5134B0022CDE90032124B0D461978C7
:10B4F0000446FFF771FD1049104B2046002D08BF90
:10B500000B46019300F0FEFA0022694600F07AFE35
:10B5100060B1FDF7D5FB0A4B0A4902460A481B1ADF
:10B52000DB081B0443F00200FBF792FA03B030BDC6
:10B53000010009006D32002044F3020048F30200CC
:10B54000D0E6020024F2020058E6020070B503883B
:10B550008488502B86B0054639D00FD8352B49D07A
:10B56000362B00F08D80584B584918780022FFF791
:10B570004DFD06B0BDE87040FFF7ECBD522B22D068
:10B58000542BF0D11422002101A802F0A0FC1223B8
:10B5900020468DF80430ADF8064000F0B3FAADF85F
:10B5A000080000F031FA4A4B204619780022FFF7D4
:10B5B00013FD484B204619780022FFF70DFD01A826
:10B5C000FFF74CFDCFE72046FFF768FDCBE7037B95
:10B5D000012BC8D1827A012AC5D1018942F6021312
:10B5E0009942C0D13C4B20461978FFF7F5FCFFF794
:10B5F00071FEB8E7394E20463178FFF7D5FC0028B8
:10B60000B1D0002231782046FFF7E6FCEA88B2F597
:10B61000857F0AD072B13248324BC01AC00800048C
:10B62000314940F00200FBF713FA00212046FFF7F2
:10B6300057FF98E76A89012A09D02948294B2B49E5
:10B64000C01AC008000440F00200FBF701FAAE89FE
:10B65000012E07D02248234BC01AC00800043246EE
:10B660002349DEE7E98900222046FFF7EFFC0028A6
:10B67000DBD1204B324619782046FFF7ADFC72E74C
:10B680001C4E20463178FFF78FFC00283FF46BAF4B
:10B69000317800222046FFF79FFCEE8836B1104833
:10B6A000104BC01AC00800043246B9E7EA89012AE3
:10B6B00005D00B480B4BC01AC0080004D0E7297C0A
:10B6C000003918BF0121B1E76F32002051B10200EB
:10B6D0007232002071320020703200206C32002063
:10B6E000D0E6020058E6020081F20200BBF202003E
:10B6F000F5F202006E320020AFDF7047B1DF704715
:10B70000B2DF7047B3DF704710B50446808800F0A1
:10B7100027FA60802046BDE8104001F01FB9000004
:10B72000F0B5204B204E93E8030089B001AD85E8C9
:10B7300003004FF6FF773088B84217D00022294621
:10B7400000F060FD044638B31422002103A802F083
:10B75000BEFB3388ADF81030112C07D0862C07D1F2
:10B7600007238DF80C3003A8FFF7CEFF09B0F0BD1A
:10B770002046FDF7A5FA0D4D33880D4902460D48C8
:10B780002D1AED082D0445F00100FBF76AF9082396
:10B790008DF80C300594E6E7308800F0A0FD30808D
:10B7A000C9E700BF30F5020074320020D8E602007D
:10B7B0004CF3020058E60200044B1A884FF6FF7360
:10B7C0009A4201D0FFF7ACBF704700BF743200202F
:10B7D0002DE9F04F87B0804600F094F94FF6FF73E3
:10B7E0009842064675D03C4D3C4BED1AED082D04B1
:10B7F00045F0010501273A4602AB0821304600F02A
:10B80000D7FE0137BFB2044600285DD1DDF80CB089
:10B81000DA464FF003094AF8069B4B460BF1040247
:10B8200051464046FFF76CFF034698BB04AA082127
:10B83000304600F0B9FE58B1052814D0FDF740FAA3
:10B840002749024643462846FBF70BF94B4610E0D2
:10B850000599BBF804308A889A4204D106315046D3
:10B8600002F0AEFA48B132460821304600F064FFDB
:10B870000346184607B0BDE8F08F0821304600F0B7
:10B8800009FF28B1FDF71CFA164903463246DAE7EC
:10B890000B23EEE70C2815D0052800D123460821FC
:10B8A0003046019300F0F6FE019B40B1FDF708FA27
:10B8B0000C49034632462846FBF7D3F80323002CF5
:10B8C00099D1D6E70124EAE7072814BF03460C23E1
:10B8D000CFE743F20203CCE7D8E6020058E60200C5
:10B8E000A1F30200D9F302002DE9F341054600F06F
:10B8F00009F94FF6FF73984222D100240326274608
:10B900004FF001083346224639462846FFF7F6FE37
:10B9100004282BD0082830D00B2828D116F0020399
:10B9200019D1E7B9FCB91648164B17491B1ADB08A1
:10B930001B042A4643F00100FBF78AF80B2019E0AC
:10B940006A46082100F030FE0028D6D1019B9C8871
:10B950001E689F1DD4E701264FF00008D2E703269A
:10B960001C461F46F8E703263C46F5E71120B8F1D0
:10B97000000FE3D002B0BDE8F0810020F7E700BF80
:10B9800058E60200D8E6020058F402001FB50DF197
:10B990000703039300F0B6F802AA012100F004FEA9
:10B9A00020B9039B187805B05DF804FB0020FAE786
:10B9B00070B505461048FFF7A5FE70B90E4C43F26E
:10B9C000030621884FF6FF722846FFF795FEB04226
:10B9D00011D1238801332380F3E7FDF771F9074B79
:10B9E0000749024607481B1ADB081B0443F0010005
:10B9F000FBF72EF8032070BD76320020D8E6020057
:10BA0000D0F4020058E6020013B5074A044692E853
:10BA100003006B4683E8030000221946204600F02D
:10BA2000F1FB02B010BD00BF38F5020046DF7047E1
:10BA3000421E00F10F0312F8010F10B99A42FAD119
:10BA400070470120704708B570B171B103780A786A
:10BA5000534013F0FE0F08D106220131013002F0ED
:10BA6000AFF9B0FA80F0400908BD0020FCE72DE9ED
:10BA7000F04700F101084F1C06460D4600F1110980
:10BA800001F1110A10223946404602F099F90446A4
:10BA9000D0B94046FFF7CCFF18B13846FFF7C8FFD2
:10BAA000044651464846FFF7CEFF737C03F0FC0383
:10BAB000042B05D06B7C03F0FC03042B18BF044659
:10BAC00004F00100BDE8F0870024EAE77FB50546F1
:10BAD0000E4600F061FB02AA0DF10601072000F0FE
